{
	"data": {
		"bytecode": {
			"linkReferences": {},
			"object": "6080604052604051620076d3380380620076d38339818101604052810190620000299190620015fe565b878781600390805190602001906200004392919062001184565b5080600490805190602001906200005c92919062001184565b5050506200007f6200007362000c1e60201b60201c565b62000c2660201b60201c565b8460006004811062000096576200009562001708565b5b6020020151600960006101000a81548173ffffffffffffffffffffffffffffffffffffffff021916908373ffffffffffffffffffffffffffffffffffffffff16021790555084600260048110620000f257620000f162001708565b5b6020020151600f60006101000a81548173ffffffffffffffffffffffffffffffffffffffff021916908373ffffffffffffffffffffffffffffffffffffffff160217905550600f60009054906101000a900473ffffffffffffffffffffffffffffffffffffffff1673ffffffffffffffffffffffffffffffffffffffff163373ffffffffffffffffffffffffffffffffffffffff161415620001cb576040517f08c379a0000000000000000000000000000000000000000000000000000000008152600401620001c290620017be565b60405180910390fd5b62000219600f60009054906101000a900473ffffffffffffffffffffffffffffffffffffffff1673ffffffffffffffffffffffffffffffffffffffff1662000cec60201b620029cb1760201c565b156200025c576040517f08c379a0000000000000000000000000000000000000000000000000000000008152600401620002539062001856565b60405180910390fd5b8360006003811062000273576200027262001708565b5b6020020151600b819055508360016003811062000295576200029462001708565b5b6020020151600c8190555083600260038110620002b757620002b662001708565b5b6020020151600d81905550620002fb600d54620002e7600c54600b5462000cff60201b620029de1790919060201c565b62000cff60201b620029de1790919060201c565b600e819055506019600e5411156200034a576040517f08c379a00000000000000000000000000000000000000000000000000000000081526004016200034190620018c8565b60405180910390fd5b620003666103e88762000d1760201b620029f41790919060201c565b600a81905550620493e0601081905550620003a78560036004811062000391576200039062001708565b5b602002015162000d2f60201b62002a0a1760201c565b600860006101000a81548173ffffffffffffffffffffffffffffffffffffffff021916908373ffffffffffffffffffffffffffffffffffffffff160217905550600860009054906101000a900473ffffffffffffffffffffffffffffffffffffffff1673ffffffffffffffffffffffffffffffffffffffff1663cd6dc687600960009054906101000a900473ffffffffffffffffffffffffffffffffffffffff16856040518363ffffffff1660e01b8152600401620004689291906200190c565b600060405180830381600087803b1580156200048357600080fd5b505af115801562000498573d6000803e3d6000fd5b50505050600085600160048110620004b557620004b462001708565b5b6020020151905060008173ffffffffffffffffffffffffffffffffffffffff1663c45a01556040518163ffffffff1660e01b815260040160206040518083038186803b1580156200050557600080fd5b505afa1580156200051a573d6000803e3d6000fd5b505050506040513d601f19601f8201168201806040525081019062000540919062001939565b73ffffffffffffffffffffffffffffffffffffffff1663c9c65396308473ffffffffffffffffffffffffffffffffffffffff1663ad5c46486040518163ffffffff1660e01b815260040160206040518083038186803b158015620005a357600080fd5b505afa158015620005b8573d6000803e3d6000fd5b505050506040513d601f19601f82011682018060405250810190620005de919062001939565b6040518363ffffffff1660e01b8152600401620005fd9291906200196b565b602060405180830381600087803b1580156200061857600080fd5b505af11580156200062d573d6000803e3d6000fd5b505050506040513d601f19601f8201168201806040525081019062000653919062001939565b905081600660006101000a81548173ffffffffffffffffffffffffffffffffffffffff021916908373ffffffffffffffffffffffffffffffffffffffff16021790555080600760006101000a81548173ffffffffffffffffffffffffffffffffffffffff021916908373ffffffffffffffffffffffffffffffffffffffff160217905550620006ea81600162000e0760201b60201c565b600860009054906101000a900473ffffffffffffffffffffffffffffffffffffffff1673ffffffffffffffffffffffffffffffffffffffff166331e79db0600860009054906101000a900473ffffffffffffffffffffffffffffffffffffffff166040518263ffffffff1660e01b815260040162000769919062001998565b600060405180830381600087803b1580156200078457600080fd5b505af115801562000799573d6000803e3d6000fd5b50505050600860009054906101000a900473ffffffffffffffffffffffffffffffffffffffff1673ffffffffffffffffffffffffffffffffffffffff166331e79db0306040518263ffffffff1660e01b8152600401620007fa919062001998565b600060405180830381600087803b1580156200081557600080fd5b505af11580156200082a573d6000803e3d6000fd5b50505050600860009054906101000a900473ffffffffffffffffffffffffffffffffffffffff1673ffffffffffffffffffffffffffffffffffffffff166331e79db06200087c62000fd760201b60201c565b6040518263ffffffff1660e01b81526004016200089a919062001998565b600060405180830381600087803b158015620008b557600080fd5b505af1158015620008ca573d6000803e3d6000fd5b50505050600860009054906101000a900473ffffffffffffffffffffffffffffffffffffffff1673ffffffffffffffffffffffffffffffffffffffff166331e79db061dead6040518263ffffffff1660e01b81526004016200092d919062001998565b600060405180830381600087803b1580156200094857600080fd5b505af11580156200095d573d6000803e3d6000fd5b50505050600860009054906101000a900473ffffffffffffffffffffffffffffffffffffffff1673ffffffffffffffffffffffffffffffffffffffff166331e79db0836040518263ffffffff1660e01b8152600401620009be919062001998565b600060405180830381600087803b158015620009d957600080fd5b505af1158015620009ee573d6000803e3d6000fd5b5050505060016011600062000a0862000fd760201b60201c565b73ffffffffffffffffffffffffffffffffffffffff1673ffffffffffffffffffffffffffffffffffffffff16815260200190815260200160002060006101000a81548160ff021916908315150217905550600160116000600f60009054906101000a900473ffffffffffffffffffffffffffffffffffffffff1673ffffffffffffffffffffffffffffffffffffffff1673ffffffffffffffffffffffffffffffffffffffff16815260200190815260200160002060006101000a81548160ff0219169083151502179055506001601160003073ffffffffffffffffffffffffffffffffffffffff1673ffffffffffffffffffffffffffffffffffffffff16815260200190815260200160002060006101000a81548160ff02191690831515021790555062000b4c62000b3f62000fd760201b60201c565b896200100160201b60201c565b3073ffffffffffffffffffffffffffffffffffffffff1662000b7362000fd760201b60201c565b73ffffffffffffffffffffffffffffffffffffffff167f56358b41df5fa59f5639228f0930994cbdde383c8a8fd74e06c04e1deebe35626002600360405162000bbe92919062001a35565b60405180910390a38373ffffffffffffffffffffffffffffffffffffffff166108fc849081150290604051600060405180830381858888f1935050505015801562000c0d573d6000803e3d6000fd5b505050505050505050505062001d79565b600033905090565b6000600560009054906101000a900473ffffffffffffffffffffffffffffffffffffffff16905081600560006101000a81548173ffffffffffffffffffffffffffffffffffffffff021916908373ffffffffffffffffffffffffffffffffffffffff1602179055508173ffffffffffffffffffffffffffffffffffffffff168173ffffffffffffffffffffffffffffffffffffffff167f8be0079c531659141344cd1fd0a4f28419497f9722a3daafe3b4186f6b6457e060405160405180910390a35050565b600080823b905060008111915050919050565b6000818362000d0f919062001a91565b905092915050565b6000818362000d27919062001b1d565b905092915050565b60006040517f3d602d80600a3d3981f3363d3d373d3d3d363d7300000000000000000000000081528260601b60148201527f5af43d82803e903d91602b57fd5bf3000000000000000000000000000000000060288201526037816000f0915050600073ffffffffffffffffffffffffffffffffffffffff168173ffffffffffffffffffffffffffffffffffffffff16141562000e02576040517f08c379a000000000000000000000000000000000000000000000000000000000815260040162000df99062001ba5565b60405180910390fd5b919050565b801515601260008473ffffffffffffffffffffffffffffffffffffffff1673ffffffffffffffffffffffffffffffffffffffff16815260200190815260200160002060009054906101000a900460ff161515141562000e9d576040517f08c379a000000000000000000000000000000000000000000000000000000000815260040162000e949062001c63565b60405180910390fd5b80601260008473ffffffffffffffffffffffffffffffffffffffff1673ffffffffffffffffffffffffffffffffffffffff16815260200190815260200160002060006101000a81548160ff021916908315150217905550801562000f8d57600860009054906101000a900473ffffffffffffffffffffffffffffffffffffffff1673ffffffffffffffffffffffffffffffffffffffff166331e79db0836040518263ffffffff1660e01b815260040162000f58919062001998565b600060405180830381600087803b15801562000f7357600080fd5b505af115801562000f88573d6000803e3d6000fd5b505050505b8015158273ffffffffffffffffffffffffffffffffffffffff167fffa9187bf1f18bf477bd0ea1bcbb64e93b6a98132473929edfce215cd9b16fab60405160405180910390a35050565b6000600560009054906101000a900473ffffffffffffffffffffffffffffffffffffffff16905090565b600073ffffffffffffffffffffffffffffffffffffffff168273ffffffffffffffffffffffffffffffffffffffff16141562001074576040517f08c379a00000000000000000000000000000000000000000000000000000000081526004016200106b9062001cd5565b60405180910390fd5b62001088600083836200117a60201b60201c565b80600260008282546200109c919062001a91565b92505081905550806000808473ffffffffffffffffffffffffffffffffffffffff1673ffffffffffffffffffffffffffffffffffffffff1681526020019081526020016000206000828254620010f3919062001a91565b925050819055508173ffffffffffffffffffffffffffffffffffffffff16600073ffffffffffffffffffffffffffffffffffffffff167fddf252ad1be2c89b69c2b068fc378daa952ba7f163c4a11628f55a4df523b3ef836040516200115a919062001cf7565b60405180910390a362001176600083836200117f60201b60201c565b5050565b505050565b505050565b828054620011929062001d43565b90600052602060002090601f016020900481019282620011b6576000855562001202565b82601f10620011d157805160ff191683800117855562001202565b8280016001018555821562001202579182015b8281111562001201578251825591602001919060010190620011e4565b5b50905062001211919062001215565b5090565b5b808211156200123057600081600090555060010162001216565b5090565b6000604051905090565b600080fd5b600080fd5b600080fd5b600080fd5b6000601f19601f8301169050919050565b7f4e487b7100000000000000000000000000000000000000000000000000000000600052604160045260246000fd5b6200129d8262001252565b810181811067ffffffffffffffff82111715620012bf57620012be62001263565b5b80604052505050565b6000620012d462001234565b9050620012e2828262001292565b919050565b600067ffffffffffffffff82111562001305576200130462001263565b5b620013108262001252565b9050602081019050919050565b60005b838110156200133d57808201518184015260208101905062001320565b838111156200134d576000848401525b50505050565b60006200136a6200136484620012e7565b620012c8565b9050828152602081018484840111156200138957620013886200124d565b5b620013968482856200131d565b509392505050565b600082601f830112620013b657620013b562001248565b5b8151620013c884826020860162001353565b91505092915050565b6000819050919050565b620013e681620013d1565b8114620013f257600080fd5b50565b6000815190506200140681620013db565b92915050565b600067ffffffffffffffff8211156200142a576200142962001263565b5b602082029050919050565b600080fd5b600073ffffffffffffffffffffffffffffffffffffffff82169050919050565b600062001467826200143a565b9050919050565b62001479816200145a565b81146200148557600080fd5b50565b60008151905062001499816200146e565b92915050565b6000620014b6620014b0846200140c565b620012c8565b90508060208402830185811115620014d357620014d262001435565b5b835b81811015620015005780620014eb888262001488565b845260208401935050602081019050620014d5565b5050509392505050565b600082601f83011262001522576200152162001248565b5b6004620015318482856200149f565b91505092915050565b600067ffffffffffffffff82111562001558576200155762001263565b5b602082029050919050565b60006200157a62001574846200153a565b620012c8565b9050806020840283018581111562001597576200159662001435565b5b835b81811015620015c45780620015af8882620013f5565b84526020840193505060208101905062001599565b5050509392505050565b600082601f830112620015e657620015e562001248565b5b6003620015f584828562001563565b91505092915050565b6000806000806000806000806101a0898b0312156200162257620016216200123e565b5b600089015167ffffffffffffffff81111562001643576200164262001243565b5b620016518b828c016200139e565b985050602089015167ffffffffffffffff81111562001675576200167462001243565b5b620016838b828c016200139e565b9750506040620016968b828c01620013f5565b9650506060620016a98b828c016200150a565b95505060e0620016bc8b828c01620015ce565b945050610140620016d08b828c01620013f5565b935050610160620016e48b828c0162001488565b925050610180620016f88b828c01620013f5565b9150509295985092959890939650565b7f4e487b7100000000000000000000000000000000000000000000000000000000600052603260045260246000fd5b600082825260208201905092915050565b7f4f776e657220616e64206d61726b6574696e672077616c6c65742063616e6e6f60008201527f74206265207468652073616d6500000000000000000000000000000000000000602082015250565b6000620017a6602d8362001737565b9150620017b38262001748565b604082019050919050565b60006020820190508181036000830152620017d98162001797565b9050919050565b7f4d61726b6574696e672077616c6c65742063616e6e6f74206265206120636f6e60008201527f7472616374000000000000000000000000000000000000000000000000000000602082015250565b60006200183e60258362001737565b91506200184b82620017e0565b604082019050919050565b6000602082019050818103600083015262001871816200182f565b9050919050565b7f546f74616c20666565206973206f766572203235250000000000000000000000600082015250565b6000620018b060158362001737565b9150620018bd8262001878565b602082019050919050565b60006020820190508181036000830152620018e381620018a1565b9050919050565b620018f5816200145a565b82525050565b6200190681620013d1565b82525050565b6000604082019050620019236000830185620018ea565b620019326020830184620018fb565b9392505050565b6000602082840312156200195257620019516200123e565b5b6000620019628482850162001488565b91505092915050565b6000604082019050620019826000830185620018ea565b620019916020830184620018ea565b9392505050565b6000602082019050620019af6000830184620018ea565b92915050565b7f4e487b7100000000000000000000000000000000000000000000000000000000600052602160045260246000fd5b60048110620019f857620019f7620019b5565b5b50565b600081905062001a0b82620019e4565b919050565b600062001a1d82620019fb565b9050919050565b62001a2f8162001a10565b82525050565b600060408201905062001a4c600083018562001a24565b62001a5b6020830184620018fb565b9392505050565b7f4e487b7100000000000000000000000000000000000000000000000000000000600052601160045260246000fd5b600062001a9e82620013d1565b915062001aab83620013d1565b9250827fffffffffffffffffffffffffffffffffffffffffffffffffffffffffffffffff0382111562001ae35762001ae262001a62565b5b828201905092915050565b7f4e487b7100000000000000000000000000000000000000000000000000000000600052601260045260246000fd5b600062001b2a82620013d1565b915062001b3783620013d1565b92508262001b4a5762001b4962001aee565b5b828204905092915050565b7f455243313136373a20637265617465206661696c656400000000000000000000600082015250565b600062001b8d60168362001737565b915062001b9a8262001b55565b602082019050919050565b6000602082019050818103600083015262001bc08162001b7e565b9050919050565b7f42414259544f4b454e3a204175746f6d61746564206d61726b6574206d616b6560008201527f72207061697220697320616c72656164792073657420746f207468617420766160208201527f6c75650000000000000000000000000000000000000000000000000000000000604082015250565b600062001c4b60438362001737565b915062001c588262001bc7565b606082019050919050565b6000602082019050818103600083015262001c7e8162001c3c565b9050919050565b7f45524332303a206d696e7420746f20746865207a65726f206164647265737300600082015250565b600062001cbd601f8362001737565b915062001cca8262001c85565b602082019050919050565b6000602082019050818103600083015262001cf08162001cae565b9050919050565b600060208201905062001d0e6000830184620018fb565b92915050565b7f4e487b7100000000000000000000000000000000000000000000000000000000600052602260045260246000fd5b6000600282049050600182168062001d5c57607f821691505b6020821081141562001d735762001d7262001d14565b5b50919050565b61594a8062001d896000396000f3fe6080604052600436106102e85760003560e01c8063715018a611610190578063b62496f5116100dc578063e708a0f911610095578063f27fd2541161006f578063f27fd25414610b8a578063f2fde38b14610bce578063f7c618c114610bf7578063ffa1ad7414610c22576102ef565b8063e708a0f914610b0b578063e7841ec014610b36578063e98030c714610b61576102ef565b8063b62496f5146109d5578063bdd4f29f14610a12578063c705c56914610a3d578063dd62ed3e14610a7a578063e2f4560514610ab7578063e57f14e114610ae2576102ef565b8063a26579ad11610149578063a9059cbb11610123578063a9059cbb14610902578063ad56c13c1461093f578063adefd90c14610983578063afa4f3b2146109ac576102ef565b8063a26579ad1461085d578063a457c2d714610888578063a8b9d240146108c5576102ef565b8063715018a614610771578063871c128d146107885780638da5cb5b146107b157806395d89b41146107dc57806398118cb4146108075780639c1b8af514610832576102ef565b8063395093511161024f5780635d098b38116102085780636843cd84116101e25780636843cd84146106a35780636b67c4df146106e0578063700bb1911461070b57806370a0823114610734576102ef565b80635d098b3814610626578063625e764c1461064f57806364b0f65314610678576102ef565b806339509351146105165780634144d9e41461055357806349bd5a5e1461057e5780634e71d92d146105a95780634ed080c7146105c05780634fbee193146105e9576102ef565b806318160ddd116102a157806318160ddd1461040457806323b872dd1461042f5780632c1f52161461046c57806330bb4cff14610497578063313ce567146104c257806331e79db0146104ed576102ef565b806306fdde03146102f4578063095ea7b31461031f5780630c43c79b1461035c5780630dcb2e891461038557806313114a9d146103ae5780631694505e146103d9576102ef565b366102ef57005b600080fd5b34801561030057600080fd5b50610309610c4d565b604051610316919061429d565b60405180910390f35b34801561032b57600080fd5b506103466004803603810190610341919061435d565b610cdf565b60405161035391906143b8565b60405180910390f35b34801561036857600080fd5b50610383600480360381019061037e9190614438565b610cfd565b005b34801561039157600080fd5b506103ac60048036038101906103a79190614485565b610e57565b005b3480156103ba57600080fd5b506103c3610f63565b6040516103d091906144c1565b60405180910390f35b3480156103e557600080fd5b506103ee610f69565b6040516103fb919061453b565b60405180910390f35b34801561041057600080fd5b50610419610f8f565b60405161042691906144c1565b60405180910390f35b34801561043b57600080fd5b5061045660048036038101906104519190614556565b610f99565b60405161046391906143b8565b60405180910390f35b34801561047857600080fd5b50610481611091565b60405161048e91906145ca565b60405180910390f35b3480156104a357600080fd5b506104ac6110b7565b6040516104b991906144c1565b60405180910390f35b3480156104ce57600080fd5b506104d761115e565b6040516104e49190614601565b60405180910390f35b3480156104f957600080fd5b50610514600480360381019061050f919061461c565b611167565b005b34801561052257600080fd5b5061053d6004803603810190610538919061435d565b611273565b60405161054a91906143b8565b60405180910390f35b34801561055f57600080fd5b5061056861131f565b6040516105759190614658565b60405180910390f35b34801561058a57600080fd5b50610593611345565b6040516105a09190614658565b60405180910390f35b3480156105b557600080fd5b506105be61136b565b005b3480156105cc57600080fd5b506105e760048036038101906105e29190614485565b61141e565b005b3480156105f557600080fd5b50610610600480360381019061060b919061461c565b61151b565b60405161061d91906143b8565b60405180910390f35b34801561063257600080fd5b5061064d600480360381019061064891906146b1565b611571565b005b34801561065b57600080fd5b5061067660048036038101906106719190614485565b611700565b005b34801561068457600080fd5b5061068d6117fd565b60405161069a91906144c1565b60405180910390f35b3480156106af57600080fd5b506106ca60048036038101906106c5919061461c565b6118a4565b6040516106d791906144c1565b60405180910390f35b3480156106ec57600080fd5b506106f5611958565b60405161070291906144c1565b60405180910390f35b34801561071757600080fd5b50610732600480360381019061072d9190614485565b61195e565b005b34801561074057600080fd5b5061075b6004803603810190610756919061461c565b611a74565b60405161076891906144c1565b60405180910390f35b34801561077d57600080fd5b50610786611abc565b005b34801561079457600080fd5b506107af60048036038101906107aa9190614485565b611b44565b005b3480156107bd57600080fd5b506107c6611c94565b6040516107d39190614658565b60405180910390f35b3480156107e857600080fd5b506107f1611cbe565b6040516107fe919061429d565b60405180910390f35b34801561081357600080fd5b5061081c611d50565b60405161082991906144c1565b60405180910390f35b34801561083e57600080fd5b50610847611d56565b60405161085491906144c1565b60405180910390f35b34801561086957600080fd5b50610872611d5c565b60405161087f91906144c1565b60405180910390f35b34801561089457600080fd5b506108af60048036038101906108aa919061435d565b611e03565b6040516108bc91906143b8565b60405180910390f35b3480156108d157600080fd5b506108ec60048036038101906108e7919061461c565b611eee565b6040516108f991906144c1565b60405180910390f35b34801561090e57600080fd5b506109296004803603810190610924919061435d565b611fa2565b60405161093691906143b8565b60405180910390f35b34801561094b57600080fd5b506109666004803603810190610961919061461c565b611fc0565b60405161097a9897969594939291906146f7565b60405180910390f35b34801561098f57600080fd5b506109aa60048036038101906109a59190614485565b612093565b005b3480156109b857600080fd5b506109d360048036038101906109ce9190614485565b612190565b005b3480156109e157600080fd5b506109fc60048036038101906109f7919061461c565b61226d565b604051610a0991906143b8565b60405180910390f35b348015610a1e57600080fd5b50610a2761228d565b604051610a3491906144c1565b60405180910390f35b348015610a4957600080fd5b50610a646004803603810190610a5f919061461c565b612334565b604051610a7191906143b8565b60405180910390f35b348015610a8657600080fd5b50610aa16004803603810190610a9c9190614775565b6123e8565b604051610aae91906144c1565b60405180910390f35b348015610ac357600080fd5b50610acc61246f565b604051610ad991906144c1565b60405180910390f35b348015610aee57600080fd5b50610b096004803603810190610b04919061461c565b612475565b005b348015610b1757600080fd5b50610b2061261c565b604051610b2d91906144c1565b60405180910390f35b348015610b4257600080fd5b50610b4b612622565b604051610b5891906144c1565b60405180910390f35b348015610b6d57600080fd5b50610b886004803603810190610b839190614485565b6126c9565b005b348015610b9657600080fd5b50610bb16004803603810190610bac9190614485565b6127d5565b604051610bc59897969594939291906146f7565b60405180910390f35b348015610bda57600080fd5b50610bf56004803603810190610bf0919061461c565b6128a8565b005b348015610c0357600080fd5b50610c0c6129a0565b604051610c199190614658565b60405180910390f35b348015610c2e57600080fd5b50610c376129c6565b604051610c4491906144c1565b60405180910390f35b606060038054610c5c906147e4565b80601f0160208091040260200160405190810160405280929190818152602001828054610c88906147e4565b8015610cd55780601f10610caa57610100808354040283529160200191610cd5565b820191906000526020600020905b815481529060010190602001808311610cb857829003601f168201915b5050505050905090565b6000610cf3610cec612adf565b8484612ae7565b6001905092915050565b610d05612adf565b73ffffffffffffffffffffffffffffffffffffffff16610d23611c94565b73ffffffffffffffffffffffffffffffffffffffff1614610d79576040517f08c379a0000000000000000000000000000000000000000000000000000000008152600401610d7090614862565b60405180910390fd5b60005b82829050811015610e1957600160116000858585818110610da057610d9f614882565b5b9050602002016020810190610db5919061461c565b73ffffffffffffffffffffffffffffffffffffffff1673ffffffffffffffffffffffffffffffffffffffff16815260200190815260200160002060006101000a81548160ff0219169083151502179055508080610e11906148e0565b915050610d7c565b507f6f058e77d614a1061fc197c99cdde12f5fa414c92529bbe8f48b02f8d9f4f95d8282604051610e4b9291906149ec565b60405180910390a15050565b610e5f612adf565b73ffffffffffffffffffffffffffffffffffffffff16610e7d611c94565b73ffffffffffffffffffffffffffffffffffffffff1614610ed3576040517f08c379a0000000000000000000000000000000000000000000000000000000008152600401610eca90614862565b60405180910390fd5b600860009054906101000a900473ffffffffffffffffffffffffffffffffffffffff1673ffffffffffffffffffffffffffffffffffffffff16630dcb2e89826040518263ffffffff1660e01b8152600401610f2e91906144c1565b600060405180830381600087803b158015610f4857600080fd5b505af1158015610f5c573d6000803e3d6000fd5b5050505050565b600e5481565b600660009054906101000a900473ffffffffffffffffffffffffffffffffffffffff1681565b6000600254905090565b6000610fa6848484612cb2565b6000600160008673ffffffffffffffffffffffffffffffffffffffff1673ffffffffffffffffffffffffffffffffffffffff1681526020019081526020016000206000610ff1612adf565b73ffffffffffffffffffffffffffffffffffffffff1673ffffffffffffffffffffffffffffffffffffffff16815260200190815260200160002054905082811015611071576040517f08c379a000000000000000000000000000000000000000000000000000000000815260040161106890614a82565b60405180910390fd5b6110858561107d612adf565b858403612ae7565b60019150509392505050565b600860009054906101000a900473ffffffffffffffffffffffffffffffffffffffff1681565b6000600860009054906101000a900473ffffffffffffffffffffffffffffffffffffffff1673ffffffffffffffffffffffffffffffffffffffff166385a6b3ae6040518163ffffffff1660e01b815260040160206040518083038186803b15801561112157600080fd5b505afa158015611135573d6000803e3d6000fd5b505050506040513d601f19601f820116820180604052508101906111599190614ab7565b905090565b60006012905090565b61116f612adf565b73ffffffffffffffffffffffffffffffffffffffff1661118d611c94565b73ffffffffffffffffffffffffffffffffffffffff16146111e3576040517f08c379a00000000000000000000000000000000000000000000000000000000081526004016111da90614862565b60405180910390fd5b600860009054906101000a900473ffffffffffffffffffffffffffffffffffffffff1673ffffffffffffffffffffffffffffffffffffffff166331e79db0826040518263ffffffff1660e01b815260040161123e9190614658565b600060405180830381600087803b15801561125857600080fd5b505af115801561126c573d6000803e3d6000fd5b5050505050565b6000611315611280612adf565b84846001600061128e612adf565b73ffffffffffffffffffffffffffffffffffffffff1673ffffffffffffffffffffffffffffffffffffffff16815260200190815260200160002060008873ffffffffffffffffffffffffffffffffffffffff1673ffffffffffffffffffffffffffffffffffffffff168152602001908152602001600020546113109190614ae4565b612ae7565b6001905092915050565b600f60009054906101000a900473ffffffffffffffffffffffffffffffffffffffff1681565b600760009054906101000a900473ffffffffffffffffffffffffffffffffffffffff1681565b600860009054906101000a900473ffffffffffffffffffffffffffffffffffffffff1673ffffffffffffffffffffffffffffffffffffffff1663bc4c4b373360006040518363ffffffff1660e01b81526004016113c9929190614b49565b602060405180830381600087803b1580156113e357600080fd5b505af11580156113f7573d6000803e3d6000fd5b505050506040513d601f19601f8201168201806040525081019061141b9190614b9e565b50565b611426612adf565b73ffffffffffffffffffffffffffffffffffffffff16611444611c94565b73ffffffffffffffffffffffffffffffffffffffff161461149a576040517f08c379a000000000000000000000000000000000000000000000000000000000815260040161149190614862565b60405180910390fd5b80600b819055506114cc600d546114be600c54600b546129de90919063ffffffff16565b6129de90919063ffffffff16565b600e819055506019600e541115611518576040517f08c379a000000000000000000000000000000000000000000000000000000000815260040161150f90614c17565b60405180910390fd5b50565b6000601160008373ffffffffffffffffffffffffffffffffffffffff1673ffffffffffffffffffffffffffffffffffffffff16815260200190815260200160002060009054906101000a900460ff169050919050565b611579612adf565b73ffffffffffffffffffffffffffffffffffffffff16611597611c94565b73ffffffffffffffffffffffffffffffffffffffff16146115ed576040517f08c379a00000000000000000000000000000000000000000000000000000000081526004016115e490614862565b60405180910390fd5b600073ffffffffffffffffffffffffffffffffffffffff168173ffffffffffffffffffffffffffffffffffffffff16141561165d576040517f08c379a000000000000000000000000000000000000000000000000000000000815260040161165490614ca9565b60405180910390fd5b61167c8173ffffffffffffffffffffffffffffffffffffffff166129cb565b156116bc576040517f08c379a00000000000000000000000000000000000000000000000000000000081526004016116b390614d3b565b60405180910390fd5b80600f60006101000a81548173ffffffffffffffffffffffffffffffffffffffff021916908373ffffffffffffffffffffffffffffffffffffffff16021790555050565b611708612adf565b73ffffffffffffffffffffffffffffffffffffffff16611726611c94565b73ffffffffffffffffffffffffffffffffffffffff161461177c576040517f08c379a000000000000000000000000000000000000000000000000000000000815260040161177390614862565b60405180910390fd5b80600d819055506117ae600d546117a0600c54600b546129de90919063ffffffff16565b6129de90919063ffffffff16565b600e819055506019600e5411156117fa576040517f08c379a00000000000000000000000000000000000000000000000000000000081526004016117f190614c17565b60405180910390fd5b50565b6000600860009054906101000a900473ffffffffffffffffffffffffffffffffffffffff1673ffffffffffffffffffffffffffffffffffffffff166309bbedde6040518163ffffffff1660e01b815260040160206040518083038186803b15801561186757600080fd5b505afa15801561187b573d6000803e3d6000fd5b505050506040513d601f19601f8201168201806040525081019061189f9190614ab7565b905090565b6000600860009054906101000a900473ffffffffffffffffffffffffffffffffffffffff1673ffffffffffffffffffffffffffffffffffffffff166370a08231836040518263ffffffff1660e01b81526004016119019190614658565b60206040518083038186803b15801561191957600080fd5b505afa15801561192d573d6000803e3d6000fd5b505050506040513d601f19601f820116820180604052508101906119519190614ab7565b9050919050565b600d5481565b6000806000600860009054906101000a900473ffffffffffffffffffffffffffffffffffffffff1673ffffffffffffffffffffffffffffffffffffffff1663ffb2c479856040518263ffffffff1660e01b81526004016119be91906144c1565b606060405180830381600087803b1580156119d857600080fd5b505af11580156119ec573d6000803e3d6000fd5b505050506040513d601f19601f82011682018060405250810190611a109190614d5b565b9250925092503273ffffffffffffffffffffffffffffffffffffffff16600015157fc864333d6121033635ab41b29ae52f10a22cf4438c3e4f1c4c68518feb2f8a9885858589604051611a669493929190614dae565b60405180910390a350505050565b60008060008373ffffffffffffffffffffffffffffffffffffffff1673ffffffffffffffffffffffffffffffffffffffff168152602001908152602001600020549050919050565b611ac4612adf565b73ffffffffffffffffffffffffffffffffffffffff16611ae2611c94565b73ffffffffffffffffffffffffffffffffffffffff1614611b38576040517f08c379a0000000000000000000000000000000000000000000000000000000008152600401611b2f90614862565b60405180910390fd5b611b426000613334565b565b611b4c612adf565b73ffffffffffffffffffffffffffffffffffffffff16611b6a611c94565b73ffffffffffffffffffffffffffffffffffffffff1614611bc0576040517f08c379a0000000000000000000000000000000000000000000000000000000008152600401611bb790614862565b60405180910390fd5b62030d408110158015611bd657506207a1208111155b611c15576040517f08c379a0000000000000000000000000000000000000000000000000000000008152600401611c0c90614e65565b60405180910390fd5b601054811415611c5a576040517f08c379a0000000000000000000000000000000000000000000000000000000008152600401611c5190614ef7565b60405180910390fd5b601054817f40d7e40e79af4e8e5a9b3c57030d8ea93f13d669c06d448c4d631d4ae7d23db760405160405180910390a38060108190555050565b6000600560009054906101000a900473ffffffffffffffffffffffffffffffffffffffff16905090565b606060048054611ccd906147e4565b80601f0160208091040260200160405190810160405280929190818152602001828054611cf9906147e4565b8015611d465780601f10611d1b57610100808354040283529160200191611d46565b820191906000526020600020905b815481529060010190602001808311611d2957829003601f168201915b5050505050905090565b600c5481565b60105481565b6000600860009054906101000a900473ffffffffffffffffffffffffffffffffffffffff1673ffffffffffffffffffffffffffffffffffffffff16636f2789ec6040518163ffffffff1660e01b815260040160206040518083038186803b158015611dc657600080fd5b505afa158015611dda573d6000803e3d6000fd5b505050506040513d601f19601f82011682018060405250810190611dfe9190614ab7565b905090565b60008060016000611e12612adf565b73ffffffffffffffffffffffffffffffffffffffff1673ffffffffffffffffffffffffffffffffffffffff16815260200190815260200160002060008573ffffffffffffffffffffffffffffffffffffffff1673ffffffffffffffffffffffffffffffffffffffff16815260200190815260200160002054905082811015611ecf576040517f08c379a0000000000000000000000000000000000000000000000000000000008152600401611ec690614f89565b60405180910390fd5b611ee3611eda612adf565b85858403612ae7565b600191505092915050565b6000600860009054906101000a900473ffffffffffffffffffffffffffffffffffffffff1673ffffffffffffffffffffffffffffffffffffffff1663a8b9d240836040518263ffffffff1660e01b8152600401611f4b9190614658565b60206040518083038186803b158015611f6357600080fd5b505afa158015611f77573d6000803e3d6000fd5b505050506040513d601f19601f82011682018060405250810190611f9b9190614ab7565b9050919050565b6000611fb6611faf612adf565b8484612cb2565b6001905092915050565b600080600080600080600080600860009054906101000a900473ffffffffffffffffffffffffffffffffffffffff1673ffffffffffffffffffffffffffffffffffffffff1663fbcbc0f18a6040518263ffffffff1660e01b81526004016120279190614658565b6101006040518083038186803b15801561204057600080fd5b505afa158015612054573d6000803e3d6000fd5b505050506040513d601f19601f820116820180604052508101906120789190614fea565b97509750975097509750975097509750919395975091939597565b61209b612adf565b73ffffffffffffffffffffffffffffffffffffffff166120b9611c94565b73ffffffffffffffffffffffffffffffffffffffff161461210f576040517f08c379a000000000000000000000000000000000000000000000000000000000815260040161210690614862565b60405180910390fd5b80600c81905550612141600d54612133600c54600b546129de90919063ffffffff16565b6129de90919063ffffffff16565b600e819055506019600e54111561218d576040517f08c379a000000000000000000000000000000000000000000000000000000000815260040161218490614c17565b60405180910390fd5b50565b612198612adf565b73ffffffffffffffffffffffffffffffffffffffff166121b6611c94565b73ffffffffffffffffffffffffffffffffffffffff161461220c576040517f08c379a000000000000000000000000000000000000000000000000000000000815260040161220390614862565b60405180910390fd5b620186a0612218610f8f565b61222291906150cf565b8111612263576040517f08c379a000000000000000000000000000000000000000000000000000000000815260040161225a90615172565b60405180910390fd5b80600a8190555050565b60126020528060005260406000206000915054906101000a900460ff1681565b6000600860009054906101000a900473ffffffffffffffffffffffffffffffffffffffff1673ffffffffffffffffffffffffffffffffffffffff1663be10b6146040518163ffffffff1660e01b815260040160206040518083038186803b1580156122f757600080fd5b505afa15801561230b573d6000803e3d6000fd5b505050506040513d601f19601f8201168201806040525081019061232f9190614ab7565b905090565b6000600860009054906101000a900473ffffffffffffffffffffffffffffffffffffffff1673ffffffffffffffffffffffffffffffffffffffff1663c705c569836040518263ffffffff1660e01b81526004016123919190614658565b60206040518083038186803b1580156123a957600080fd5b505afa1580156123bd573d6000803e3d6000fd5b505050506040513d601f19601f820116820180604052508101906123e19190614b9e565b9050919050565b6000600160008473ffffffffffffffffffffffffffffffffffffffff1673ffffffffffffffffffffffffffffffffffffffff16815260200190815260200160002060008373ffffffffffffffffffffffffffffffffffffffff1673ffffffffffffffffffffffffffffffffffffffff16815260200190815260200160002054905092915050565b600a5481565b61247d612adf565b73ffffffffffffffffffffffffffffffffffffffff1661249b611c94565b73ffffffffffffffffffffffffffffffffffffffff16146124f1576040517f08c379a00000000000000000000000000000000000000000000000000000000081526004016124e890614862565b60405180910390fd5b601160008273ffffffffffffffffffffffffffffffffffffffff1673ffffffffffffffffffffffffffffffffffffffff16815260200190815260200160002060009054906101000a900460ff161561257e576040517f08c379a000000000000000000000000000000000000000000000000000000000815260040161257590615204565b60405180910390fd5b6001601160008373ffffffffffffffffffffffffffffffffffffffff1673ffffffffffffffffffffffffffffffffffffffff16815260200190815260200160002060006101000a81548160ff0219169083151502179055508073ffffffffffffffffffffffffffffffffffffffff167f57a00f76b5f242fb1e04b0b514a6974665a5b07bce45e39f36dabff4a042d93660405160405180910390a250565b600b5481565b6000600860009054906101000a900473ffffffffffffffffffffffffffffffffffffffff1673ffffffffffffffffffffffffffffffffffffffff1663e7841ec06040518163ffffffff1660e01b815260040160206040518083038186803b15801561268c57600080fd5b505afa1580156126a0573d6000803e3d6000fd5b505050506040513d601f19601f820116820180604052508101906126c49190614ab7565b905090565b6126d1612adf565b73ffffffffffffffffffffffffffffffffffffffff166126ef611c94565b73ffffffffffffffffffffffffffffffffffffffff1614612745576040517f08c379a000000000000000000000000000000000000000000000000000000000815260040161273c90614862565b60405180910390fd5b600860009054906101000a900473ffffffffffffffffffffffffffffffffffffffff1673ffffffffffffffffffffffffffffffffffffffff1663e98030c7826040518263ffffffff1660e01b81526004016127a091906144c1565b600060405180830381600087803b1580156127ba57600080fd5b505af11580156127ce573d6000803e3d6000fd5b5050505050565b600080600080600080600080600860009054906101000a900473ffffffffffffffffffffffffffffffffffffffff1673ffffffffffffffffffffffffffffffffffffffff16635183d6fd8a6040518263ffffffff1660e01b815260040161283c91906144c1565b6101006040518083038186803b15801561285557600080fd5b505afa158015612869573d6000803e3d6000fd5b505050506040513d601f19601f8201168201806040525081019061288d9190614fea565b97509750975097509750975097509750919395975091939597565b6128b0612adf565b73ffffffffffffffffffffffffffffffffffffffff166128ce611c94565b73ffffffffffffffffffffffffffffffffffffffff1614612924576040517f08c379a000000000000000000000000000000000000000000000000000000000815260040161291b90614862565b60405180910390fd5b600073ffffffffffffffffffffffffffffffffffffffff168173ffffffffffffffffffffffffffffffffffffffff161415612994576040517f08c379a000000000000000000000000000000000000000000000000000000000815260040161298b90615296565b60405180910390fd5b61299d81613334565b50565b600960009054906101000a900473ffffffffffffffffffffffffffffffffffffffff1681565b600381565b600080823b905060008111915050919050565b600081836129ec9190614ae4565b905092915050565b60008183612a0291906150cf565b905092915050565b60006040517f3d602d80600a3d3981f3363d3d373d3d3d363d7300000000000000000000000081528260601b60148201527f5af43d82803e903d91602b57fd5bf3000000000000000000000000000000000060288201526037816000f0915050600073ffffffffffffffffffffffffffffffffffffffff168173ffffffffffffffffffffffffffffffffffffffff161415612ada576040517f08c379a0000000000000000000000000000000000000000000000000000000008152600401612ad190615302565b60405180910390fd5b919050565b600033905090565b600073ffffffffffffffffffffffffffffffffffffffff168373ffffffffffffffffffffffffffffffffffffffff161415612b57576040517f08c379a0000000000000000000000000000000000000000000000000000000008152600401612b4e90615394565b60405180910390fd5b600073ffffffffffffffffffffffffffffffffffffffff168273ffffffffffffffffffffffffffffffffffffffff161415612bc7576040517f08c379a0000000000000000000000000000000000000000000000000000000008152600401612bbe90615426565b60405180910390fd5b80600160008573ffffffffffffffffffffffffffffffffffffffff1673ffffffffffffffffffffffffffffffffffffffff16815260200190815260200160002060008473ffffffffffffffffffffffffffffffffffffffff1673ffffffffffffffffffffffffffffffffffffffff168152602001908152602001600020819055508173ffffffffffffffffffffffffffffffffffffffff168373ffffffffffffffffffffffffffffffffffffffff167f8c5be1e5ebec7d5bd14f71427d1e84f3dd0314c0f7b2291e5b200ac8c7c3b92583604051612ca591906144c1565b60405180910390a3505050565b600073ffffffffffffffffffffffffffffffffffffffff168373ffffffffffffffffffffffffffffffffffffffff161415612d22576040517f08c379a0000000000000000000000000000000000000000000000000000000008152600401612d19906154b8565b60405180910390fd5b600073ffffffffffffffffffffffffffffffffffffffff168273ffffffffffffffffffffffffffffffffffffffff161415612d92576040517f08c379a0000000000000000000000000000000000000000000000000000000008152600401612d899061554a565b60405180910390fd5b6000811415612dac57612da7838360006133fa565b61332f565b6000612db730611a74565b90506000600a548210159050808015612ddd5750600760149054906101000a900460ff16155b8015612e335750601260008673ffffffffffffffffffffffffffffffffffffffff1673ffffffffffffffffffffffffffffffffffffffff16815260200190815260200160002060009054906101000a900460ff16155b8015612e725750612e42611c94565b73ffffffffffffffffffffffffffffffffffffffff168573ffffffffffffffffffffffffffffffffffffffff1614155b8015612eb15750612e81611c94565b73ffffffffffffffffffffffffffffffffffffffff168473ffffffffffffffffffffffffffffffffffffffff1614155b8015612ebf57506000600e54115b15612fa2576001600760146101000a81548160ff0219169083151502179055506000600d541115612f22576000612f15600e54612f07600d548661367b90919063ffffffff16565b6129f490919063ffffffff16565b9050612f2081613691565b505b6000600c541115612f65576000612f58600e54612f4a600c548661367b90919063ffffffff16565b6129f490919063ffffffff16565b9050612f63816138e1565b505b6000612f7030611a74565b90506000811115612f8557612f8481613981565b5b6000600760146101000a81548160ff021916908315150217905550505b6000600760149054906101000a900460ff16159050601160008773ffffffffffffffffffffffffffffffffffffffff1673ffffffffffffffffffffffffffffffffffffffff16815260200190815260200160002060009054906101000a900460ff16806130585750601160008673ffffffffffffffffffffffffffffffffffffffff1673ffffffffffffffffffffffffffffffffffffffff16815260200190815260200160002060009054906101000a900460ff165b1561306257600090505b80801561307157506000600e54115b156130c45760006130a06064613092600e548861367b90919063ffffffff16565b6129f490919063ffffffff16565b90506130b58186613be090919063ffffffff16565b94506130c28730836133fa565b505b6130cf8686866133fa565b600860009054906101000a900473ffffffffffffffffffffffffffffffffffffffff1673ffffffffffffffffffffffffffffffffffffffff1663e30443bc8761311789611a74565b6040518363ffffffff1660e01b815260040161313492919061556a565b600060405180830381600087803b15801561314e57600080fd5b505af192505050801561315f575060015b61316857613169565b5b600860009054906101000a900473ffffffffffffffffffffffffffffffffffffffff1673ffffffffffffffffffffffffffffffffffffffff1663e30443bc866131b188611a74565b6040518363ffffffff1660e01b81526004016131ce92919061556a565b600060405180830381600087803b1580156131e857600080fd5b505af19250505080156131f9575060015b61320257613203565b5b600760149054906101000a900460ff1661332b5760006010549050600860009054906101000a900473ffffffffffffffffffffffffffffffffffffffff1673ffffffffffffffffffffffffffffffffffffffff1663ffb2c479826040518263ffffffff1660e01b815260040161327991906144c1565b606060405180830381600087803b15801561329357600080fd5b505af19250505080156132c457506040513d601f19601f820116820180604052508101906132c19190614d5b565b60015b6132cd57613329565b3273ffffffffffffffffffffffffffffffffffffffff16600115157fc864333d6121033635ab41b29ae52f10a22cf4438c3e4f1c4c68518feb2f8a988585858960405161331d9493929190614dae565b60405180910390a35050505b505b5050505b505050565b6000600560009054906101000a900473ffffffffffffffffffffffffffffffffffffffff16905081600560006101000a81548173ffffffffffffffffffffffffffffffffffffffff021916908373ffffffffffffffffffffffffffffffffffffffff1602179055508173ffffffffffffffffffffffffffffffffffffffff168173ffffffffffffffffffffffffffffffffffffffff167f8be0079c531659141344cd1fd0a4f28419497f9722a3daafe3b4186f6b6457e060405160405180910390a35050565b600073ffffffffffffffffffffffffffffffffffffffff168373ffffffffffffffffffffffffffffffffffffffff16141561346a576040517f08c379a0000000000000000000000000000000000000000000000000000000008152600401613461906154b8565b60405180910390fd5b600073ffffffffffffffffffffffffffffffffffffffff168273ffffffffffffffffffffffffffffffffffffffff1614156134da576040517f08c379a00000000000000000000000000000000000000000000000000000000081526004016134d19061554a565b60405180910390fd5b6134e5838383613bf6565b60008060008573ffffffffffffffffffffffffffffffffffffffff1673ffffffffffffffffffffffffffffffffffffffff1681526020019081526020016000205490508181101561356b576040517f08c379a000000000000000000000000000000000000000000000000000000000815260040161356290615605565b60405180910390fd5b8181036000808673ffffffffffffffffffffffffffffffffffffffff1673ffffffffffffffffffffffffffffffffffffffff16815260200190815260200160002081905550816000808573ffffffffffffffffffffffffffffffffffffffff1673ffffffffffffffffffffffffffffffffffffffff16815260200190815260200160002060008282546135fe9190614ae4565b925050819055508273ffffffffffffffffffffffffffffffffffffffff168473ffffffffffffffffffffffffffffffffffffffff167fddf252ad1be2c89b69c2b068fc378daa952ba7f163c4a11628f55a4df523b3ef8460405161366291906144c1565b60405180910390a3613675848484613bfb565b50505050565b600081836136899190615625565b905092915050565b6000600960009054906101000a900473ffffffffffffffffffffffffffffffffffffffff1673ffffffffffffffffffffffffffffffffffffffff166370a08231306040518263ffffffff1660e01b81526004016136ee9190614658565b60206040518083038186803b15801561370657600080fd5b505afa15801561371a573d6000803e3d6000fd5b505050506040513d601f19601f8201168201806040525081019061373e9190614ab7565b905061374982613c00565b600061380882600960009054906101000a900473ffffffffffffffffffffffffffffffffffffffff1673ffffffffffffffffffffffffffffffffffffffff166370a08231306040518263ffffffff1660e01b81526004016137aa9190614658565b60206040518083038186803b1580156137c257600080fd5b505afa1580156137d6573d6000803e3d6000fd5b505050506040513d601f19601f820116820180604052508101906137fa9190614ab7565b613be090919063ffffffff16565b9050600960009054906101000a900473ffffffffffffffffffffffffffffffffffffffff1673ffffffffffffffffffffffffffffffffffffffff1663a9059cbb600f60009054906101000a900473ffffffffffffffffffffffffffffffffffffffff16836040518363ffffffff1660e01b815260040161388992919061567f565b602060405180830381600087803b1580156138a357600080fd5b505af11580156138b7573d6000803e3d6000fd5b505050506040513d601f19601f820116820180604052508101906138db9190614b9e565b50505050565b60006138f76002836129f490919063ffffffff16565b9050600061390e8284613be090919063ffffffff16565b9050600047905061391e83613ec3565b60006139338247613be090919063ffffffff16565b905061393f8382614115565b7f17bbfb9a6069321b6ded73bd96327c9e6b7212a5cd51ff219cd61370acafb561848285604051613972939291906156a8565b60405180910390a15050505050565b61398a81613c00565b6000600960009054906101000a900473ffffffffffffffffffffffffffffffffffffffff1673ffffffffffffffffffffffffffffffffffffffff166370a08231306040518263ffffffff1660e01b81526004016139e79190614658565b60206040518083038186803b1580156139ff57600080fd5b505afa158015613a13573d6000803e3d6000fd5b505050506040513d601f19601f82011682018060405250810190613a379190614ab7565b90506000600960009054906101000a900473ffffffffffffffffffffffffffffffffffffffff1673ffffffffffffffffffffffffffffffffffffffff1663a9059cbb600860009054906101000a900473ffffffffffffffffffffffffffffffffffffffff16846040518363ffffffff1660e01b8152600401613aba92919061567f565b602060405180830381600087803b158015613ad457600080fd5b505af1158015613ae8573d6000803e3d6000fd5b505050506040513d601f19601f82011682018060405250810190613b0c9190614b9e565b90508015613bdb57600860009054906101000a900473ffffffffffffffffffffffffffffffffffffffff1673ffffffffffffffffffffffffffffffffffffffff1663ba72a955836040518263ffffffff1660e01b8152600401613b6f91906144c1565b600060405180830381600087803b158015613b8957600080fd5b505af1158015613b9d573d6000803e3d6000fd5b505050507f80195cc573b02cc48460cbca6e6e4cc85ddb91959d946e1c3025ea3d87942dc38383604051613bd29291906156df565b60405180910390a15b505050565b60008183613bee9190615708565b905092915050565b505050565b505050565b6000600367ffffffffffffffff811115613c1d57613c1c61573c565b5b604051908082528060200260200182016040528015613c4b5781602001602082028036833780820191505090505b5090503081600081518110613c6357613c62614882565b5b602002602001019073ffffffffffffffffffffffffffffffffffffffff16908173ffffffffffffffffffffffffffffffffffffffff1681525050600660009054906101000a900473ffffffffffffffffffffffffffffffffffffffff1673ffffffffffffffffffffffffffffffffffffffff1663ad5c46486040518163ffffffff1660e01b815260040160206040518083038186803b158015613d0557600080fd5b505afa158015613d19573d6000803e3d6000fd5b505050506040513d601f19601f82011682018060405250810190613d3d919061576b565b81600181518110613d5157613d50614882565b5b602002602001019073ffffffffffffffffffffffffffffffffffffffff16908173ffffffffffffffffffffffffffffffffffffffff1681525050600960009054906101000a900473ffffffffffffffffffffffffffffffffffffffff1681600281518110613dc257613dc1614882565b5b602002602001019073ffffffffffffffffffffffffffffffffffffffff16908173ffffffffffffffffffffffffffffffffffffffff1681525050613e2930600660009054906101000a900473ffffffffffffffffffffffffffffffffffffffff1684612ae7565b600660009054906101000a900473ffffffffffffffffffffffffffffffffffffffff1673ffffffffffffffffffffffffffffffffffffffff16635c11d7958360008430426040518663ffffffff1660e01b8152600401613e8d959493929190615859565b600060405180830381600087803b158015613ea757600080fd5b505af1158015613ebb573d6000803e3d6000fd5b505050505050565b6000600267ffffffffffffffff811115613ee057613edf61573c565b5b604051908082528060200260200182016040528015613f0e5781602001602082028036833780820191505090505b5090503081600081518110613f2657613f25614882565b5b602002602001019073ffffffffffffffffffffffffffffffffffffffff16908173ffffffffffffffffffffffffffffffffffffffff1681525050600660009054906101000a900473ffffffffffffffffffffffffffffffffffffffff1673ffffffffffffffffffffffffffffffffffffffff1663ad5c46486040518163ffffffff1660e01b815260040160206040518083038186803b158015613fc857600080fd5b505afa158015613fdc573d6000803e3d6000fd5b505050506040513d601f19601f82011682018060405250810190614000919061576b565b8160018151811061401457614013614882565b5b602002602001019073ffffffffffffffffffffffffffffffffffffffff16908173ffffffffffffffffffffffffffffffffffffffff168152505061407b30600660009054906101000a900473ffffffffffffffffffffffffffffffffffffffff1684612ae7565b600660009054906101000a900473ffffffffffffffffffffffffffffffffffffffff1673ffffffffffffffffffffffffffffffffffffffff1663791ac9478360008430426040518663ffffffff1660e01b81526004016140df959493929190615859565b600060405180830381600087803b1580156140f957600080fd5b505af115801561410d573d6000803e3d6000fd5b505050505050565b61414230600660009054906101000a900473ffffffffffffffffffffffffffffffffffffffff1684612ae7565b600660009054906101000a900473ffffffffffffffffffffffffffffffffffffffff1673ffffffffffffffffffffffffffffffffffffffff1663f305d71982308560008061dead426040518863ffffffff1660e01b81526004016141ab969594939291906158b3565b6060604051808303818588803b1580156141c457600080fd5b505af11580156141d8573d6000803e3d6000fd5b50505050506040513d601f19601f820116820180604052508101906141fd9190614d5b565b5050505050565b600081519050919050565b600082825260208201905092915050565b60005b8381101561423e578082015181840152602081019050614223565b8381111561424d576000848401525b50505050565b6000601f19601f8301169050919050565b600061426f82614204565b614279818561420f565b9350614289818560208601614220565b61429281614253565b840191505092915050565b600060208201905081810360008301526142b78184614264565b905092915050565b600080fd5b600080fd5b600073ffffffffffffffffffffffffffffffffffffffff82169050919050565b60006142f4826142c9565b9050919050565b614304816142e9565b811461430f57600080fd5b50565b600081359050614321816142fb565b92915050565b6000819050919050565b61433a81614327565b811461434557600080fd5b50565b60008135905061435781614331565b92915050565b60008060408385031215614374576143736142bf565b5b600061438285828601614312565b925050602061439385828601614348565b9150509250929050565b60008115159050919050565b6143b28161439d565b82525050565b60006020820190506143cd60008301846143a9565b92915050565b600080fd5b600080fd5b600080fd5b60008083601f8401126143f8576143f76143d3565b5b8235905067ffffffffffffffff811115614415576144146143d8565b5b602083019150836020820283011115614431576144306143dd565b5b9250929050565b6000806020838503121561444f5761444e6142bf565b5b600083013567ffffffffffffffff81111561446d5761446c6142c4565b5b614479858286016143e2565b92509250509250929050565b60006020828403121561449b5761449a6142bf565b5b60006144a984828501614348565b91505092915050565b6144bb81614327565b82525050565b60006020820190506144d660008301846144b2565b92915050565b6000819050919050565b60006145016144fc6144f7846142c9565b6144dc565b6142c9565b9050919050565b6000614513826144e6565b9050919050565b600061452582614508565b9050919050565b6145358161451a565b82525050565b6000602082019050614550600083018461452c565b92915050565b60008060006060848603121561456f5761456e6142bf565b5b600061457d86828701614312565b935050602061458e86828701614312565b925050604061459f86828701614348565b9150509250925092565b60006145b482614508565b9050919050565b6145c4816145a9565b82525050565b60006020820190506145df60008301846145bb565b92915050565b600060ff82169050919050565b6145fb816145e5565b82525050565b600060208201905061461660008301846145f2565b92915050565b600060208284031215614632576146316142bf565b5b600061464084828501614312565b91505092915050565b614652816142e9565b82525050565b600060208201905061466d6000830184614649565b92915050565b600061467e826142c9565b9050919050565b61468e81614673565b811461469957600080fd5b50565b6000813590506146ab81614685565b92915050565b6000602082840312156146c7576146c66142bf565b5b60006146d58482850161469c565b91505092915050565b6000819050919050565b6146f1816146de565b82525050565b60006101008201905061470d600083018b614649565b61471a602083018a6146e8565b61472760408301896146e8565b61473460608301886144b2565b61474160808301876144b2565b61474e60a08301866144b2565b61475b60c08301856144b2565b61476860e08301846144b2565b9998505050505050505050565b6000806040838503121561478c5761478b6142bf565b5b600061479a85828601614312565b92505060206147ab85828601614312565b9150509250929050565b7f4e487b7100000000000000000000000000000000000000000000000000000000600052602260045260246000fd5b600060028204905060018216806147fc57607f821691505b602082108114156148105761480f6147b5565b5b50919050565b7f4f776e61626c653a2063616c6c6572206973206e6f7420746865206f776e6572600082015250565b600061484c60208361420f565b915061485782614816565b602082019050919050565b6000602082019050818103600083015261487b8161483f565b9050919050565b7f4e487b7100000000000000000000000000000000000000000000000000000000600052603260045260246000fd5b7f4e487b7100000000000000000000000000000000000000000000000000000000600052601160045260246000fd5b60006148eb82614327565b91507fffffffffffffffffffffffffffffffffffffffffffffffffffffffffffffffff82141561491e5761491d6148b1565b5b600182019050919050565b600082825260208201905092915050565b6000819050919050565b61494d816142e9565b82525050565b600061495f8383614944565b60208301905092915050565b600061497a6020840184614312565b905092915050565b6000602082019050919050565b600061499b8385614929565b93506149a68261493a565b8060005b858110156149df576149bc828461496b565b6149c68882614953565b97506149d183614982565b9250506001810190506149aa565b5085925050509392505050565b60006020820190508181036000830152614a0781848661498f565b90509392505050565b7f45524332303a207472616e7366657220616d6f756e742065786365656473206160008201527f6c6c6f77616e6365000000000000000000000000000000000000000000000000602082015250565b6000614a6c60288361420f565b9150614a7782614a10565b604082019050919050565b60006020820190508181036000830152614a9b81614a5f565b9050919050565b600081519050614ab181614331565b92915050565b600060208284031215614acd57614acc6142bf565b5b6000614adb84828501614aa2565b91505092915050565b6000614aef82614327565b9150614afa83614327565b9250827fffffffffffffffffffffffffffffffffffffffffffffffffffffffffffffffff03821115614b2f57614b2e6148b1565b5b828201905092915050565b614b4381614673565b82525050565b6000604082019050614b5e6000830185614b3a565b614b6b60208301846143a9565b9392505050565b614b7b8161439d565b8114614b8657600080fd5b50565b600081519050614b9881614b72565b92915050565b600060208284031215614bb457614bb36142bf565b5b6000614bc284828501614b89565b91505092915050565b7f546f74616c20666565206973206f766572203235250000000000000000000000600082015250565b6000614c0160158361420f565b9150614c0c82614bcb565b602082019050919050565b60006020820190508181036000830152614c3081614bf4565b9050919050565b7f42414259544f4b454e3a20546865206d61726b6574696e672077616c6c65742060008201527f63616e6e6f74206265207468652076616c7565206f66207a65726f0000000000602082015250565b6000614c93603b8361420f565b9150614c9e82614c37565b604082019050919050565b60006020820190508181036000830152614cc281614c86565b9050919050565b7f4d61726b6574696e672077616c6c65742063616e6e6f74206265206120636f6e60008201527f7472616374000000000000000000000000000000000000000000000000000000602082015250565b6000614d2560258361420f565b9150614d3082614cc9565b604082019050919050565b60006020820190508181036000830152614d5481614d18565b9050919050565b600080600060608486031215614d7457614d736142bf565b5b6000614d8286828701614aa2565b9350506020614d9386828701614aa2565b9250506040614da486828701614aa2565b9150509250925092565b6000608082019050614dc360008301876144b2565b614dd060208301866144b2565b614ddd60408301856144b2565b614dea60608301846144b2565b95945050505050565b7f42414259544f4b454e3a20676173466f7250726f63657373696e67206d75737460008201527f206265206265747765656e203230302c30303020616e64203530302c30303000602082015250565b6000614e4f603f8361420f565b9150614e5a82614df3565b604082019050919050565b60006020820190508181036000830152614e7e81614e42565b9050919050565b7f42414259544f4b454e3a2043616e6e6f742075706461746520676173466f725060008201527f726f63657373696e6720746f2073616d652076616c7565000000000000000000602082015250565b6000614ee160378361420f565b9150614eec82614e85565b604082019050919050565b60006020820190508181036000830152614f1081614ed4565b9050919050565b7f45524332303a2064656372656173656420616c6c6f77616e63652062656c6f7760008201527f207a65726f000000000000000000000000000000000000000000000000000000602082015250565b6000614f7360258361420f565b9150614f7e82614f17565b604082019050919050565b60006020820190508181036000830152614fa281614f66565b9050919050565b600081519050614fb8816142fb565b92915050565b614fc7816146de565b8114614fd257600080fd5b50565b600081519050614fe481614fbe565b92915050565b600080600080600080600080610100898b03121561500b5761500a6142bf565b5b60006150198b828c01614fa9565b985050602061502a8b828c01614fd5565b975050604061503b8b828c01614fd5565b965050606061504c8b828c01614aa2565b955050608061505d8b828c01614aa2565b94505060a061506e8b828c01614aa2565b93505060c061507f8b828c01614aa2565b92505060e06150908b828c01614aa2565b9150509295985092959890939650565b7f4e487b7100000000000000000000000000000000000000000000000000000000600052601260045260246000fd5b60006150da82614327565b91506150e583614327565b9250826150f5576150f46150a0565b5b828204905092915050565b7f42414259544f4b454e3a20416d6f756e74206d7573742062652067726561746560008201527f72207468616e20302e30303125206f6620746f74616c20737570706c79000000602082015250565b600061515c603d8361420f565b915061516782615100565b604082019050919050565b6000602082019050818103600083015261518b8161514f565b9050919050565b7f42414259544f4b454e3a204163636f756e7420697320616c726561647920657860008201527f636c756465640000000000000000000000000000000000000000000000000000602082015250565b60006151ee60268361420f565b91506151f982615192565b604082019050919050565b6000602082019050818103600083015261521d816151e1565b9050919050565b7f4f776e61626c653a206e6577206f776e657220697320746865207a65726f206160008201527f6464726573730000000000000000000000000000000000000000000000000000602082015250565b600061528060268361420f565b915061528b82615224565b604082019050919050565b600060208201905081810360008301526152af81615273565b9050919050565b7f455243313136373a20637265617465206661696c656400000000000000000000600082015250565b60006152ec60168361420f565b91506152f7826152b6565b602082019050919050565b6000602082019050818103600083015261531b816152df565b9050919050565b7f45524332303a20617070726f76652066726f6d20746865207a65726f2061646460008201527f7265737300000000000000000000000000000000000000000000000000000000602082015250565b600061537e60248361420f565b915061538982615322565b604082019050919050565b600060208201905081810360008301526153ad81615371565b9050919050565b7f45524332303a20617070726f766520746f20746865207a65726f20616464726560008201527f7373000000000000000000000000000000000000000000000000000000000000602082015250565b600061541060228361420f565b915061541b826153b4565b604082019050919050565b6000602082019050818103600083015261543f81615403565b9050919050565b7f45524332303a207472616e736665722066726f6d20746865207a65726f20616460008201527f6472657373000000000000000000000000000000000000000000000000000000602082015250565b60006154a260258361420f565b91506154ad82615446565b604082019050919050565b600060208201905081810360008301526154d181615495565b9050919050565b7f45524332303a207472616e7366657220746f20746865207a65726f206164647260008201527f6573730000000000000000000000000000000000000000000000000000000000602082015250565b600061553460238361420f565b915061553f826154d8565b604082019050919050565b6000602082019050818103600083015261556381615527565b9050919050565b600060408201905061557f6000830185614b3a565b61558c60208301846144b2565b9392505050565b7f45524332303a207472616e7366657220616d6f756e742065786365656473206260008201527f616c616e63650000000000000000000000000000000000000000000000000000602082015250565b60006155ef60268361420f565b91506155fa82615593565b604082019050919050565b6000602082019050818103600083015261561e816155e2565b9050919050565b600061563082614327565b915061563b83614327565b9250817fffffffffffffffffffffffffffffffffffffffffffffffffffffffffffffffff0483118215151615615674576156736148b1565b5b828202905092915050565b60006040820190506156946000830185614649565b6156a160208301846144b2565b9392505050565b60006060820190506156bd60008301866144b2565b6156ca60208301856144b2565b6156d760408301846144b2565b949350505050565b60006040820190506156f460008301856144b2565b61570160208301846144b2565b9392505050565b600061571382614327565b915061571e83614327565b925082821015615731576157306148b1565b5b828203905092915050565b7f4e487b7100000000000000000000000000000000000000000000000000000000600052604160045260246000fd5b600060208284031215615781576157806142bf565b5b600061578f84828501614fa9565b91505092915050565b6000819050919050565b60006157bd6157b86157b384615798565b6144dc565b614327565b9050919050565b6157cd816157a2565b82525050565b600081519050919050565b6000819050602082019050919050565b6000602082019050919050565b6000615806826157d3565b6158108185614929565b935061581b836157de565b8060005b8381101561584c5781516158338882614953565b975061583e836157ee565b92505060018101905061581f565b5085935050505092915050565b600060a08201905061586e60008301886144b2565b61587b60208301876157c4565b818103604083015261588d81866157fb565b905061589c6060830185614649565b6158a960808301846144b2565b9695505050505050565b600060c0820190506158c86000830189614649565b6158d560208301886144b2565b6158e260408301876157c4565b6158ef60608301866157c4565b6158fc6080830185614649565b61590960a08301846144b2565b97965050505050505056fea26469706673582212208523d6ffdc2641c866c8fa1ac0d64c4470d76a6c65a1d58bc953adbd9f52934a64736f6c63430008090033",
			"opcodes": "PUSH1 0x80 PUSH1 0x40 MSTORE PUSH1 0x40 MLOAD PUSH3 0x76D3 CODESIZE SUB DUP1 PUSH3 0x76D3 DUP4 CODECOPY DUP2 DUP2 ADD PUSH1 0x40 MSTORE DUP2 ADD SWAP1 PUSH3 0x29 SWAP2 SWAP1 PUSH3 0x15FE JUMP JUMPDEST DUP8 DUP8 DUP2 PUSH1 0x3 SWAP1 DUP1 MLOAD SWAP1 PUSH1 0x20 ADD SWAP1 PUSH3 0x43 SWAP3 SWAP2 SWAP1 PUSH3 0x1184 JUMP JUMPDEST POP DUP1 PUSH1 0x4 SWAP1 DUP1 MLOAD SWAP1 PUSH1 0x20 ADD SWAP1 PUSH3 0x5C SWAP3 SWAP2 SWAP1 PUSH3 0x1184 JUMP JUMPDEST POP POP POP PUSH3 0x7F PUSH3 0x73 PUSH3 0xC1E PUSH1 0x20 SHL PUSH1 0x20 SHR JUMP JUMPDEST PUSH3 0xC26 PUSH1 0x20 SHL PUSH1 0x20 SHR JUMP JUMPDEST DUP5 PUSH1 0x0 PUSH1 0x4 DUP2 LT PUSH3 0x96 JUMPI PUSH3 0x95 PUSH3 0x1708 JUMP JUMPDEST JUMPDEST PUSH1 0x20 MUL ADD MLOAD PUSH1 0x9 PUSH1 0x0 PUSH2 0x100 EXP DUP2 SLOAD DUP2 PUSH20 0xFFFFFFFFFFFFFFFFFFFFFFFFFFFFFFFFFFFFFFFF MUL NOT AND SWAP1 DUP4 PUSH20 0xFFFFFFFFFFFFFFFFFFFFFFFFFFFFFFFFFFFFFFFF AND MUL OR SWAP1 SSTORE POP DUP5 PUSH1 0x2 PUSH1 0x4 DUP2 LT PUSH3 0xF2 JUMPI PUSH3 0xF1 PUSH3 0x1708 JUMP JUMPDEST JUMPDEST PUSH1 0x20 MUL ADD MLOAD PUSH1 0xF PUSH1 0x0 PUSH2 0x100 EXP DUP2 SLOAD DUP2 PUSH20 0xFFFFFFFFFFFFFFFFFFFFFFFFFFFFFFFFFFFFFFFF MUL NOT AND SWAP1 DUP4 PUSH20 0xFFFFFFFFFFFFFFFFFFFFFFFFFFFFFFFFFFFFFFFF AND MUL OR SWAP1 SSTORE POP PUSH1 0xF PUSH1 0x0 SWAP1 SLOAD SWAP1 PUSH2 0x100 EXP SWAP1 DIV PUSH20 0xFFFFFFFFFFFFFFFFFFFFFFFFFFFFFFFFFFFFFFFF AND PUSH20 0xFFFFFFFFFFFFFFFFFFFFFFFFFFFFFFFFFFFFFFFF AND CALLER PUSH20 0xFFFFFFFFFFFFFFFFFFFFFFFFFFFFFFFFFFFFFFFF AND EQ ISZERO PUSH3 0x1CB JUMPI PUSH1 0x40 MLOAD PUSH32 0x8C379A000000000000000000000000000000000000000000000000000000000 DUP2 MSTORE PUSH1 0x4 ADD PUSH3 0x1C2 SWAP1 PUSH3 0x17BE JUMP JUMPDEST PUSH1 0x40 MLOAD DUP1 SWAP2 SUB SWAP1 REVERT JUMPDEST PUSH3 0x219 PUSH1 0xF PUSH1 0x0 SWAP1 SLOAD SWAP1 PUSH2 0x100 EXP SWAP1 DIV PUSH20 0xFFFFFFFFFFFFFFFFFFFFFFFFFFFFFFFFFFFFFFFF AND PUSH20 0xFFFFFFFFFFFFFFFFFFFFFFFFFFFFFFFFFFFFFFFF AND PUSH3 0xCEC PUSH1 0x20 SHL PUSH3 0x29CB OR PUSH1 0x20 SHR JUMP JUMPDEST ISZERO PUSH3 0x25C JUMPI PUSH1 0x40 MLOAD PUSH32 0x8C379A000000000000000000000000000000000000000000000000000000000 DUP2 MSTORE PUSH1 0x4 ADD PUSH3 0x253 SWAP1 PUSH3 0x1856 JUMP JUMPDEST PUSH1 0x40 MLOAD DUP1 SWAP2 SUB SWAP1 REVERT JUMPDEST DUP4 PUSH1 0x0 PUSH1 0x3 DUP2 LT PUSH3 0x273 JUMPI PUSH3 0x272 PUSH3 0x1708 JUMP JUMPDEST JUMPDEST PUSH1 0x20 MUL ADD MLOAD PUSH1 0xB DUP2 SWAP1 SSTORE POP DUP4 PUSH1 0x1 PUSH1 0x3 DUP2 LT PUSH3 0x295 JUMPI PUSH3 0x294 PUSH3 0x1708 JUMP JUMPDEST JUMPDEST PUSH1 0x20 MUL ADD MLOAD PUSH1 0xC DUP2 SWAP1 SSTORE POP DUP4 PUSH1 0x2 PUSH1 0x3 DUP2 LT PUSH3 0x2B7 JUMPI PUSH3 0x2B6 PUSH3 0x1708 JUMP JUMPDEST JUMPDEST PUSH1 0x20 MUL ADD MLOAD PUSH1 0xD DUP2 SWAP1 SSTORE POP PUSH3 0x2FB PUSH1 0xD SLOAD PUSH3 0x2E7 PUSH1 0xC SLOAD PUSH1 0xB SLOAD PUSH3 0xCFF PUSH1 0x20 SHL PUSH3 0x29DE OR SWAP1 SWAP2 SWAP1 PUSH1 0x20 SHR JUMP JUMPDEST PUSH3 0xCFF PUSH1 0x20 SHL PUSH3 0x29DE OR SWAP1 SWAP2 SWAP1 PUSH1 0x20 SHR JUMP JUMPDEST PUSH1 0xE DUP2 SWAP1 SSTORE POP PUSH1 0x19 PUSH1 0xE SLOAD GT ISZERO PUSH3 0x34A JUMPI PUSH1 0x40 MLOAD PUSH32 0x8C379A000000000000000000000000000000000000000000000000000000000 DUP2 MSTORE PUSH1 0x4 ADD PUSH3 0x341 SWAP1 PUSH3 0x18C8 JUMP JUMPDEST PUSH1 0x40 MLOAD DUP1 SWAP2 SUB SWAP1 REVERT JUMPDEST PUSH3 0x366 PUSH2 0x3E8 DUP8 PUSH3 0xD17 PUSH1 0x20 SHL PUSH3 0x29F4 OR SWAP1 SWAP2 SWAP1 PUSH1 0x20 SHR JUMP JUMPDEST PUSH1 0xA DUP2 SWAP1 SSTORE POP PUSH3 0x493E0 PUSH1 0x10 DUP2 SWAP1 SSTORE POP PUSH3 0x3A7 DUP6 PUSH1 0x3 PUSH1 0x4 DUP2 LT PUSH3 0x391 JUMPI PUSH3 0x390 PUSH3 0x1708 JUMP JUMPDEST JUMPDEST PUSH1 0x20 MUL ADD MLOAD PUSH3 0xD2F PUSH1 0x20 SHL PUSH3 0x2A0A OR PUSH1 0x20 SHR JUMP JUMPDEST PUSH1 0x8 PUSH1 0x0 PUSH2 0x100 EXP DUP2 SLOAD DUP2 PUSH20 0xFFFFFFFFFFFFFFFFFFFFFFFFFFFFFFFFFFFFFFFF MUL NOT AND SWAP1 DUP4 PUSH20 0xFFFFFFFFFFFFFFFFFFFFFFFFFFFFFFFFFFFFFFFF AND MUL OR SWAP1 SSTORE POP PUSH1 0x8 PUSH1 0x0 SWAP1 SLOAD SWAP1 PUSH2 0x100 EXP SWAP1 DIV PUSH20 0xFFFFFFFFFFFFFFFFFFFFFFFFFFFFFFFFFFFFFFFF AND PUSH20 0xFFFFFFFFFFFFFFFFFFFFFFFFFFFFFFFFFFFFFFFF AND PUSH4 0xCD6DC687 PUSH1 0x9 PUSH1 0x0 SWAP1 SLOAD SWAP1 PUSH2 0x100 EXP SWAP1 DIV PUSH20 0xFFFFFFFFFFFFFFFFFFFFFFFFFFFFFFFFFFFFFFFF AND DUP6 PUSH1 0x40 MLOAD DUP4 PUSH4 0xFFFFFFFF AND PUSH1 0xE0 SHL DUP2 MSTORE PUSH1 0x4 ADD PUSH3 0x468 SWAP3 SWAP2 SWAP1 PUSH3 0x190C JUMP JUMPDEST PUSH1 0x0 PUSH1 0x40 MLOAD DUP1 DUP4 SUB DUP2 PUSH1 0x0 DUP8 DUP1 EXTCODESIZE ISZERO DUP1 ISZERO PUSH3 0x483 JUMPI PUSH1 0x0 DUP1 REVERT JUMPDEST POP GAS CALL ISZERO DUP1 ISZERO PUSH3 0x498 JUMPI RETURNDATASIZE PUSH1 0x0 DUP1 RETURNDATACOPY RETURNDATASIZE PUSH1 0x0 REVERT JUMPDEST POP POP POP POP PUSH1 0x0 DUP6 PUSH1 0x1 PUSH1 0x4 DUP2 LT PUSH3 0x4B5 JUMPI PUSH3 0x4B4 PUSH3 0x1708 JUMP JUMPDEST JUMPDEST PUSH1 0x20 MUL ADD MLOAD SWAP1 POP PUSH1 0x0 DUP2 PUSH20 0xFFFFFFFFFFFFFFFFFFFFFFFFFFFFFFFFFFFFFFFF AND PUSH4 0xC45A0155 PUSH1 0x40 MLOAD DUP2 PUSH4 0xFFFFFFFF AND PUSH1 0xE0 SHL DUP2 MSTORE PUSH1 0x4 ADD PUSH1 0x20 PUSH1 0x40 MLOAD DUP1 DUP4 SUB DUP2 DUP7 DUP1 EXTCODESIZE ISZERO DUP1 ISZERO PUSH3 0x505 JUMPI PUSH1 0x0 DUP1 REVERT JUMPDEST POP GAS STATICCALL ISZERO DUP1 ISZERO PUSH3 0x51A JUMPI RETURNDATASIZE PUSH1 0x0 DUP1 RETURNDATACOPY RETURNDATASIZE PUSH1 0x0 REVERT JUMPDEST POP POP POP POP PUSH1 0x40 MLOAD RETURNDATASIZE PUSH1 0x1F NOT PUSH1 0x1F DUP3 ADD AND DUP3 ADD DUP1 PUSH1 0x40 MSTORE POP DUP2 ADD SWAP1 PUSH3 0x540 SWAP2 SWAP1 PUSH3 0x1939 JUMP JUMPDEST PUSH20 0xFFFFFFFFFFFFFFFFFFFFFFFFFFFFFFFFFFFFFFFF AND PUSH4 0xC9C65396 ADDRESS DUP5 PUSH20 0xFFFFFFFFFFFFFFFFFFFFFFFFFFFFFFFFFFFFFFFF AND PUSH4 0xAD5C4648 PUSH1 0x40 MLOAD DUP2 PUSH4 0xFFFFFFFF AND PUSH1 0xE0 SHL DUP2 MSTORE PUSH1 0x4 ADD PUSH1 0x20 PUSH1 0x40 MLOAD DUP1 DUP4 SUB DUP2 DUP7 DUP1 EXTCODESIZE ISZERO DUP1 ISZERO PUSH3 0x5A3 JUMPI PUSH1 0x0 DUP1 REVERT JUMPDEST POP GAS STATICCALL ISZERO DUP1 ISZERO PUSH3 0x5B8 JUMPI RETURNDATASIZE PUSH1 0x0 DUP1 RETURNDATACOPY RETURNDATASIZE PUSH1 0x0 REVERT JUMPDEST POP POP POP POP PUSH1 0x40 MLOAD RETURNDATASIZE PUSH1 0x1F NOT PUSH1 0x1F DUP3 ADD AND DUP3 ADD DUP1 PUSH1 0x40 MSTORE POP DUP2 ADD SWAP1 PUSH3 0x5DE SWAP2 SWAP1 PUSH3 0x1939 JUMP JUMPDEST PUSH1 0x40 MLOAD DUP4 PUSH4 0xFFFFFFFF AND PUSH1 0xE0 SHL DUP2 MSTORE PUSH1 0x4 ADD PUSH3 0x5FD SWAP3 SWAP2 SWAP1 PUSH3 0x196B JUMP JUMPDEST PUSH1 0x20 PUSH1 0x40 MLOAD DUP1 DUP4 SUB DUP2 PUSH1 0x0 DUP8 DUP1 EXTCODESIZE ISZERO DUP1 ISZERO PUSH3 0x618 JUMPI PUSH1 0x0 DUP1 REVERT JUMPDEST POP GAS CALL ISZERO DUP1 ISZERO PUSH3 0x62D JUMPI RETURNDATASIZE PUSH1 0x0 DUP1 RETURNDATACOPY RETURNDATASIZE PUSH1 0x0 REVERT JUMPDEST POP POP POP POP PUSH1 0x40 MLOAD RETURNDATASIZE PUSH1 0x1F NOT PUSH1 0x1F DUP3 ADD AND DUP3 ADD DUP1 PUSH1 0x40 MSTORE POP DUP2 ADD SWAP1 PUSH3 0x653 SWAP2 SWAP1 PUSH3 0x1939 JUMP JUMPDEST SWAP1 POP DUP2 PUSH1 0x6 PUSH1 0x0 PUSH2 0x100 EXP DUP2 SLOAD DUP2 PUSH20 0xFFFFFFFFFFFFFFFFFFFFFFFFFFFFFFFFFFFFFFFF MUL NOT AND SWAP1 DUP4 PUSH20 0xFFFFFFFFFFFFFFFFFFFFFFFFFFFFFFFFFFFFFFFF AND MUL OR SWAP1 SSTORE POP DUP1 PUSH1 0x7 PUSH1 0x0 PUSH2 0x100 EXP DUP2 SLOAD DUP2 PUSH20 0xFFFFFFFFFFFFFFFFFFFFFFFFFFFFFFFFFFFFFFFF MUL NOT AND SWAP1 DUP4 PUSH20 0xFFFFFFFFFFFFFFFFFFFFFFFFFFFFFFFFFFFFFFFF AND MUL OR SWAP1 SSTORE POP PUSH3 0x6EA DUP2 PUSH1 0x1 PUSH3 0xE07 PUSH1 0x20 SHL PUSH1 0x20 SHR JUMP JUMPDEST PUSH1 0x8 PUSH1 0x0 SWAP1 SLOAD SWAP1 PUSH2 0x100 EXP SWAP1 DIV PUSH20 0xFFFFFFFFFFFFFFFFFFFFFFFFFFFFFFFFFFFFFFFF AND PUSH20 0xFFFFFFFFFFFFFFFFFFFFFFFFFFFFFFFFFFFFFFFF AND PUSH4 0x31E79DB0 PUSH1 0x8 PUSH1 0x0 SWAP1 SLOAD SWAP1 PUSH2 0x100 EXP SWAP1 DIV PUSH20 0xFFFFFFFFFFFFFFFFFFFFFFFFFFFFFFFFFFFFFFFF AND PUSH1 0x40 MLOAD DUP3 PUSH4 0xFFFFFFFF AND PUSH1 0xE0 SHL DUP2 MSTORE PUSH1 0x4 ADD PUSH3 0x769 SWAP2 SWAP1 PUSH3 0x1998 JUMP JUMPDEST PUSH1 0x0 PUSH1 0x40 MLOAD DUP1 DUP4 SUB DUP2 PUSH1 0x0 DUP8 DUP1 EXTCODESIZE ISZERO DUP1 ISZERO PUSH3 0x784 JUMPI PUSH1 0x0 DUP1 REVERT JUMPDEST POP GAS CALL ISZERO DUP1 ISZERO PUSH3 0x799 JUMPI RETURNDATASIZE PUSH1 0x0 DUP1 RETURNDATACOPY RETURNDATASIZE PUSH1 0x0 REVERT JUMPDEST POP POP POP POP PUSH1 0x8 PUSH1 0x0 SWAP1 SLOAD SWAP1 PUSH2 0x100 EXP SWAP1 DIV PUSH20 0xFFFFFFFFFFFFFFFFFFFFFFFFFFFFFFFFFFFFFFFF AND PUSH20 0xFFFFFFFFFFFFFFFFFFFFFFFFFFFFFFFFFFFFFFFF AND PUSH4 0x31E79DB0 ADDRESS PUSH1 0x40 MLOAD DUP3 PUSH4 0xFFFFFFFF AND PUSH1 0xE0 SHL DUP2 MSTORE PUSH1 0x4 ADD PUSH3 0x7FA SWAP2 SWAP1 PUSH3 0x1998 JUMP JUMPDEST PUSH1 0x0 PUSH1 0x40 MLOAD DUP1 DUP4 SUB DUP2 PUSH1 0x0 DUP8 DUP1 EXTCODESIZE ISZERO DUP1 ISZERO PUSH3 0x815 JUMPI PUSH1 0x0 DUP1 REVERT JUMPDEST POP GAS CALL ISZERO DUP1 ISZERO PUSH3 0x82A JUMPI RETURNDATASIZE PUSH1 0x0 DUP1 RETURNDATACOPY RETURNDATASIZE PUSH1 0x0 REVERT JUMPDEST POP POP POP POP PUSH1 0x8 PUSH1 0x0 SWAP1 SLOAD SWAP1 PUSH2 0x100 EXP SWAP1 DIV PUSH20 0xFFFFFFFFFFFFFFFFFFFFFFFFFFFFFFFFFFFFFFFF AND PUSH20 0xFFFFFFFFFFFFFFFFFFFFFFFFFFFFFFFFFFFFFFFF AND PUSH4 0x31E79DB0 PUSH3 0x87C PUSH3 0xFD7 PUSH1 0x20 SHL PUSH1 0x20 SHR JUMP JUMPDEST PUSH1 0x40 MLOAD DUP3 PUSH4 0xFFFFFFFF AND PUSH1 0xE0 SHL DUP2 MSTORE PUSH1 0x4 ADD PUSH3 0x89A SWAP2 SWAP1 PUSH3 0x1998 JUMP JUMPDEST PUSH1 0x0 PUSH1 0x40 MLOAD DUP1 DUP4 SUB DUP2 PUSH1 0x0 DUP8 DUP1 EXTCODESIZE ISZERO DUP1 ISZERO PUSH3 0x8B5 JUMPI PUSH1 0x0 DUP1 REVERT JUMPDEST POP GAS CALL ISZERO DUP1 ISZERO PUSH3 0x8CA JUMPI RETURNDATASIZE PUSH1 0x0 DUP1 RETURNDATACOPY RETURNDATASIZE PUSH1 0x0 REVERT JUMPDEST POP POP POP POP PUSH1 0x8 PUSH1 0x0 SWAP1 SLOAD SWAP1 PUSH2 0x100 EXP SWAP1 DIV PUSH20 0xFFFFFFFFFFFFFFFFFFFFFFFFFFFFFFFFFFFFFFFF AND PUSH20 0xFFFFFFFFFFFFFFFFFFFFFFFFFFFFFFFFFFFFFFFF AND PUSH4 0x31E79DB0 PUSH2 0xDEAD PUSH1 0x40 MLOAD DUP3 PUSH4 0xFFFFFFFF AND PUSH1 0xE0 SHL DUP2 MSTORE PUSH1 0x4 ADD PUSH3 0x92D SWAP2 SWAP1 PUSH3 0x1998 JUMP JUMPDEST PUSH1 0x0 PUSH1 0x40 MLOAD DUP1 DUP4 SUB DUP2 PUSH1 0x0 DUP8 DUP1 EXTCODESIZE ISZERO DUP1 ISZERO PUSH3 0x948 JUMPI PUSH1 0x0 DUP1 REVERT JUMPDEST POP GAS CALL ISZERO DUP1 ISZERO PUSH3 0x95D JUMPI RETURNDATASIZE PUSH1 0x0 DUP1 RETURNDATACOPY RETURNDATASIZE PUSH1 0x0 REVERT JUMPDEST POP POP POP POP PUSH1 0x8 PUSH1 0x0 SWAP1 SLOAD SWAP1 PUSH2 0x100 EXP SWAP1 DIV PUSH20 0xFFFFFFFFFFFFFFFFFFFFFFFFFFFFFFFFFFFFFFFF AND PUSH20 0xFFFFFFFFFFFFFFFFFFFFFFFFFFFFFFFFFFFFFFFF AND PUSH4 0x31E79DB0 DUP4 PUSH1 0x40 MLOAD DUP3 PUSH4 0xFFFFFFFF AND PUSH1 0xE0 SHL DUP2 MSTORE PUSH1 0x4 ADD PUSH3 0x9BE SWAP2 SWAP1 PUSH3 0x1998 JUMP JUMPDEST PUSH1 0x0 PUSH1 0x40 MLOAD DUP1 DUP4 SUB DUP2 PUSH1 0x0 DUP8 DUP1 EXTCODESIZE ISZERO DUP1 ISZERO PUSH3 0x9D9 JUMPI PUSH1 0x0 DUP1 REVERT JUMPDEST POP GAS CALL ISZERO DUP1 ISZERO PUSH3 0x9EE JUMPI RETURNDATASIZE PUSH1 0x0 DUP1 RETURNDATACOPY RETURNDATASIZE PUSH1 0x0 REVERT JUMPDEST POP POP POP POP PUSH1 0x1 PUSH1 0x11 PUSH1 0x0 PUSH3 0xA08 PUSH3 0xFD7 PUSH1 0x20 SHL PUSH1 0x20 SHR JUMP JUMPDEST PUSH20 0xFFFFFFFFFFFFFFFFFFFFFFFFFFFFFFFFFFFFFFFF AND PUSH20 0xFFFFFFFFFFFFFFFFFFFFFFFFFFFFFFFFFFFFFFFF AND DUP2 MSTORE PUSH1 0x20 ADD SWAP1 DUP2 MSTORE PUSH1 0x20 ADD PUSH1 0x0 KECCAK256 PUSH1 0x0 PUSH2 0x100 EXP DUP2 SLOAD DUP2 PUSH1 0xFF MUL NOT AND SWAP1 DUP4 ISZERO ISZERO MUL OR SWAP1 SSTORE POP PUSH1 0x1 PUSH1 0x11 PUSH1 0x0 PUSH1 0xF PUSH1 0x0 SWAP1 SLOAD SWAP1 PUSH2 0x100 EXP SWAP1 DIV PUSH20 0xFFFFFFFFFFFFFFFFFFFFFFFFFFFFFFFFFFFFFFFF AND PUSH20 0xFFFFFFFFFFFFFFFFFFFFFFFFFFFFFFFFFFFFFFFF AND PUSH20 0xFFFFFFFFFFFFFFFFFFFFFFFFFFFFFFFFFFFFFFFF AND DUP2 MSTORE PUSH1 0x20 ADD SWAP1 DUP2 MSTORE PUSH1 0x20 ADD PUSH1 0x0 KECCAK256 PUSH1 0x0 PUSH2 0x100 EXP DUP2 SLOAD DUP2 PUSH1 0xFF MUL NOT AND SWAP1 DUP4 ISZERO ISZERO MUL OR SWAP1 SSTORE POP PUSH1 0x1 PUSH1 0x11 PUSH1 0x0 ADDRESS PUSH20 0xFFFFFFFFFFFFFFFFFFFFFFFFFFFFFFFFFFFFFFFF AND PUSH20 0xFFFFFFFFFFFFFFFFFFFFFFFFFFFFFFFFFFFFFFFF AND DUP2 MSTORE PUSH1 0x20 ADD SWAP1 DUP2 MSTORE PUSH1 0x20 ADD PUSH1 0x0 KECCAK256 PUSH1 0x0 PUSH2 0x100 EXP DUP2 SLOAD DUP2 PUSH1 0xFF MUL NOT AND SWAP1 DUP4 ISZERO ISZERO MUL OR SWAP1 SSTORE POP PUSH3 0xB4C PUSH3 0xB3F PUSH3 0xFD7 PUSH1 0x20 SHL PUSH1 0x20 SHR JUMP JUMPDEST DUP10 PUSH3 0x1001 PUSH1 0x20 SHL PUSH1 0x20 SHR JUMP JUMPDEST ADDRESS PUSH20 0xFFFFFFFFFFFFFFFFFFFFFFFFFFFFFFFFFFFFFFFF AND PUSH3 0xB73 PUSH3 0xFD7 PUSH1 0x20 SHL PUSH1 0x20 SHR JUMP JUMPDEST PUSH20 0xFFFFFFFFFFFFFFFFFFFFFFFFFFFFFFFFFFFFFFFF AND PUSH32 0x56358B41DF5FA59F5639228F0930994CBDDE383C8A8FD74E06C04E1DEEBE3562 PUSH1 0x2 PUSH1 0x3 PUSH1 0x40 MLOAD PUSH3 0xBBE SWAP3 SWAP2 SWAP1 PUSH3 0x1A35 JUMP JUMPDEST PUSH1 0x40 MLOAD DUP1 SWAP2 SUB SWAP1 LOG3 DUP4 PUSH20 0xFFFFFFFFFFFFFFFFFFFFFFFFFFFFFFFFFFFFFFFF AND PUSH2 0x8FC DUP5 SWAP1 DUP2 ISZERO MUL SWAP1 PUSH1 0x40 MLOAD PUSH1 0x0 PUSH1 0x40 MLOAD DUP1 DUP4 SUB DUP2 DUP6 DUP9 DUP9 CALL SWAP4 POP POP POP POP ISZERO DUP1 ISZERO PUSH3 0xC0D JUMPI RETURNDATASIZE PUSH1 0x0 DUP1 RETURNDATACOPY RETURNDATASIZE PUSH1 0x0 REVERT JUMPDEST POP POP POP POP POP POP POP POP POP POP POP PUSH3 0x1D79 JUMP JUMPDEST PUSH1 0x0 CALLER SWAP1 POP SWAP1 JUMP JUMPDEST PUSH1 0x0 PUSH1 0x5 PUSH1 0x0 SWAP1 SLOAD SWAP1 PUSH2 0x100 EXP SWAP1 DIV PUSH20 0xFFFFFFFFFFFFFFFFFFFFFFFFFFFFFFFFFFFFFFFF AND SWAP1 POP DUP2 PUSH1 0x5 PUSH1 0x0 PUSH2 0x100 EXP DUP2 SLOAD DUP2 PUSH20 0xFFFFFFFFFFFFFFFFFFFFFFFFFFFFFFFFFFFFFFFF MUL NOT AND SWAP1 DUP4 PUSH20 0xFFFFFFFFFFFFFFFFFFFFFFFFFFFFFFFFFFFFFFFF AND MUL OR SWAP1 SSTORE POP DUP2 PUSH20 0xFFFFFFFFFFFFFFFFFFFFFFFFFFFFFFFFFFFFFFFF AND DUP2 PUSH20 0xFFFFFFFFFFFFFFFFFFFFFFFFFFFFFFFFFFFFFFFF AND PUSH32 0x8BE0079C531659141344CD1FD0A4F28419497F9722A3DAAFE3B4186F6B6457E0 PUSH1 0x40 MLOAD PUSH1 0x40 MLOAD DUP1 SWAP2 SUB SWAP1 LOG3 POP POP JUMP JUMPDEST PUSH1 0x0 DUP1 DUP3 EXTCODESIZE SWAP1 POP PUSH1 0x0 DUP2 GT SWAP2 POP POP SWAP2 SWAP1 POP JUMP JUMPDEST PUSH1 0x0 DUP2 DUP4 PUSH3 0xD0F SWAP2 SWAP1 PUSH3 0x1A91 JUMP JUMPDEST SWAP1 POP SWAP3 SWAP2 POP POP JUMP JUMPDEST PUSH1 0x0 DUP2 DUP4 PUSH3 0xD27 SWAP2 SWAP1 PUSH3 0x1B1D JUMP JUMPDEST SWAP1 POP SWAP3 SWAP2 POP POP JUMP JUMPDEST PUSH1 0x0 PUSH1 0x40 MLOAD PUSH32 0x3D602D80600A3D3981F3363D3D373D3D3D363D73000000000000000000000000 DUP2 MSTORE DUP3 PUSH1 0x60 SHL PUSH1 0x14 DUP3 ADD MSTORE PUSH32 0x5AF43D82803E903D91602B57FD5BF30000000000000000000000000000000000 PUSH1 0x28 DUP3 ADD MSTORE PUSH1 0x37 DUP2 PUSH1 0x0 CREATE SWAP2 POP POP PUSH1 0x0 PUSH20 0xFFFFFFFFFFFFFFFFFFFFFFFFFFFFFFFFFFFFFFFF AND DUP2 PUSH20 0xFFFFFFFFFFFFFFFFFFFFFFFFFFFFFFFFFFFFFFFF AND EQ ISZERO PUSH3 0xE02 JUMPI PUSH1 0x40 MLOAD PUSH32 0x8C379A000000000000000000000000000000000000000000000000000000000 DUP2 MSTORE PUSH1 0x4 ADD PUSH3 0xDF9 SWAP1 PUSH3 0x1BA5 JUMP JUMPDEST PUSH1 0x40 MLOAD DUP1 SWAP2 SUB SWAP1 REVERT JUMPDEST SWAP2 SWAP1 POP JUMP JUMPDEST DUP1 ISZERO ISZERO PUSH1 0x12 PUSH1 0x0 DUP5 PUSH20 0xFFFFFFFFFFFFFFFFFFFFFFFFFFFFFFFFFFFFFFFF AND PUSH20 0xFFFFFFFFFFFFFFFFFFFFFFFFFFFFFFFFFFFFFFFF AND DUP2 MSTORE PUSH1 0x20 ADD SWAP1 DUP2 MSTORE PUSH1 0x20 ADD PUSH1 0x0 KECCAK256 PUSH1 0x0 SWAP1 SLOAD SWAP1 PUSH2 0x100 EXP SWAP1 DIV PUSH1 0xFF AND ISZERO ISZERO EQ ISZERO PUSH3 0xE9D JUMPI PUSH1 0x40 MLOAD PUSH32 0x8C379A000000000000000000000000000000000000000000000000000000000 DUP2 MSTORE PUSH1 0x4 ADD PUSH3 0xE94 SWAP1 PUSH3 0x1C63 JUMP JUMPDEST PUSH1 0x40 MLOAD DUP1 SWAP2 SUB SWAP1 REVERT JUMPDEST DUP1 PUSH1 0x12 PUSH1 0x0 DUP5 PUSH20 0xFFFFFFFFFFFFFFFFFFFFFFFFFFFFFFFFFFFFFFFF AND PUSH20 0xFFFFFFFFFFFFFFFFFFFFFFFFFFFFFFFFFFFFFFFF AND DUP2 MSTORE PUSH1 0x20 ADD SWAP1 DUP2 MSTORE PUSH1 0x20 ADD PUSH1 0x0 KECCAK256 PUSH1 0x0 PUSH2 0x100 EXP DUP2 SLOAD DUP2 PUSH1 0xFF MUL NOT AND SWAP1 DUP4 ISZERO ISZERO MUL OR SWAP1 SSTORE POP DUP1 ISZERO PUSH3 0xF8D JUMPI PUSH1 0x8 PUSH1 0x0 SWAP1 SLOAD SWAP1 PUSH2 0x100 EXP SWAP1 DIV PUSH20 0xFFFFFFFFFFFFFFFFFFFFFFFFFFFFFFFFFFFFFFFF AND PUSH20 0xFFFFFFFFFFFFFFFFFFFFFFFFFFFFFFFFFFFFFFFF AND PUSH4 0x31E79DB0 DUP4 PUSH1 0x40 MLOAD DUP3 PUSH4 0xFFFFFFFF AND PUSH1 0xE0 SHL DUP2 MSTORE PUSH1 0x4 ADD PUSH3 0xF58 SWAP2 SWAP1 PUSH3 0x1998 JUMP JUMPDEST PUSH1 0x0 PUSH1 0x40 MLOAD DUP1 DUP4 SUB DUP2 PUSH1 0x0 DUP8 DUP1 EXTCODESIZE ISZERO DUP1 ISZERO PUSH3 0xF73 JUMPI PUSH1 0x0 DUP1 REVERT JUMPDEST POP GAS CALL ISZERO DUP1 ISZERO PUSH3 0xF88 JUMPI RETURNDATASIZE PUSH1 0x0 DUP1 RETURNDATACOPY RETURNDATASIZE PUSH1 0x0 REVERT JUMPDEST POP POP POP POP JUMPDEST DUP1 ISZERO ISZERO DUP3 PUSH20 0xFFFFFFFFFFFFFFFFFFFFFFFFFFFFFFFFFFFFFFFF AND PUSH32 0xFFA9187BF1F18BF477BD0EA1BCBB64E93B6A98132473929EDFCE215CD9B16FAB PUSH1 0x40 MLOAD PUSH1 0x40 MLOAD DUP1 SWAP2 SUB SWAP1 LOG3 POP POP JUMP JUMPDEST PUSH1 0x0 PUSH1 0x5 PUSH1 0x0 SWAP1 SLOAD SWAP1 PUSH2 0x100 EXP SWAP1 DIV PUSH20 0xFFFFFFFFFFFFFFFFFFFFFFFFFFFFFFFFFFFFFFFF AND SWAP1 POP SWAP1 JUMP JUMPDEST PUSH1 0x0 PUSH20 0xFFFFFFFFFFFFFFFFFFFFFFFFFFFFFFFFFFFFFFFF AND DUP3 PUSH20 0xFFFFFFFFFFFFFFFFFFFFFFFFFFFFFFFFFFFFFFFF AND EQ ISZERO PUSH3 0x1074 JUMPI PUSH1 0x40 MLOAD PUSH32 0x8C379A000000000000000000000000000000000000000000000000000000000 DUP2 MSTORE PUSH1 0x4 ADD PUSH3 0x106B SWAP1 PUSH3 0x1CD5 JUMP JUMPDEST PUSH1 0x40 MLOAD DUP1 SWAP2 SUB SWAP1 REVERT JUMPDEST PUSH3 0x1088 PUSH1 0x0 DUP4 DUP4 PUSH3 0x117A PUSH1 0x20 SHL PUSH1 0x20 SHR JUMP JUMPDEST DUP1 PUSH1 0x2 PUSH1 0x0 DUP3 DUP3 SLOAD PUSH3 0x109C SWAP2 SWAP1 PUSH3 0x1A91 JUMP JUMPDEST SWAP3 POP POP DUP2 SWAP1 SSTORE POP DUP1 PUSH1 0x0 DUP1 DUP5 PUSH20 0xFFFFFFFFFFFFFFFFFFFFFFFFFFFFFFFFFFFFFFFF AND PUSH20 0xFFFFFFFFFFFFFFFFFFFFFFFFFFFFFFFFFFFFFFFF AND DUP2 MSTORE PUSH1 0x20 ADD SWAP1 DUP2 MSTORE PUSH1 0x20 ADD PUSH1 0x0 KECCAK256 PUSH1 0x0 DUP3 DUP3 SLOAD PUSH3 0x10F3 SWAP2 SWAP1 PUSH3 0x1A91 JUMP JUMPDEST SWAP3 POP POP DUP2 SWAP1 SSTORE POP DUP2 PUSH20 0xFFFFFFFFFFFFFFFFFFFFFFFFFFFFFFFFFFFFFFFF AND PUSH1 0x0 PUSH20 0xFFFFFFFFFFFFFFFFFFFFFFFFFFFFFFFFFFFFFFFF AND PUSH32 0xDDF252AD1BE2C89B69C2B068FC378DAA952BA7F163C4A11628F55A4DF523B3EF DUP4 PUSH1 0x40 MLOAD PUSH3 0x115A SWAP2 SWAP1 PUSH3 0x1CF7 JUMP JUMPDEST PUSH1 0x40 MLOAD DUP1 SWAP2 SUB SWAP1 LOG3 PUSH3 0x1176 PUSH1 0x0 DUP4 DUP4 PUSH3 0x117F PUSH1 0x20 SHL PUSH1 0x20 SHR JUMP JUMPDEST POP POP JUMP JUMPDEST POP POP POP JUMP JUMPDEST POP POP POP JUMP JUMPDEST DUP3 DUP1 SLOAD PUSH3 0x1192 SWAP1 PUSH3 0x1D43 JUMP JUMPDEST SWAP1 PUSH1 0x0 MSTORE PUSH1 0x20 PUSH1 0x0 KECCAK256 SWAP1 PUSH1 0x1F ADD PUSH1 0x20 SWAP1 DIV DUP2 ADD SWAP3 DUP3 PUSH3 0x11B6 JUMPI PUSH1 0x0 DUP6 SSTORE PUSH3 0x1202 JUMP JUMPDEST DUP3 PUSH1 0x1F LT PUSH3 0x11D1 JUMPI DUP1 MLOAD PUSH1 0xFF NOT AND DUP4 DUP1 ADD OR DUP6 SSTORE PUSH3 0x1202 JUMP JUMPDEST DUP3 DUP1 ADD PUSH1 0x1 ADD DUP6 SSTORE DUP3 ISZERO PUSH3 0x1202 JUMPI SWAP2 DUP3 ADD JUMPDEST DUP3 DUP2 GT ISZERO PUSH3 0x1201 JUMPI DUP3 MLOAD DUP3 SSTORE SWAP2 PUSH1 0x20 ADD SWAP2 SWAP1 PUSH1 0x1 ADD SWAP1 PUSH3 0x11E4 JUMP JUMPDEST JUMPDEST POP SWAP1 POP PUSH3 0x1211 SWAP2 SWAP1 PUSH3 0x1215 JUMP JUMPDEST POP SWAP1 JUMP JUMPDEST JUMPDEST DUP1 DUP3 GT ISZERO PUSH3 0x1230 JUMPI PUSH1 0x0 DUP2 PUSH1 0x0 SWAP1 SSTORE POP PUSH1 0x1 ADD PUSH3 0x1216 JUMP JUMPDEST POP SWAP1 JUMP JUMPDEST PUSH1 0x0 PUSH1 0x40 MLOAD SWAP1 POP SWAP1 JUMP JUMPDEST PUSH1 0x0 DUP1 REVERT JUMPDEST PUSH1 0x0 DUP1 REVERT JUMPDEST PUSH1 0x0 DUP1 REVERT JUMPDEST PUSH1 0x0 DUP1 REVERT JUMPDEST PUSH1 0x0 PUSH1 0x1F NOT PUSH1 0x1F DUP4 ADD AND SWAP1 POP SWAP2 SWAP1 POP JUMP JUMPDEST PUSH32 0x4E487B7100000000000000000000000000000000000000000000000000000000 PUSH1 0x0 MSTORE PUSH1 0x41 PUSH1 0x4 MSTORE PUSH1 0x24 PUSH1 0x0 REVERT JUMPDEST PUSH3 0x129D DUP3 PUSH3 0x1252 JUMP JUMPDEST DUP2 ADD DUP2 DUP2 LT PUSH8 0xFFFFFFFFFFFFFFFF DUP3 GT OR ISZERO PUSH3 0x12BF JUMPI PUSH3 0x12BE PUSH3 0x1263 JUMP JUMPDEST JUMPDEST DUP1 PUSH1 0x40 MSTORE POP POP POP JUMP JUMPDEST PUSH1 0x0 PUSH3 0x12D4 PUSH3 0x1234 JUMP JUMPDEST SWAP1 POP PUSH3 0x12E2 DUP3 DUP3 PUSH3 0x1292 JUMP JUMPDEST SWAP2 SWAP1 POP JUMP JUMPDEST PUSH1 0x0 PUSH8 0xFFFFFFFFFFFFFFFF DUP3 GT ISZERO PUSH3 0x1305 JUMPI PUSH3 0x1304 PUSH3 0x1263 JUMP JUMPDEST JUMPDEST PUSH3 0x1310 DUP3 PUSH3 0x1252 JUMP JUMPDEST SWAP1 POP PUSH1 0x20 DUP2 ADD SWAP1 POP SWAP2 SWAP1 POP JUMP JUMPDEST PUSH1 0x0 JUMPDEST DUP4 DUP2 LT ISZERO PUSH3 0x133D JUMPI DUP1 DUP3 ADD MLOAD DUP2 DUP5 ADD MSTORE PUSH1 0x20 DUP2 ADD SWAP1 POP PUSH3 0x1320 JUMP JUMPDEST DUP4 DUP2 GT ISZERO PUSH3 0x134D JUMPI PUSH1 0x0 DUP5 DUP5 ADD MSTORE JUMPDEST POP POP POP POP JUMP JUMPDEST PUSH1 0x0 PUSH3 0x136A PUSH3 0x1364 DUP5 PUSH3 0x12E7 JUMP JUMPDEST PUSH3 0x12C8 JUMP JUMPDEST SWAP1 POP DUP3 DUP2 MSTORE PUSH1 0x20 DUP2 ADD DUP5 DUP5 DUP5 ADD GT ISZERO PUSH3 0x1389 JUMPI PUSH3 0x1388 PUSH3 0x124D JUMP JUMPDEST JUMPDEST PUSH3 0x1396 DUP5 DUP3 DUP6 PUSH3 0x131D JUMP JUMPDEST POP SWAP4 SWAP3 POP POP POP JUMP JUMPDEST PUSH1 0x0 DUP3 PUSH1 0x1F DUP4 ADD SLT PUSH3 0x13B6 JUMPI PUSH3 0x13B5 PUSH3 0x1248 JUMP JUMPDEST JUMPDEST DUP2 MLOAD PUSH3 0x13C8 DUP5 DUP3 PUSH1 0x20 DUP7 ADD PUSH3 0x1353 JUMP JUMPDEST SWAP2 POP POP SWAP3 SWAP2 POP POP JUMP JUMPDEST PUSH1 0x0 DUP2 SWAP1 POP SWAP2 SWAP1 POP JUMP JUMPDEST PUSH3 0x13E6 DUP2 PUSH3 0x13D1 JUMP JUMPDEST DUP2 EQ PUSH3 0x13F2 JUMPI PUSH1 0x0 DUP1 REVERT JUMPDEST POP JUMP JUMPDEST PUSH1 0x0 DUP2 MLOAD SWAP1 POP PUSH3 0x1406 DUP2 PUSH3 0x13DB JUMP JUMPDEST SWAP3 SWAP2 POP POP JUMP JUMPDEST PUSH1 0x0 PUSH8 0xFFFFFFFFFFFFFFFF DUP3 GT ISZERO PUSH3 0x142A JUMPI PUSH3 0x1429 PUSH3 0x1263 JUMP JUMPDEST JUMPDEST PUSH1 0x20 DUP3 MUL SWAP1 POP SWAP2 SWAP1 POP JUMP JUMPDEST PUSH1 0x0 DUP1 REVERT JUMPDEST PUSH1 0x0 PUSH20 0xFFFFFFFFFFFFFFFFFFFFFFFFFFFFFFFFFFFFFFFF DUP3 AND SWAP1 POP SWAP2 SWAP1 POP JUMP JUMPDEST PUSH1 0x0 PUSH3 0x1467 DUP3 PUSH3 0x143A JUMP JUMPDEST SWAP1 POP SWAP2 SWAP1 POP JUMP JUMPDEST PUSH3 0x1479 DUP2 PUSH3 0x145A JUMP JUMPDEST DUP2 EQ PUSH3 0x1485 JUMPI PUSH1 0x0 DUP1 REVERT JUMPDEST POP JUMP JUMPDEST PUSH1 0x0 DUP2 MLOAD SWAP1 POP PUSH3 0x1499 DUP2 PUSH3 0x146E JUMP JUMPDEST SWAP3 SWAP2 POP POP JUMP JUMPDEST PUSH1 0x0 PUSH3 0x14B6 PUSH3 0x14B0 DUP5 PUSH3 0x140C JUMP JUMPDEST PUSH3 0x12C8 JUMP JUMPDEST SWAP1 POP DUP1 PUSH1 0x20 DUP5 MUL DUP4 ADD DUP6 DUP2 GT ISZERO PUSH3 0x14D3 JUMPI PUSH3 0x14D2 PUSH3 0x1435 JUMP JUMPDEST JUMPDEST DUP4 JUMPDEST DUP2 DUP2 LT ISZERO PUSH3 0x1500 JUMPI DUP1 PUSH3 0x14EB DUP9 DUP3 PUSH3 0x1488 JUMP JUMPDEST DUP5 MSTORE PUSH1 0x20 DUP5 ADD SWAP4 POP POP PUSH1 0x20 DUP2 ADD SWAP1 POP PUSH3 0x14D5 JUMP JUMPDEST POP POP POP SWAP4 SWAP3 POP POP POP JUMP JUMPDEST PUSH1 0x0 DUP3 PUSH1 0x1F DUP4 ADD SLT PUSH3 0x1522 JUMPI PUSH3 0x1521 PUSH3 0x1248 JUMP JUMPDEST JUMPDEST PUSH1 0x4 PUSH3 0x1531 DUP5 DUP3 DUP6 PUSH3 0x149F JUMP JUMPDEST SWAP2 POP POP SWAP3 SWAP2 POP POP JUMP JUMPDEST PUSH1 0x0 PUSH8 0xFFFFFFFFFFFFFFFF DUP3 GT ISZERO PUSH3 0x1558 JUMPI PUSH3 0x1557 PUSH3 0x1263 JUMP JUMPDEST JUMPDEST PUSH1 0x20 DUP3 MUL SWAP1 POP SWAP2 SWAP1 POP JUMP JUMPDEST PUSH1 0x0 PUSH3 0x157A PUSH3 0x1574 DUP5 PUSH3 0x153A JUMP JUMPDEST PUSH3 0x12C8 JUMP JUMPDEST SWAP1 POP DUP1 PUSH1 0x20 DUP5 MUL DUP4 ADD DUP6 DUP2 GT ISZERO PUSH3 0x1597 JUMPI PUSH3 0x1596 PUSH3 0x1435 JUMP JUMPDEST JUMPDEST DUP4 JUMPDEST DUP2 DUP2 LT ISZERO PUSH3 0x15C4 JUMPI DUP1 PUSH3 0x15AF DUP9 DUP3 PUSH3 0x13F5 JUMP JUMPDEST DUP5 MSTORE PUSH1 0x20 DUP5 ADD SWAP4 POP POP PUSH1 0x20 DUP2 ADD SWAP1 POP PUSH3 0x1599 JUMP JUMPDEST POP POP POP SWAP4 SWAP3 POP POP POP JUMP JUMPDEST PUSH1 0x0 DUP3 PUSH1 0x1F DUP4 ADD SLT PUSH3 0x15E6 JUMPI PUSH3 0x15E5 PUSH3 0x1248 JUMP JUMPDEST JUMPDEST PUSH1 0x3 PUSH3 0x15F5 DUP5 DUP3 DUP6 PUSH3 0x1563 JUMP JUMPDEST SWAP2 POP POP SWAP3 SWAP2 POP POP JUMP JUMPDEST PUSH1 0x0 DUP1 PUSH1 0x0 DUP1 PUSH1 0x0 DUP1 PUSH1 0x0 DUP1 PUSH2 0x1A0 DUP10 DUP12 SUB SLT ISZERO PUSH3 0x1622 JUMPI PUSH3 0x1621 PUSH3 0x123E JUMP JUMPDEST JUMPDEST PUSH1 0x0 DUP10 ADD MLOAD PUSH8 0xFFFFFFFFFFFFFFFF DUP2 GT ISZERO PUSH3 0x1643 JUMPI PUSH3 0x1642 PUSH3 0x1243 JUMP JUMPDEST JUMPDEST PUSH3 0x1651 DUP12 DUP3 DUP13 ADD PUSH3 0x139E JUMP JUMPDEST SWAP9 POP POP PUSH1 0x20 DUP10 ADD MLOAD PUSH8 0xFFFFFFFFFFFFFFFF DUP2 GT ISZERO PUSH3 0x1675 JUMPI PUSH3 0x1674 PUSH3 0x1243 JUMP JUMPDEST JUMPDEST PUSH3 0x1683 DUP12 DUP3 DUP13 ADD PUSH3 0x139E JUMP JUMPDEST SWAP8 POP POP PUSH1 0x40 PUSH3 0x1696 DUP12 DUP3 DUP13 ADD PUSH3 0x13F5 JUMP JUMPDEST SWAP7 POP POP PUSH1 0x60 PUSH3 0x16A9 DUP12 DUP3 DUP13 ADD PUSH3 0x150A JUMP JUMPDEST SWAP6 POP POP PUSH1 0xE0 PUSH3 0x16BC DUP12 DUP3 DUP13 ADD PUSH3 0x15CE JUMP JUMPDEST SWAP5 POP POP PUSH2 0x140 PUSH3 0x16D0 DUP12 DUP3 DUP13 ADD PUSH3 0x13F5 JUMP JUMPDEST SWAP4 POP POP PUSH2 0x160 PUSH3 0x16E4 DUP12 DUP3 DUP13 ADD PUSH3 0x1488 JUMP JUMPDEST SWAP3 POP POP PUSH2 0x180 PUSH3 0x16F8 DUP12 DUP3 DUP13 ADD PUSH3 0x13F5 JUMP JUMPDEST SWAP2 POP POP SWAP3 SWAP6 SWAP9 POP SWAP3 SWAP6 SWAP9 SWAP1 SWAP4 SWAP7 POP JUMP JUMPDEST PUSH32 0x4E487B7100000000000000000000000000000000000000000000000000000000 PUSH1 0x0 MSTORE PUSH1 0x32 PUSH1 0x4 MSTORE PUSH1 0x24 PUSH1 0x0 REVERT JUMPDEST PUSH1 0x0 DUP3 DUP3 MSTORE PUSH1 0x20 DUP3 ADD SWAP1 POP SWAP3 SWAP2 POP POP JUMP JUMPDEST PUSH32 0x4F776E657220616E64206D61726B6574696E672077616C6C65742063616E6E6F PUSH1 0x0 DUP3 ADD MSTORE PUSH32 0x74206265207468652073616D6500000000000000000000000000000000000000 PUSH1 0x20 DUP3 ADD MSTORE POP JUMP JUMPDEST PUSH1 0x0 PUSH3 0x17A6 PUSH1 0x2D DUP4 PUSH3 0x1737 JUMP JUMPDEST SWAP2 POP PUSH3 0x17B3 DUP3 PUSH3 0x1748 JUMP JUMPDEST PUSH1 0x40 DUP3 ADD SWAP1 POP SWAP2 SWAP1 POP JUMP JUMPDEST PUSH1 0x0 PUSH1 0x20 DUP3 ADD SWAP1 POP DUP2 DUP2 SUB PUSH1 0x0 DUP4 ADD MSTORE PUSH3 0x17D9 DUP2 PUSH3 0x1797 JUMP JUMPDEST SWAP1 POP SWAP2 SWAP1 POP JUMP JUMPDEST PUSH32 0x4D61726B6574696E672077616C6C65742063616E6E6F74206265206120636F6E PUSH1 0x0 DUP3 ADD MSTORE PUSH32 0x7472616374000000000000000000000000000000000000000000000000000000 PUSH1 0x20 DUP3 ADD MSTORE POP JUMP JUMPDEST PUSH1 0x0 PUSH3 0x183E PUSH1 0x25 DUP4 PUSH3 0x1737 JUMP JUMPDEST SWAP2 POP PUSH3 0x184B DUP3 PUSH3 0x17E0 JUMP JUMPDEST PUSH1 0x40 DUP3 ADD SWAP1 POP SWAP2 SWAP1 POP JUMP JUMPDEST PUSH1 0x0 PUSH1 0x20 DUP3 ADD SWAP1 POP DUP2 DUP2 SUB PUSH1 0x0 DUP4 ADD MSTORE PUSH3 0x1871 DUP2 PUSH3 0x182F JUMP JUMPDEST SWAP1 POP SWAP2 SWAP1 POP JUMP JUMPDEST PUSH32 0x546F74616C20666565206973206F766572203235250000000000000000000000 PUSH1 0x0 DUP3 ADD MSTORE POP JUMP JUMPDEST PUSH1 0x0 PUSH3 0x18B0 PUSH1 0x15 DUP4 PUSH3 0x1737 JUMP JUMPDEST SWAP2 POP PUSH3 0x18BD DUP3 PUSH3 0x1878 JUMP JUMPDEST PUSH1 0x20 DUP3 ADD SWAP1 POP SWAP2 SWAP1 POP JUMP JUMPDEST PUSH1 0x0 PUSH1 0x20 DUP3 ADD SWAP1 POP DUP2 DUP2 SUB PUSH1 0x0 DUP4 ADD MSTORE PUSH3 0x18E3 DUP2 PUSH3 0x18A1 JUMP JUMPDEST SWAP1 POP SWAP2 SWAP1 POP JUMP JUMPDEST PUSH3 0x18F5 DUP2 PUSH3 0x145A JUMP JUMPDEST DUP3 MSTORE POP POP JUMP JUMPDEST PUSH3 0x1906 DUP2 PUSH3 0x13D1 JUMP JUMPDEST DUP3 MSTORE POP POP JUMP JUMPDEST PUSH1 0x0 PUSH1 0x40 DUP3 ADD SWAP1 POP PUSH3 0x1923 PUSH1 0x0 DUP4 ADD DUP6 PUSH3 0x18EA JUMP JUMPDEST PUSH3 0x1932 PUSH1 0x20 DUP4 ADD DUP5 PUSH3 0x18FB JUMP JUMPDEST SWAP4 SWAP3 POP POP POP JUMP JUMPDEST PUSH1 0x0 PUSH1 0x20 DUP3 DUP5 SUB SLT ISZERO PUSH3 0x1952 JUMPI PUSH3 0x1951 PUSH3 0x123E JUMP JUMPDEST JUMPDEST PUSH1 0x0 PUSH3 0x1962 DUP5 DUP3 DUP6 ADD PUSH3 0x1488 JUMP JUMPDEST SWAP2 POP POP SWAP3 SWAP2 POP POP JUMP JUMPDEST PUSH1 0x0 PUSH1 0x40 DUP3 ADD SWAP1 POP PUSH3 0x1982 PUSH1 0x0 DUP4 ADD DUP6 PUSH3 0x18EA JUMP JUMPDEST PUSH3 0x1991 PUSH1 0x20 DUP4 ADD DUP5 PUSH3 0x18EA JUMP JUMPDEST SWAP4 SWAP3 POP POP POP JUMP JUMPDEST PUSH1 0x0 PUSH1 0x20 DUP3 ADD SWAP1 POP PUSH3 0x19AF PUSH1 0x0 DUP4 ADD DUP5 PUSH3 0x18EA JUMP JUMPDEST SWAP3 SWAP2 POP POP JUMP JUMPDEST PUSH32 0x4E487B7100000000000000000000000000000000000000000000000000000000 PUSH1 0x0 MSTORE PUSH1 0x21 PUSH1 0x4 MSTORE PUSH1 0x24 PUSH1 0x0 REVERT JUMPDEST PUSH1 0x4 DUP2 LT PUSH3 0x19F8 JUMPI PUSH3 0x19F7 PUSH3 0x19B5 JUMP JUMPDEST JUMPDEST POP JUMP JUMPDEST PUSH1 0x0 DUP2 SWAP1 POP PUSH3 0x1A0B DUP3 PUSH3 0x19E4 JUMP JUMPDEST SWAP2 SWAP1 POP JUMP JUMPDEST PUSH1 0x0 PUSH3 0x1A1D DUP3 PUSH3 0x19FB JUMP JUMPDEST SWAP1 POP SWAP2 SWAP1 POP JUMP JUMPDEST PUSH3 0x1A2F DUP2 PUSH3 0x1A10 JUMP JUMPDEST DUP3 MSTORE POP POP JUMP JUMPDEST PUSH1 0x0 PUSH1 0x40 DUP3 ADD SWAP1 POP PUSH3 0x1A4C PUSH1 0x0 DUP4 ADD DUP6 PUSH3 0x1A24 JUMP JUMPDEST PUSH3 0x1A5B PUSH1 0x20 DUP4 ADD DUP5 PUSH3 0x18FB JUMP JUMPDEST SWAP4 SWAP3 POP POP POP JUMP JUMPDEST PUSH32 0x4E487B7100000000000000000000000000000000000000000000000000000000 PUSH1 0x0 MSTORE PUSH1 0x11 PUSH1 0x4 MSTORE PUSH1 0x24 PUSH1 0x0 REVERT JUMPDEST PUSH1 0x0 PUSH3 0x1A9E DUP3 PUSH3 0x13D1 JUMP JUMPDEST SWAP2 POP PUSH3 0x1AAB DUP4 PUSH3 0x13D1 JUMP JUMPDEST SWAP3 POP DUP3 PUSH32 0xFFFFFFFFFFFFFFFFFFFFFFFFFFFFFFFFFFFFFFFFFFFFFFFFFFFFFFFFFFFFFFFF SUB DUP3 GT ISZERO PUSH3 0x1AE3 JUMPI PUSH3 0x1AE2 PUSH3 0x1A62 JUMP JUMPDEST JUMPDEST DUP3 DUP3 ADD SWAP1 POP SWAP3 SWAP2 POP POP JUMP JUMPDEST PUSH32 0x4E487B7100000000000000000000000000000000000000000000000000000000 PUSH1 0x0 MSTORE PUSH1 0x12 PUSH1 0x4 MSTORE PUSH1 0x24 PUSH1 0x0 REVERT JUMPDEST PUSH1 0x0 PUSH3 0x1B2A DUP3 PUSH3 0x13D1 JUMP JUMPDEST SWAP2 POP PUSH3 0x1B37 DUP4 PUSH3 0x13D1 JUMP JUMPDEST SWAP3 POP DUP3 PUSH3 0x1B4A JUMPI PUSH3 0x1B49 PUSH3 0x1AEE JUMP JUMPDEST JUMPDEST DUP3 DUP3 DIV SWAP1 POP SWAP3 SWAP2 POP POP JUMP JUMPDEST PUSH32 0x455243313136373A20637265617465206661696C656400000000000000000000 PUSH1 0x0 DUP3 ADD MSTORE POP JUMP JUMPDEST PUSH1 0x0 PUSH3 0x1B8D PUSH1 0x16 DUP4 PUSH3 0x1737 JUMP JUMPDEST SWAP2 POP PUSH3 0x1B9A DUP3 PUSH3 0x1B55 JUMP JUMPDEST PUSH1 0x20 DUP3 ADD SWAP1 POP SWAP2 SWAP1 POP JUMP JUMPDEST PUSH1 0x0 PUSH1 0x20 DUP3 ADD SWAP1 POP DUP2 DUP2 SUB PUSH1 0x0 DUP4 ADD MSTORE PUSH3 0x1BC0 DUP2 PUSH3 0x1B7E JUMP JUMPDEST SWAP1 POP SWAP2 SWAP1 POP JUMP JUMPDEST PUSH32 0x42414259544F4B454E3A204175746F6D61746564206D61726B6574206D616B65 PUSH1 0x0 DUP3 ADD MSTORE PUSH32 0x72207061697220697320616C72656164792073657420746F2074686174207661 PUSH1 0x20 DUP3 ADD MSTORE PUSH32 0x6C75650000000000000000000000000000000000000000000000000000000000 PUSH1 0x40 DUP3 ADD MSTORE POP JUMP JUMPDEST PUSH1 0x0 PUSH3 0x1C4B PUSH1 0x43 DUP4 PUSH3 0x1737 JUMP JUMPDEST SWAP2 POP PUSH3 0x1C58 DUP3 PUSH3 0x1BC7 JUMP JUMPDEST PUSH1 0x60 DUP3 ADD SWAP1 POP SWAP2 SWAP1 POP JUMP JUMPDEST PUSH1 0x0 PUSH1 0x20 DUP3 ADD SWAP1 POP DUP2 DUP2 SUB PUSH1 0x0 DUP4 ADD MSTORE PUSH3 0x1C7E DUP2 PUSH3 0x1C3C JUMP JUMPDEST SWAP1 POP SWAP2 SWAP1 POP JUMP JUMPDEST PUSH32 0x45524332303A206D696E7420746F20746865207A65726F206164647265737300 PUSH1 0x0 DUP3 ADD MSTORE POP JUMP JUMPDEST PUSH1 0x0 PUSH3 0x1CBD PUSH1 0x1F DUP4 PUSH3 0x1737 JUMP JUMPDEST SWAP2 POP PUSH3 0x1CCA DUP3 PUSH3 0x1C85 JUMP JUMPDEST PUSH1 0x20 DUP3 ADD SWAP1 POP SWAP2 SWAP1 POP JUMP JUMPDEST PUSH1 0x0 PUSH1 0x20 DUP3 ADD SWAP1 POP DUP2 DUP2 SUB PUSH1 0x0 DUP4 ADD MSTORE PUSH3 0x1CF0 DUP2 PUSH3 0x1CAE JUMP JUMPDEST SWAP1 POP SWAP2 SWAP1 POP JUMP JUMPDEST PUSH1 0x0 PUSH1 0x20 DUP3 ADD SWAP1 POP PUSH3 0x1D0E PUSH1 0x0 DUP4 ADD DUP5 PUSH3 0x18FB JUMP JUMPDEST SWAP3 SWAP2 POP POP JUMP JUMPDEST PUSH32 0x4E487B7100000000000000000000000000000000000000000000000000000000 PUSH1 0x0 MSTORE PUSH1 0x22 PUSH1 0x4 MSTORE PUSH1 0x24 PUSH1 0x0 REVERT JUMPDEST PUSH1 0x0 PUSH1 0x2 DUP3 DIV SWAP1 POP PUSH1 0x1 DUP3 AND DUP1 PUSH3 0x1D5C JUMPI PUSH1 0x7F DUP3 AND SWAP2 POP JUMPDEST PUSH1 0x20 DUP3 LT DUP2 EQ ISZERO PUSH3 0x1D73 JUMPI PUSH3 0x1D72 PUSH3 0x1D14 JUMP JUMPDEST JUMPDEST POP SWAP2 SWAP1 POP JUMP JUMPDEST PUSH2 0x594A DUP1 PUSH3 0x1D89 PUSH1 0x0 CODECOPY PUSH1 0x0 RETURN INVALID PUSH1 0x80 PUSH1 0x40 MSTORE PUSH1 0x4 CALLDATASIZE LT PUSH2 0x2E8 JUMPI PUSH1 0x0 CALLDATALOAD PUSH1 0xE0 SHR DUP1 PUSH4 0x715018A6 GT PUSH2 0x190 JUMPI DUP1 PUSH4 0xB62496F5 GT PUSH2 0xDC JUMPI DUP1 PUSH4 0xE708A0F9 GT PUSH2 0x95 JUMPI DUP1 PUSH4 0xF27FD254 GT PUSH2 0x6F JUMPI DUP1 PUSH4 0xF27FD254 EQ PUSH2 0xB8A JUMPI DUP1 PUSH4 0xF2FDE38B EQ PUSH2 0xBCE JUMPI DUP1 PUSH4 0xF7C618C1 EQ PUSH2 0xBF7 JUMPI DUP1 PUSH4 0xFFA1AD74 EQ PUSH2 0xC22 JUMPI PUSH2 0x2EF JUMP JUMPDEST DUP1 PUSH4 0xE708A0F9 EQ PUSH2 0xB0B JUMPI DUP1 PUSH4 0xE7841EC0 EQ PUSH2 0xB36 JUMPI DUP1 PUSH4 0xE98030C7 EQ PUSH2 0xB61 JUMPI PUSH2 0x2EF JUMP JUMPDEST DUP1 PUSH4 0xB62496F5 EQ PUSH2 0x9D5 JUMPI DUP1 PUSH4 0xBDD4F29F EQ PUSH2 0xA12 JUMPI DUP1 PUSH4 0xC705C569 EQ PUSH2 0xA3D JUMPI DUP1 PUSH4 0xDD62ED3E EQ PUSH2 0xA7A JUMPI DUP1 PUSH4 0xE2F45605 EQ PUSH2 0xAB7 JUMPI DUP1 PUSH4 0xE57F14E1 EQ PUSH2 0xAE2 JUMPI PUSH2 0x2EF JUMP JUMPDEST DUP1 PUSH4 0xA26579AD GT PUSH2 0x149 JUMPI DUP1 PUSH4 0xA9059CBB GT PUSH2 0x123 JUMPI DUP1 PUSH4 0xA9059CBB EQ PUSH2 0x902 JUMPI DUP1 PUSH4 0xAD56C13C EQ PUSH2 0x93F JUMPI DUP1 PUSH4 0xADEFD90C EQ PUSH2 0x983 JUMPI DUP1 PUSH4 0xAFA4F3B2 EQ PUSH2 0x9AC JUMPI PUSH2 0x2EF JUMP JUMPDEST DUP1 PUSH4 0xA26579AD EQ PUSH2 0x85D JUMPI DUP1 PUSH4 0xA457C2D7 EQ PUSH2 0x888 JUMPI DUP1 PUSH4 0xA8B9D240 EQ PUSH2 0x8C5 JUMPI PUSH2 0x2EF JUMP JUMPDEST DUP1 PUSH4 0x715018A6 EQ PUSH2 0x771 JUMPI DUP1 PUSH4 0x871C128D EQ PUSH2 0x788 JUMPI DUP1 PUSH4 0x8DA5CB5B EQ PUSH2 0x7B1 JUMPI DUP1 PUSH4 0x95D89B41 EQ PUSH2 0x7DC JUMPI DUP1 PUSH4 0x98118CB4 EQ PUSH2 0x807 JUMPI DUP1 PUSH4 0x9C1B8AF5 EQ PUSH2 0x832 JUMPI PUSH2 0x2EF JUMP JUMPDEST DUP1 PUSH4 0x39509351 GT PUSH2 0x24F JUMPI DUP1 PUSH4 0x5D098B38 GT PUSH2 0x208 JUMPI DUP1 PUSH4 0x6843CD84 GT PUSH2 0x1E2 JUMPI DUP1 PUSH4 0x6843CD84 EQ PUSH2 0x6A3 JUMPI DUP1 PUSH4 0x6B67C4DF EQ PUSH2 0x6E0 JUMPI DUP1 PUSH4 0x700BB191 EQ PUSH2 0x70B JUMPI DUP1 PUSH4 0x70A08231 EQ PUSH2 0x734 JUMPI PUSH2 0x2EF JUMP JUMPDEST DUP1 PUSH4 0x5D098B38 EQ PUSH2 0x626 JUMPI DUP1 PUSH4 0x625E764C EQ PUSH2 0x64F JUMPI DUP1 PUSH4 0x64B0F653 EQ PUSH2 0x678 JUMPI PUSH2 0x2EF JUMP JUMPDEST DUP1 PUSH4 0x39509351 EQ PUSH2 0x516 JUMPI DUP1 PUSH4 0x4144D9E4 EQ PUSH2 0x553 JUMPI DUP1 PUSH4 0x49BD5A5E EQ PUSH2 0x57E JUMPI DUP1 PUSH4 0x4E71D92D EQ PUSH2 0x5A9 JUMPI DUP1 PUSH4 0x4ED080C7 EQ PUSH2 0x5C0 JUMPI DUP1 PUSH4 0x4FBEE193 EQ PUSH2 0x5E9 JUMPI PUSH2 0x2EF JUMP JUMPDEST DUP1 PUSH4 0x18160DDD GT PUSH2 0x2A1 JUMPI DUP1 PUSH4 0x18160DDD EQ PUSH2 0x404 JUMPI DUP1 PUSH4 0x23B872DD EQ PUSH2 0x42F JUMPI DUP1 PUSH4 0x2C1F5216 EQ PUSH2 0x46C JUMPI DUP1 PUSH4 0x30BB4CFF EQ PUSH2 0x497 JUMPI DUP1 PUSH4 0x313CE567 EQ PUSH2 0x4C2 JUMPI DUP1 PUSH4 0x31E79DB0 EQ PUSH2 0x4ED JUMPI PUSH2 0x2EF JUMP JUMPDEST DUP1 PUSH4 0x6FDDE03 EQ PUSH2 0x2F4 JUMPI DUP1 PUSH4 0x95EA7B3 EQ PUSH2 0x31F JUMPI DUP1 PUSH4 0xC43C79B EQ PUSH2 0x35C JUMPI DUP1 PUSH4 0xDCB2E89 EQ PUSH2 0x385 JUMPI DUP1 PUSH4 0x13114A9D EQ PUSH2 0x3AE JUMPI DUP1 PUSH4 0x1694505E EQ PUSH2 0x3D9 JUMPI PUSH2 0x2EF JUMP JUMPDEST CALLDATASIZE PUSH2 0x2EF JUMPI STOP JUMPDEST PUSH1 0x0 DUP1 REVERT JUMPDEST CALLVALUE DUP1 ISZERO PUSH2 0x300 JUMPI PUSH1 0x0 DUP1 REVERT JUMPDEST POP PUSH2 0x309 PUSH2 0xC4D JUMP JUMPDEST PUSH1 0x40 MLOAD PUSH2 0x316 SWAP2 SWAP1 PUSH2 0x429D JUMP JUMPDEST PUSH1 0x40 MLOAD DUP1 SWAP2 SUB SWAP1 RETURN JUMPDEST CALLVALUE DUP1 ISZERO PUSH2 0x32B JUMPI PUSH1 0x0 DUP1 REVERT JUMPDEST POP PUSH2 0x346 PUSH1 0x4 DUP1 CALLDATASIZE SUB DUP2 ADD SWAP1 PUSH2 0x341 SWAP2 SWAP1 PUSH2 0x435D JUMP JUMPDEST PUSH2 0xCDF JUMP JUMPDEST PUSH1 0x40 MLOAD PUSH2 0x353 SWAP2 SWAP1 PUSH2 0x43B8 JUMP JUMPDEST PUSH1 0x40 MLOAD DUP1 SWAP2 SUB SWAP1 RETURN JUMPDEST CALLVALUE DUP1 ISZERO PUSH2 0x368 JUMPI PUSH1 0x0 DUP1 REVERT JUMPDEST POP PUSH2 0x383 PUSH1 0x4 DUP1 CALLDATASIZE SUB DUP2 ADD SWAP1 PUSH2 0x37E SWAP2 SWAP1 PUSH2 0x4438 JUMP JUMPDEST PUSH2 0xCFD JUMP JUMPDEST STOP JUMPDEST CALLVALUE DUP1 ISZERO PUSH2 0x391 JUMPI PUSH1 0x0 DUP1 REVERT JUMPDEST POP PUSH2 0x3AC PUSH1 0x4 DUP1 CALLDATASIZE SUB DUP2 ADD SWAP1 PUSH2 0x3A7 SWAP2 SWAP1 PUSH2 0x4485 JUMP JUMPDEST PUSH2 0xE57 JUMP JUMPDEST STOP JUMPDEST CALLVALUE DUP1 ISZERO PUSH2 0x3BA JUMPI PUSH1 0x0 DUP1 REVERT JUMPDEST POP PUSH2 0x3C3 PUSH2 0xF63 JUMP JUMPDEST PUSH1 0x40 MLOAD PUSH2 0x3D0 SWAP2 SWAP1 PUSH2 0x44C1 JUMP JUMPDEST PUSH1 0x40 MLOAD DUP1 SWAP2 SUB SWAP1 RETURN JUMPDEST CALLVALUE DUP1 ISZERO PUSH2 0x3E5 JUMPI PUSH1 0x0 DUP1 REVERT JUMPDEST POP PUSH2 0x3EE PUSH2 0xF69 JUMP JUMPDEST PUSH1 0x40 MLOAD PUSH2 0x3FB SWAP2 SWAP1 PUSH2 0x453B JUMP JUMPDEST PUSH1 0x40 MLOAD DUP1 SWAP2 SUB SWAP1 RETURN JUMPDEST CALLVALUE DUP1 ISZERO PUSH2 0x410 JUMPI PUSH1 0x0 DUP1 REVERT JUMPDEST POP PUSH2 0x419 PUSH2 0xF8F JUMP JUMPDEST PUSH1 0x40 MLOAD PUSH2 0x426 SWAP2 SWAP1 PUSH2 0x44C1 JUMP JUMPDEST PUSH1 0x40 MLOAD DUP1 SWAP2 SUB SWAP1 RETURN JUMPDEST CALLVALUE DUP1 ISZERO PUSH2 0x43B JUMPI PUSH1 0x0 DUP1 REVERT JUMPDEST POP PUSH2 0x456 PUSH1 0x4 DUP1 CALLDATASIZE SUB DUP2 ADD SWAP1 PUSH2 0x451 SWAP2 SWAP1 PUSH2 0x4556 JUMP JUMPDEST PUSH2 0xF99 JUMP JUMPDEST PUSH1 0x40 MLOAD PUSH2 0x463 SWAP2 SWAP1 PUSH2 0x43B8 JUMP JUMPDEST PUSH1 0x40 MLOAD DUP1 SWAP2 SUB SWAP1 RETURN JUMPDEST CALLVALUE DUP1 ISZERO PUSH2 0x478 JUMPI PUSH1 0x0 DUP1 REVERT JUMPDEST POP PUSH2 0x481 PUSH2 0x1091 JUMP JUMPDEST PUSH1 0x40 MLOAD PUSH2 0x48E SWAP2 SWAP1 PUSH2 0x45CA JUMP JUMPDEST PUSH1 0x40 MLOAD DUP1 SWAP2 SUB SWAP1 RETURN JUMPDEST CALLVALUE DUP1 ISZERO PUSH2 0x4A3 JUMPI PUSH1 0x0 DUP1 REVERT JUMPDEST POP PUSH2 0x4AC PUSH2 0x10B7 JUMP JUMPDEST PUSH1 0x40 MLOAD PUSH2 0x4B9 SWAP2 SWAP1 PUSH2 0x44C1 JUMP JUMPDEST PUSH1 0x40 MLOAD DUP1 SWAP2 SUB SWAP1 RETURN JUMPDEST CALLVALUE DUP1 ISZERO PUSH2 0x4CE JUMPI PUSH1 0x0 DUP1 REVERT JUMPDEST POP PUSH2 0x4D7 PUSH2 0x115E JUMP JUMPDEST PUSH1 0x40 MLOAD PUSH2 0x4E4 SWAP2 SWAP1 PUSH2 0x4601 JUMP JUMPDEST PUSH1 0x40 MLOAD DUP1 SWAP2 SUB SWAP1 RETURN JUMPDEST CALLVALUE DUP1 ISZERO PUSH2 0x4F9 JUMPI PUSH1 0x0 DUP1 REVERT JUMPDEST POP PUSH2 0x514 PUSH1 0x4 DUP1 CALLDATASIZE SUB DUP2 ADD SWAP1 PUSH2 0x50F SWAP2 SWAP1 PUSH2 0x461C JUMP JUMPDEST PUSH2 0x1167 JUMP JUMPDEST STOP JUMPDEST CALLVALUE DUP1 ISZERO PUSH2 0x522 JUMPI PUSH1 0x0 DUP1 REVERT JUMPDEST POP PUSH2 0x53D PUSH1 0x4 DUP1 CALLDATASIZE SUB DUP2 ADD SWAP1 PUSH2 0x538 SWAP2 SWAP1 PUSH2 0x435D JUMP JUMPDEST PUSH2 0x1273 JUMP JUMPDEST PUSH1 0x40 MLOAD PUSH2 0x54A SWAP2 SWAP1 PUSH2 0x43B8 JUMP JUMPDEST PUSH1 0x40 MLOAD DUP1 SWAP2 SUB SWAP1 RETURN JUMPDEST CALLVALUE DUP1 ISZERO PUSH2 0x55F JUMPI PUSH1 0x0 DUP1 REVERT JUMPDEST POP PUSH2 0x568 PUSH2 0x131F JUMP JUMPDEST PUSH1 0x40 MLOAD PUSH2 0x575 SWAP2 SWAP1 PUSH2 0x4658 JUMP JUMPDEST PUSH1 0x40 MLOAD DUP1 SWAP2 SUB SWAP1 RETURN JUMPDEST CALLVALUE DUP1 ISZERO PUSH2 0x58A JUMPI PUSH1 0x0 DUP1 REVERT JUMPDEST POP PUSH2 0x593 PUSH2 0x1345 JUMP JUMPDEST PUSH1 0x40 MLOAD PUSH2 0x5A0 SWAP2 SWAP1 PUSH2 0x4658 JUMP JUMPDEST PUSH1 0x40 MLOAD DUP1 SWAP2 SUB SWAP1 RETURN JUMPDEST CALLVALUE DUP1 ISZERO PUSH2 0x5B5 JUMPI PUSH1 0x0 DUP1 REVERT JUMPDEST POP PUSH2 0x5BE PUSH2 0x136B JUMP JUMPDEST STOP JUMPDEST CALLVALUE DUP1 ISZERO PUSH2 0x5CC JUMPI PUSH1 0x0 DUP1 REVERT JUMPDEST POP PUSH2 0x5E7 PUSH1 0x4 DUP1 CALLDATASIZE SUB DUP2 ADD SWAP1 PUSH2 0x5E2 SWAP2 SWAP1 PUSH2 0x4485 JUMP JUMPDEST PUSH2 0x141E JUMP JUMPDEST STOP JUMPDEST CALLVALUE DUP1 ISZERO PUSH2 0x5F5 JUMPI PUSH1 0x0 DUP1 REVERT JUMPDEST POP PUSH2 0x610 PUSH1 0x4 DUP1 CALLDATASIZE SUB DUP2 ADD SWAP1 PUSH2 0x60B SWAP2 SWAP1 PUSH2 0x461C JUMP JUMPDEST PUSH2 0x151B JUMP JUMPDEST PUSH1 0x40 MLOAD PUSH2 0x61D SWAP2 SWAP1 PUSH2 0x43B8 JUMP JUMPDEST PUSH1 0x40 MLOAD DUP1 SWAP2 SUB SWAP1 RETURN JUMPDEST CALLVALUE DUP1 ISZERO PUSH2 0x632 JUMPI PUSH1 0x0 DUP1 REVERT JUMPDEST POP PUSH2 0x64D PUSH1 0x4 DUP1 CALLDATASIZE SUB DUP2 ADD SWAP1 PUSH2 0x648 SWAP2 SWAP1 PUSH2 0x46B1 JUMP JUMPDEST PUSH2 0x1571 JUMP JUMPDEST STOP JUMPDEST CALLVALUE DUP1 ISZERO PUSH2 0x65B JUMPI PUSH1 0x0 DUP1 REVERT JUMPDEST POP PUSH2 0x676 PUSH1 0x4 DUP1 CALLDATASIZE SUB DUP2 ADD SWAP1 PUSH2 0x671 SWAP2 SWAP1 PUSH2 0x4485 JUMP JUMPDEST PUSH2 0x1700 JUMP JUMPDEST STOP JUMPDEST CALLVALUE DUP1 ISZERO PUSH2 0x684 JUMPI PUSH1 0x0 DUP1 REVERT JUMPDEST POP PUSH2 0x68D PUSH2 0x17FD JUMP JUMPDEST PUSH1 0x40 MLOAD PUSH2 0x69A SWAP2 SWAP1 PUSH2 0x44C1 JUMP JUMPDEST PUSH1 0x40 MLOAD DUP1 SWAP2 SUB SWAP1 RETURN JUMPDEST CALLVALUE DUP1 ISZERO PUSH2 0x6AF JUMPI PUSH1 0x0 DUP1 REVERT JUMPDEST POP PUSH2 0x6CA PUSH1 0x4 DUP1 CALLDATASIZE SUB DUP2 ADD SWAP1 PUSH2 0x6C5 SWAP2 SWAP1 PUSH2 0x461C JUMP JUMPDEST PUSH2 0x18A4 JUMP JUMPDEST PUSH1 0x40 MLOAD PUSH2 0x6D7 SWAP2 SWAP1 PUSH2 0x44C1 JUMP JUMPDEST PUSH1 0x40 MLOAD DUP1 SWAP2 SUB SWAP1 RETURN JUMPDEST CALLVALUE DUP1 ISZERO PUSH2 0x6EC JUMPI PUSH1 0x0 DUP1 REVERT JUMPDEST POP PUSH2 0x6F5 PUSH2 0x1958 JUMP JUMPDEST PUSH1 0x40 MLOAD PUSH2 0x702 SWAP2 SWAP1 PUSH2 0x44C1 JUMP JUMPDEST PUSH1 0x40 MLOAD DUP1 SWAP2 SUB SWAP1 RETURN JUMPDEST CALLVALUE DUP1 ISZERO PUSH2 0x717 JUMPI PUSH1 0x0 DUP1 REVERT JUMPDEST POP PUSH2 0x732 PUSH1 0x4 DUP1 CALLDATASIZE SUB DUP2 ADD SWAP1 PUSH2 0x72D SWAP2 SWAP1 PUSH2 0x4485 JUMP JUMPDEST PUSH2 0x195E JUMP JUMPDEST STOP JUMPDEST CALLVALUE DUP1 ISZERO PUSH2 0x740 JUMPI PUSH1 0x0 DUP1 REVERT JUMPDEST POP PUSH2 0x75B PUSH1 0x4 DUP1 CALLDATASIZE SUB DUP2 ADD SWAP1 PUSH2 0x756 SWAP2 SWAP1 PUSH2 0x461C JUMP JUMPDEST PUSH2 0x1A74 JUMP JUMPDEST PUSH1 0x40 MLOAD PUSH2 0x768 SWAP2 SWAP1 PUSH2 0x44C1 JUMP JUMPDEST PUSH1 0x40 MLOAD DUP1 SWAP2 SUB SWAP1 RETURN JUMPDEST CALLVALUE DUP1 ISZERO PUSH2 0x77D JUMPI PUSH1 0x0 DUP1 REVERT JUMPDEST POP PUSH2 0x786 PUSH2 0x1ABC JUMP JUMPDEST STOP JUMPDEST CALLVALUE DUP1 ISZERO PUSH2 0x794 JUMPI PUSH1 0x0 DUP1 REVERT JUMPDEST POP PUSH2 0x7AF PUSH1 0x4 DUP1 CALLDATASIZE SUB DUP2 ADD SWAP1 PUSH2 0x7AA SWAP2 SWAP1 PUSH2 0x4485 JUMP JUMPDEST PUSH2 0x1B44 JUMP JUMPDEST STOP JUMPDEST CALLVALUE DUP1 ISZERO PUSH2 0x7BD JUMPI PUSH1 0x0 DUP1 REVERT JUMPDEST POP PUSH2 0x7C6 PUSH2 0x1C94 JUMP JUMPDEST PUSH1 0x40 MLOAD PUSH2 0x7D3 SWAP2 SWAP1 PUSH2 0x4658 JUMP JUMPDEST PUSH1 0x40 MLOAD DUP1 SWAP2 SUB SWAP1 RETURN JUMPDEST CALLVALUE DUP1 ISZERO PUSH2 0x7E8 JUMPI PUSH1 0x0 DUP1 REVERT JUMPDEST POP PUSH2 0x7F1 PUSH2 0x1CBE JUMP JUMPDEST PUSH1 0x40 MLOAD PUSH2 0x7FE SWAP2 SWAP1 PUSH2 0x429D JUMP JUMPDEST PUSH1 0x40 MLOAD DUP1 SWAP2 SUB SWAP1 RETURN JUMPDEST CALLVALUE DUP1 ISZERO PUSH2 0x813 JUMPI PUSH1 0x0 DUP1 REVERT JUMPDEST POP PUSH2 0x81C PUSH2 0x1D50 JUMP JUMPDEST PUSH1 0x40 MLOAD PUSH2 0x829 SWAP2 SWAP1 PUSH2 0x44C1 JUMP JUMPDEST PUSH1 0x40 MLOAD DUP1 SWAP2 SUB SWAP1 RETURN JUMPDEST CALLVALUE DUP1 ISZERO PUSH2 0x83E JUMPI PUSH1 0x0 DUP1 REVERT JUMPDEST POP PUSH2 0x847 PUSH2 0x1D56 JUMP JUMPDEST PUSH1 0x40 MLOAD PUSH2 0x854 SWAP2 SWAP1 PUSH2 0x44C1 JUMP JUMPDEST PUSH1 0x40 MLOAD DUP1 SWAP2 SUB SWAP1 RETURN JUMPDEST CALLVALUE DUP1 ISZERO PUSH2 0x869 JUMPI PUSH1 0x0 DUP1 REVERT JUMPDEST POP PUSH2 0x872 PUSH2 0x1D5C JUMP JUMPDEST PUSH1 0x40 MLOAD PUSH2 0x87F SWAP2 SWAP1 PUSH2 0x44C1 JUMP JUMPDEST PUSH1 0x40 MLOAD DUP1 SWAP2 SUB SWAP1 RETURN JUMPDEST CALLVALUE DUP1 ISZERO PUSH2 0x894 JUMPI PUSH1 0x0 DUP1 REVERT JUMPDEST POP PUSH2 0x8AF PUSH1 0x4 DUP1 CALLDATASIZE SUB DUP2 ADD SWAP1 PUSH2 0x8AA SWAP2 SWAP1 PUSH2 0x435D JUMP JUMPDEST PUSH2 0x1E03 JUMP JUMPDEST PUSH1 0x40 MLOAD PUSH2 0x8BC SWAP2 SWAP1 PUSH2 0x43B8 JUMP JUMPDEST PUSH1 0x40 MLOAD DUP1 SWAP2 SUB SWAP1 RETURN JUMPDEST CALLVALUE DUP1 ISZERO PUSH2 0x8D1 JUMPI PUSH1 0x0 DUP1 REVERT JUMPDEST POP PUSH2 0x8EC PUSH1 0x4 DUP1 CALLDATASIZE SUB DUP2 ADD SWAP1 PUSH2 0x8E7 SWAP2 SWAP1 PUSH2 0x461C JUMP JUMPDEST PUSH2 0x1EEE JUMP JUMPDEST PUSH1 0x40 MLOAD PUSH2 0x8F9 SWAP2 SWAP1 PUSH2 0x44C1 JUMP JUMPDEST PUSH1 0x40 MLOAD DUP1 SWAP2 SUB SWAP1 RETURN JUMPDEST CALLVALUE DUP1 ISZERO PUSH2 0x90E JUMPI PUSH1 0x0 DUP1 REVERT JUMPDEST POP PUSH2 0x929 PUSH1 0x4 DUP1 CALLDATASIZE SUB DUP2 ADD SWAP1 PUSH2 0x924 SWAP2 SWAP1 PUSH2 0x435D JUMP JUMPDEST PUSH2 0x1FA2 JUMP JUMPDEST PUSH1 0x40 MLOAD PUSH2 0x936 SWAP2 SWAP1 PUSH2 0x43B8 JUMP JUMPDEST PUSH1 0x40 MLOAD DUP1 SWAP2 SUB SWAP1 RETURN JUMPDEST CALLVALUE DUP1 ISZERO PUSH2 0x94B JUMPI PUSH1 0x0 DUP1 REVERT JUMPDEST POP PUSH2 0x966 PUSH1 0x4 DUP1 CALLDATASIZE SUB DUP2 ADD SWAP1 PUSH2 0x961 SWAP2 SWAP1 PUSH2 0x461C JUMP JUMPDEST PUSH2 0x1FC0 JUMP JUMPDEST PUSH1 0x40 MLOAD PUSH2 0x97A SWAP9 SWAP8 SWAP7 SWAP6 SWAP5 SWAP4 SWAP3 SWAP2 SWAP1 PUSH2 0x46F7 JUMP JUMPDEST PUSH1 0x40 MLOAD DUP1 SWAP2 SUB SWAP1 RETURN JUMPDEST CALLVALUE DUP1 ISZERO PUSH2 0x98F JUMPI PUSH1 0x0 DUP1 REVERT JUMPDEST POP PUSH2 0x9AA PUSH1 0x4 DUP1 CALLDATASIZE SUB DUP2 ADD SWAP1 PUSH2 0x9A5 SWAP2 SWAP1 PUSH2 0x4485 JUMP JUMPDEST PUSH2 0x2093 JUMP JUMPDEST STOP JUMPDEST CALLVALUE DUP1 ISZERO PUSH2 0x9B8 JUMPI PUSH1 0x0 DUP1 REVERT JUMPDEST POP PUSH2 0x9D3 PUSH1 0x4 DUP1 CALLDATASIZE SUB DUP2 ADD SWAP1 PUSH2 0x9CE SWAP2 SWAP1 PUSH2 0x4485 JUMP JUMPDEST PUSH2 0x2190 JUMP JUMPDEST STOP JUMPDEST CALLVALUE DUP1 ISZERO PUSH2 0x9E1 JUMPI PUSH1 0x0 DUP1 REVERT JUMPDEST POP PUSH2 0x9FC PUSH1 0x4 DUP1 CALLDATASIZE SUB DUP2 ADD SWAP1 PUSH2 0x9F7 SWAP2 SWAP1 PUSH2 0x461C JUMP JUMPDEST PUSH2 0x226D JUMP JUMPDEST PUSH1 0x40 MLOAD PUSH2 0xA09 SWAP2 SWAP1 PUSH2 0x43B8 JUMP JUMPDEST PUSH1 0x40 MLOAD DUP1 SWAP2 SUB SWAP1 RETURN JUMPDEST CALLVALUE DUP1 ISZERO PUSH2 0xA1E JUMPI PUSH1 0x0 DUP1 REVERT JUMPDEST POP PUSH2 0xA27 PUSH2 0x228D JUMP JUMPDEST PUSH1 0x40 MLOAD PUSH2 0xA34 SWAP2 SWAP1 PUSH2 0x44C1 JUMP JUMPDEST PUSH1 0x40 MLOAD DUP1 SWAP2 SUB SWAP1 RETURN JUMPDEST CALLVALUE DUP1 ISZERO PUSH2 0xA49 JUMPI PUSH1 0x0 DUP1 REVERT JUMPDEST POP PUSH2 0xA64 PUSH1 0x4 DUP1 CALLDATASIZE SUB DUP2 ADD SWAP1 PUSH2 0xA5F SWAP2 SWAP1 PUSH2 0x461C JUMP JUMPDEST PUSH2 0x2334 JUMP JUMPDEST PUSH1 0x40 MLOAD PUSH2 0xA71 SWAP2 SWAP1 PUSH2 0x43B8 JUMP JUMPDEST PUSH1 0x40 MLOAD DUP1 SWAP2 SUB SWAP1 RETURN JUMPDEST CALLVALUE DUP1 ISZERO PUSH2 0xA86 JUMPI PUSH1 0x0 DUP1 REVERT JUMPDEST POP PUSH2 0xAA1 PUSH1 0x4 DUP1 CALLDATASIZE SUB DUP2 ADD SWAP1 PUSH2 0xA9C SWAP2 SWAP1 PUSH2 0x4775 JUMP JUMPDEST PUSH2 0x23E8 JUMP JUMPDEST PUSH1 0x40 MLOAD PUSH2 0xAAE SWAP2 SWAP1 PUSH2 0x44C1 JUMP JUMPDEST PUSH1 0x40 MLOAD DUP1 SWAP2 SUB SWAP1 RETURN JUMPDEST CALLVALUE DUP1 ISZERO PUSH2 0xAC3 JUMPI PUSH1 0x0 DUP1 REVERT JUMPDEST POP PUSH2 0xACC PUSH2 0x246F JUMP JUMPDEST PUSH1 0x40 MLOAD PUSH2 0xAD9 SWAP2 SWAP1 PUSH2 0x44C1 JUMP JUMPDEST PUSH1 0x40 MLOAD DUP1 SWAP2 SUB SWAP1 RETURN JUMPDEST CALLVALUE DUP1 ISZERO PUSH2 0xAEE JUMPI PUSH1 0x0 DUP1 REVERT JUMPDEST POP PUSH2 0xB09 PUSH1 0x4 DUP1 CALLDATASIZE SUB DUP2 ADD SWAP1 PUSH2 0xB04 SWAP2 SWAP1 PUSH2 0x461C JUMP JUMPDEST PUSH2 0x2475 JUMP JUMPDEST STOP JUMPDEST CALLVALUE DUP1 ISZERO PUSH2 0xB17 JUMPI PUSH1 0x0 DUP1 REVERT JUMPDEST POP PUSH2 0xB20 PUSH2 0x261C JUMP JUMPDEST PUSH1 0x40 MLOAD PUSH2 0xB2D SWAP2 SWAP1 PUSH2 0x44C1 JUMP JUMPDEST PUSH1 0x40 MLOAD DUP1 SWAP2 SUB SWAP1 RETURN JUMPDEST CALLVALUE DUP1 ISZERO PUSH2 0xB42 JUMPI PUSH1 0x0 DUP1 REVERT JUMPDEST POP PUSH2 0xB4B PUSH2 0x2622 JUMP JUMPDEST PUSH1 0x40 MLOAD PUSH2 0xB58 SWAP2 SWAP1 PUSH2 0x44C1 JUMP JUMPDEST PUSH1 0x40 MLOAD DUP1 SWAP2 SUB SWAP1 RETURN JUMPDEST CALLVALUE DUP1 ISZERO PUSH2 0xB6D JUMPI PUSH1 0x0 DUP1 REVERT JUMPDEST POP PUSH2 0xB88 PUSH1 0x4 DUP1 CALLDATASIZE SUB DUP2 ADD SWAP1 PUSH2 0xB83 SWAP2 SWAP1 PUSH2 0x4485 JUMP JUMPDEST PUSH2 0x26C9 JUMP JUMPDEST STOP JUMPDEST CALLVALUE DUP1 ISZERO PUSH2 0xB96 JUMPI PUSH1 0x0 DUP1 REVERT JUMPDEST POP PUSH2 0xBB1 PUSH1 0x4 DUP1 CALLDATASIZE SUB DUP2 ADD SWAP1 PUSH2 0xBAC SWAP2 SWAP1 PUSH2 0x4485 JUMP JUMPDEST PUSH2 0x27D5 JUMP JUMPDEST PUSH1 0x40 MLOAD PUSH2 0xBC5 SWAP9 SWAP8 SWAP7 SWAP6 SWAP5 SWAP4 SWAP3 SWAP2 SWAP1 PUSH2 0x46F7 JUMP JUMPDEST PUSH1 0x40 MLOAD DUP1 SWAP2 SUB SWAP1 RETURN JUMPDEST CALLVALUE DUP1 ISZERO PUSH2 0xBDA JUMPI PUSH1 0x0 DUP1 REVERT JUMPDEST POP PUSH2 0xBF5 PUSH1 0x4 DUP1 CALLDATASIZE SUB DUP2 ADD SWAP1 PUSH2 0xBF0 SWAP2 SWAP1 PUSH2 0x461C JUMP JUMPDEST PUSH2 0x28A8 JUMP JUMPDEST STOP JUMPDEST CALLVALUE DUP1 ISZERO PUSH2 0xC03 JUMPI PUSH1 0x0 DUP1 REVERT JUMPDEST POP PUSH2 0xC0C PUSH2 0x29A0 JUMP JUMPDEST PUSH1 0x40 MLOAD PUSH2 0xC19 SWAP2 SWAP1 PUSH2 0x4658 JUMP JUMPDEST PUSH1 0x40 MLOAD DUP1 SWAP2 SUB SWAP1 RETURN JUMPDEST CALLVALUE DUP1 ISZERO PUSH2 0xC2E JUMPI PUSH1 0x0 DUP1 REVERT JUMPDEST POP PUSH2 0xC37 PUSH2 0x29C6 JUMP JUMPDEST PUSH1 0x40 MLOAD PUSH2 0xC44 SWAP2 SWAP1 PUSH2 0x44C1 JUMP JUMPDEST PUSH1 0x40 MLOAD DUP1 SWAP2 SUB SWAP1 RETURN JUMPDEST PUSH1 0x60 PUSH1 0x3 DUP1 SLOAD PUSH2 0xC5C SWAP1 PUSH2 0x47E4 JUMP JUMPDEST DUP1 PUSH1 0x1F ADD PUSH1 0x20 DUP1 SWAP2 DIV MUL PUSH1 0x20 ADD PUSH1 0x40 MLOAD SWAP1 DUP2 ADD PUSH1 0x40 MSTORE DUP1 SWAP3 SWAP2 SWAP1 DUP2 DUP2 MSTORE PUSH1 0x20 ADD DUP3 DUP1 SLOAD PUSH2 0xC88 SWAP1 PUSH2 0x47E4 JUMP JUMPDEST DUP1 ISZERO PUSH2 0xCD5 JUMPI DUP1 PUSH1 0x1F LT PUSH2 0xCAA JUMPI PUSH2 0x100 DUP1 DUP4 SLOAD DIV MUL DUP4 MSTORE SWAP2 PUSH1 0x20 ADD SWAP2 PUSH2 0xCD5 JUMP JUMPDEST DUP3 ADD SWAP2 SWAP1 PUSH1 0x0 MSTORE PUSH1 0x20 PUSH1 0x0 KECCAK256 SWAP1 JUMPDEST DUP2 SLOAD DUP2 MSTORE SWAP1 PUSH1 0x1 ADD SWAP1 PUSH1 0x20 ADD DUP1 DUP4 GT PUSH2 0xCB8 JUMPI DUP3 SWAP1 SUB PUSH1 0x1F AND DUP3 ADD SWAP2 JUMPDEST POP POP POP POP POP SWAP1 POP SWAP1 JUMP JUMPDEST PUSH1 0x0 PUSH2 0xCF3 PUSH2 0xCEC PUSH2 0x2ADF JUMP JUMPDEST DUP5 DUP5 PUSH2 0x2AE7 JUMP JUMPDEST PUSH1 0x1 SWAP1 POP SWAP3 SWAP2 POP POP JUMP JUMPDEST PUSH2 0xD05 PUSH2 0x2ADF JUMP JUMPDEST PUSH20 0xFFFFFFFFFFFFFFFFFFFFFFFFFFFFFFFFFFFFFFFF AND PUSH2 0xD23 PUSH2 0x1C94 JUMP JUMPDEST PUSH20 0xFFFFFFFFFFFFFFFFFFFFFFFFFFFFFFFFFFFFFFFF AND EQ PUSH2 0xD79 JUMPI PUSH1 0x40 MLOAD PUSH32 0x8C379A000000000000000000000000000000000000000000000000000000000 DUP2 MSTORE PUSH1 0x4 ADD PUSH2 0xD70 SWAP1 PUSH2 0x4862 JUMP JUMPDEST PUSH1 0x40 MLOAD DUP1 SWAP2 SUB SWAP1 REVERT JUMPDEST PUSH1 0x0 JUMPDEST DUP3 DUP3 SWAP1 POP DUP2 LT ISZERO PUSH2 0xE19 JUMPI PUSH1 0x1 PUSH1 0x11 PUSH1 0x0 DUP6 DUP6 DUP6 DUP2 DUP2 LT PUSH2 0xDA0 JUMPI PUSH2 0xD9F PUSH2 0x4882 JUMP JUMPDEST JUMPDEST SWAP1 POP PUSH1 0x20 MUL ADD PUSH1 0x20 DUP2 ADD SWAP1 PUSH2 0xDB5 SWAP2 SWAP1 PUSH2 0x461C JUMP JUMPDEST PUSH20 0xFFFFFFFFFFFFFFFFFFFFFFFFFFFFFFFFFFFFFFFF AND PUSH20 0xFFFFFFFFFFFFFFFFFFFFFFFFFFFFFFFFFFFFFFFF AND DUP2 MSTORE PUSH1 0x20 ADD SWAP1 DUP2 MSTORE PUSH1 0x20 ADD PUSH1 0x0 KECCAK256 PUSH1 0x0 PUSH2 0x100 EXP DUP2 SLOAD DUP2 PUSH1 0xFF MUL NOT AND SWAP1 DUP4 ISZERO ISZERO MUL OR SWAP1 SSTORE POP DUP1 DUP1 PUSH2 0xE11 SWAP1 PUSH2 0x48E0 JUMP JUMPDEST SWAP2 POP POP PUSH2 0xD7C JUMP JUMPDEST POP PUSH32 0x6F058E77D614A1061FC197C99CDDE12F5FA414C92529BBE8F48B02F8D9F4F95D DUP3 DUP3 PUSH1 0x40 MLOAD PUSH2 0xE4B SWAP3 SWAP2 SWAP1 PUSH2 0x49EC JUMP JUMPDEST PUSH1 0x40 MLOAD DUP1 SWAP2 SUB SWAP1 LOG1 POP POP JUMP JUMPDEST PUSH2 0xE5F PUSH2 0x2ADF JUMP JUMPDEST PUSH20 0xFFFFFFFFFFFFFFFFFFFFFFFFFFFFFFFFFFFFFFFF AND PUSH2 0xE7D PUSH2 0x1C94 JUMP JUMPDEST PUSH20 0xFFFFFFFFFFFFFFFFFFFFFFFFFFFFFFFFFFFFFFFF AND EQ PUSH2 0xED3 JUMPI PUSH1 0x40 MLOAD PUSH32 0x8C379A000000000000000000000000000000000000000000000000000000000 DUP2 MSTORE PUSH1 0x4 ADD PUSH2 0xECA SWAP1 PUSH2 0x4862 JUMP JUMPDEST PUSH1 0x40 MLOAD DUP1 SWAP2 SUB SWAP1 REVERT JUMPDEST PUSH1 0x8 PUSH1 0x0 SWAP1 SLOAD SWAP1 PUSH2 0x100 EXP SWAP1 DIV PUSH20 0xFFFFFFFFFFFFFFFFFFFFFFFFFFFFFFFFFFFFFFFF AND PUSH20 0xFFFFFFFFFFFFFFFFFFFFFFFFFFFFFFFFFFFFFFFF AND PUSH4 0xDCB2E89 DUP3 PUSH1 0x40 MLOAD DUP3 PUSH4 0xFFFFFFFF AND PUSH1 0xE0 SHL DUP2 MSTORE PUSH1 0x4 ADD PUSH2 0xF2E SWAP2 SWAP1 PUSH2 0x44C1 JUMP JUMPDEST PUSH1 0x0 PUSH1 0x40 MLOAD DUP1 DUP4 SUB DUP2 PUSH1 0x0 DUP8 DUP1 EXTCODESIZE ISZERO DUP1 ISZERO PUSH2 0xF48 JUMPI PUSH1 0x0 DUP1 REVERT JUMPDEST POP GAS CALL ISZERO DUP1 ISZERO PUSH2 0xF5C JUMPI RETURNDATASIZE PUSH1 0x0 DUP1 RETURNDATACOPY RETURNDATASIZE PUSH1 0x0 REVERT JUMPDEST POP POP POP POP POP JUMP JUMPDEST PUSH1 0xE SLOAD DUP2 JUMP JUMPDEST PUSH1 0x6 PUSH1 0x0 SWAP1 SLOAD SWAP1 PUSH2 0x100 EXP SWAP1 DIV PUSH20 0xFFFFFFFFFFFFFFFFFFFFFFFFFFFFFFFFFFFFFFFF AND DUP2 JUMP JUMPDEST PUSH1 0x0 PUSH1 0x2 SLOAD SWAP1 POP SWAP1 JUMP JUMPDEST PUSH1 0x0 PUSH2 0xFA6 DUP5 DUP5 DUP5 PUSH2 0x2CB2 JUMP JUMPDEST PUSH1 0x0 PUSH1 0x1 PUSH1 0x0 DUP7 PUSH20 0xFFFFFFFFFFFFFFFFFFFFFFFFFFFFFFFFFFFFFFFF AND PUSH20 0xFFFFFFFFFFFFFFFFFFFFFFFFFFFFFFFFFFFFFFFF AND DUP2 MSTORE PUSH1 0x20 ADD SWAP1 DUP2 MSTORE PUSH1 0x20 ADD PUSH1 0x0 KECCAK256 PUSH1 0x0 PUSH2 0xFF1 PUSH2 0x2ADF JUMP JUMPDEST PUSH20 0xFFFFFFFFFFFFFFFFFFFFFFFFFFFFFFFFFFFFFFFF AND PUSH20 0xFFFFFFFFFFFFFFFFFFFFFFFFFFFFFFFFFFFFFFFF AND DUP2 MSTORE PUSH1 0x20 ADD SWAP1 DUP2 MSTORE PUSH1 0x20 ADD PUSH1 0x0 KECCAK256 SLOAD SWAP1 POP DUP3 DUP2 LT ISZERO PUSH2 0x1071 JUMPI PUSH1 0x40 MLOAD PUSH32 0x8C379A000000000000000000000000000000000000000000000000000000000 DUP2 MSTORE PUSH1 0x4 ADD PUSH2 0x1068 SWAP1 PUSH2 0x4A82 JUMP JUMPDEST PUSH1 0x40 MLOAD DUP1 SWAP2 SUB SWAP1 REVERT JUMPDEST PUSH2 0x1085 DUP6 PUSH2 0x107D PUSH2 0x2ADF JUMP JUMPDEST DUP6 DUP5 SUB PUSH2 0x2AE7 JUMP JUMPDEST PUSH1 0x1 SWAP2 POP POP SWAP4 SWAP3 POP POP POP JUMP JUMPDEST PUSH1 0x8 PUSH1 0x0 SWAP1 SLOAD SWAP1 PUSH2 0x100 EXP SWAP1 DIV PUSH20 0xFFFFFFFFFFFFFFFFFFFFFFFFFFFFFFFFFFFFFFFF AND DUP2 JUMP JUMPDEST PUSH1 0x0 PUSH1 0x8 PUSH1 0x0 SWAP1 SLOAD SWAP1 PUSH2 0x100 EXP SWAP1 DIV PUSH20 0xFFFFFFFFFFFFFFFFFFFFFFFFFFFFFFFFFFFFFFFF AND PUSH20 0xFFFFFFFFFFFFFFFFFFFFFFFFFFFFFFFFFFFFFFFF AND PUSH4 0x85A6B3AE PUSH1 0x40 MLOAD DUP2 PUSH4 0xFFFFFFFF AND PUSH1 0xE0 SHL DUP2 MSTORE PUSH1 0x4 ADD PUSH1 0x20 PUSH1 0x40 MLOAD DUP1 DUP4 SUB DUP2 DUP7 DUP1 EXTCODESIZE ISZERO DUP1 ISZERO PUSH2 0x1121 JUMPI PUSH1 0x0 DUP1 REVERT JUMPDEST POP GAS STATICCALL ISZERO DUP1 ISZERO PUSH2 0x1135 JUMPI RETURNDATASIZE PUSH1 0x0 DUP1 RETURNDATACOPY RETURNDATASIZE PUSH1 0x0 REVERT JUMPDEST POP POP POP POP PUSH1 0x40 MLOAD RETURNDATASIZE PUSH1 0x1F NOT PUSH1 0x1F DUP3 ADD AND DUP3 ADD DUP1 PUSH1 0x40 MSTORE POP DUP2 ADD SWAP1 PUSH2 0x1159 SWAP2 SWAP1 PUSH2 0x4AB7 JUMP JUMPDEST SWAP1 POP SWAP1 JUMP JUMPDEST PUSH1 0x0 PUSH1 0x12 SWAP1 POP SWAP1 JUMP JUMPDEST PUSH2 0x116F PUSH2 0x2ADF JUMP JUMPDEST PUSH20 0xFFFFFFFFFFFFFFFFFFFFFFFFFFFFFFFFFFFFFFFF AND PUSH2 0x118D PUSH2 0x1C94 JUMP JUMPDEST PUSH20 0xFFFFFFFFFFFFFFFFFFFFFFFFFFFFFFFFFFFFFFFF AND EQ PUSH2 0x11E3 JUMPI PUSH1 0x40 MLOAD PUSH32 0x8C379A000000000000000000000000000000000000000000000000000000000 DUP2 MSTORE PUSH1 0x4 ADD PUSH2 0x11DA SWAP1 PUSH2 0x4862 JUMP JUMPDEST PUSH1 0x40 MLOAD DUP1 SWAP2 SUB SWAP1 REVERT JUMPDEST PUSH1 0x8 PUSH1 0x0 SWAP1 SLOAD SWAP1 PUSH2 0x100 EXP SWAP1 DIV PUSH20 0xFFFFFFFFFFFFFFFFFFFFFFFFFFFFFFFFFFFFFFFF AND PUSH20 0xFFFFFFFFFFFFFFFFFFFFFFFFFFFFFFFFFFFFFFFF AND PUSH4 0x31E79DB0 DUP3 PUSH1 0x40 MLOAD DUP3 PUSH4 0xFFFFFFFF AND PUSH1 0xE0 SHL DUP2 MSTORE PUSH1 0x4 ADD PUSH2 0x123E SWAP2 SWAP1 PUSH2 0x4658 JUMP JUMPDEST PUSH1 0x0 PUSH1 0x40 MLOAD DUP1 DUP4 SUB DUP2 PUSH1 0x0 DUP8 DUP1 EXTCODESIZE ISZERO DUP1 ISZERO PUSH2 0x1258 JUMPI PUSH1 0x0 DUP1 REVERT JUMPDEST POP GAS CALL ISZERO DUP1 ISZERO PUSH2 0x126C JUMPI RETURNDATASIZE PUSH1 0x0 DUP1 RETURNDATACOPY RETURNDATASIZE PUSH1 0x0 REVERT JUMPDEST POP POP POP POP POP JUMP JUMPDEST PUSH1 0x0 PUSH2 0x1315 PUSH2 0x1280 PUSH2 0x2ADF JUMP JUMPDEST DUP5 DUP5 PUSH1 0x1 PUSH1 0x0 PUSH2 0x128E PUSH2 0x2ADF JUMP JUMPDEST PUSH20 0xFFFFFFFFFFFFFFFFFFFFFFFFFFFFFFFFFFFFFFFF AND PUSH20 0xFFFFFFFFFFFFFFFFFFFFFFFFFFFFFFFFFFFFFFFF AND DUP2 MSTORE PUSH1 0x20 ADD SWAP1 DUP2 MSTORE PUSH1 0x20 ADD PUSH1 0x0 KECCAK256 PUSH1 0x0 DUP9 PUSH20 0xFFFFFFFFFFFFFFFFFFFFFFFFFFFFFFFFFFFFFFFF AND PUSH20 0xFFFFFFFFFFFFFFFFFFFFFFFFFFFFFFFFFFFFFFFF AND DUP2 MSTORE PUSH1 0x20 ADD SWAP1 DUP2 MSTORE PUSH1 0x20 ADD PUSH1 0x0 KECCAK256 SLOAD PUSH2 0x1310 SWAP2 SWAP1 PUSH2 0x4AE4 JUMP JUMPDEST PUSH2 0x2AE7 JUMP JUMPDEST PUSH1 0x1 SWAP1 POP SWAP3 SWAP2 POP POP JUMP JUMPDEST PUSH1 0xF PUSH1 0x0 SWAP1 SLOAD SWAP1 PUSH2 0x100 EXP SWAP1 DIV PUSH20 0xFFFFFFFFFFFFFFFFFFFFFFFFFFFFFFFFFFFFFFFF AND DUP2 JUMP JUMPDEST PUSH1 0x7 PUSH1 0x0 SWAP1 SLOAD SWAP1 PUSH2 0x100 EXP SWAP1 DIV PUSH20 0xFFFFFFFFFFFFFFFFFFFFFFFFFFFFFFFFFFFFFFFF AND DUP2 JUMP JUMPDEST PUSH1 0x8 PUSH1 0x0 SWAP1 SLOAD SWAP1 PUSH2 0x100 EXP SWAP1 DIV PUSH20 0xFFFFFFFFFFFFFFFFFFFFFFFFFFFFFFFFFFFFFFFF AND PUSH20 0xFFFFFFFFFFFFFFFFFFFFFFFFFFFFFFFFFFFFFFFF AND PUSH4 0xBC4C4B37 CALLER PUSH1 0x0 PUSH1 0x40 MLOAD DUP4 PUSH4 0xFFFFFFFF AND PUSH1 0xE0 SHL DUP2 MSTORE PUSH1 0x4 ADD PUSH2 0x13C9 SWAP3 SWAP2 SWAP1 PUSH2 0x4B49 JUMP JUMPDEST PUSH1 0x20 PUSH1 0x40 MLOAD DUP1 DUP4 SUB DUP2 PUSH1 0x0 DUP8 DUP1 EXTCODESIZE ISZERO DUP1 ISZERO PUSH2 0x13E3 JUMPI PUSH1 0x0 DUP1 REVERT JUMPDEST POP GAS CALL ISZERO DUP1 ISZERO PUSH2 0x13F7 JUMPI RETURNDATASIZE PUSH1 0x0 DUP1 RETURNDATACOPY RETURNDATASIZE PUSH1 0x0 REVERT JUMPDEST POP POP POP POP PUSH1 0x40 MLOAD RETURNDATASIZE PUSH1 0x1F NOT PUSH1 0x1F DUP3 ADD AND DUP3 ADD DUP1 PUSH1 0x40 MSTORE POP DUP2 ADD SWAP1 PUSH2 0x141B SWAP2 SWAP1 PUSH2 0x4B9E JUMP JUMPDEST POP JUMP JUMPDEST PUSH2 0x1426 PUSH2 0x2ADF JUMP JUMPDEST PUSH20 0xFFFFFFFFFFFFFFFFFFFFFFFFFFFFFFFFFFFFFFFF AND PUSH2 0x1444 PUSH2 0x1C94 JUMP JUMPDEST PUSH20 0xFFFFFFFFFFFFFFFFFFFFFFFFFFFFFFFFFFFFFFFF AND EQ PUSH2 0x149A JUMPI PUSH1 0x40 MLOAD PUSH32 0x8C379A000000000000000000000000000000000000000000000000000000000 DUP2 MSTORE PUSH1 0x4 ADD PUSH2 0x1491 SWAP1 PUSH2 0x4862 JUMP JUMPDEST PUSH1 0x40 MLOAD DUP1 SWAP2 SUB SWAP1 REVERT JUMPDEST DUP1 PUSH1 0xB DUP2 SWAP1 SSTORE POP PUSH2 0x14CC PUSH1 0xD SLOAD PUSH2 0x14BE PUSH1 0xC SLOAD PUSH1 0xB SLOAD PUSH2 0x29DE SWAP1 SWAP2 SWAP1 PUSH4 0xFFFFFFFF AND JUMP JUMPDEST PUSH2 0x29DE SWAP1 SWAP2 SWAP1 PUSH4 0xFFFFFFFF AND JUMP JUMPDEST PUSH1 0xE DUP2 SWAP1 SSTORE POP PUSH1 0x19 PUSH1 0xE SLOAD GT ISZERO PUSH2 0x1518 JUMPI PUSH1 0x40 MLOAD PUSH32 0x8C379A000000000000000000000000000000000000000000000000000000000 DUP2 MSTORE PUSH1 0x4 ADD PUSH2 0x150F SWAP1 PUSH2 0x4C17 JUMP JUMPDEST PUSH1 0x40 MLOAD DUP1 SWAP2 SUB SWAP1 REVERT JUMPDEST POP JUMP JUMPDEST PUSH1 0x0 PUSH1 0x11 PUSH1 0x0 DUP4 PUSH20 0xFFFFFFFFFFFFFFFFFFFFFFFFFFFFFFFFFFFFFFFF AND PUSH20 0xFFFFFFFFFFFFFFFFFFFFFFFFFFFFFFFFFFFFFFFF AND DUP2 MSTORE PUSH1 0x20 ADD SWAP1 DUP2 MSTORE PUSH1 0x20 ADD PUSH1 0x0 KECCAK256 PUSH1 0x0 SWAP1 SLOAD SWAP1 PUSH2 0x100 EXP SWAP1 DIV PUSH1 0xFF AND SWAP1 POP SWAP2 SWAP1 POP JUMP JUMPDEST PUSH2 0x1579 PUSH2 0x2ADF JUMP JUMPDEST PUSH20 0xFFFFFFFFFFFFFFFFFFFFFFFFFFFFFFFFFFFFFFFF AND PUSH2 0x1597 PUSH2 0x1C94 JUMP JUMPDEST PUSH20 0xFFFFFFFFFFFFFFFFFFFFFFFFFFFFFFFFFFFFFFFF AND EQ PUSH2 0x15ED JUMPI PUSH1 0x40 MLOAD PUSH32 0x8C379A000000000000000000000000000000000000000000000000000000000 DUP2 MSTORE PUSH1 0x4 ADD PUSH2 0x15E4 SWAP1 PUSH2 0x4862 JUMP JUMPDEST PUSH1 0x40 MLOAD DUP1 SWAP2 SUB SWAP1 REVERT JUMPDEST PUSH1 0x0 PUSH20 0xFFFFFFFFFFFFFFFFFFFFFFFFFFFFFFFFFFFFFFFF AND DUP2 PUSH20 0xFFFFFFFFFFFFFFFFFFFFFFFFFFFFFFFFFFFFFFFF AND EQ ISZERO PUSH2 0x165D JUMPI PUSH1 0x40 MLOAD PUSH32 0x8C379A000000000000000000000000000000000000000000000000000000000 DUP2 MSTORE PUSH1 0x4 ADD PUSH2 0x1654 SWAP1 PUSH2 0x4CA9 JUMP JUMPDEST PUSH1 0x40 MLOAD DUP1 SWAP2 SUB SWAP1 REVERT JUMPDEST PUSH2 0x167C DUP2 PUSH20 0xFFFFFFFFFFFFFFFFFFFFFFFFFFFFFFFFFFFFFFFF AND PUSH2 0x29CB JUMP JUMPDEST ISZERO PUSH2 0x16BC JUMPI PUSH1 0x40 MLOAD PUSH32 0x8C379A000000000000000000000000000000000000000000000000000000000 DUP2 MSTORE PUSH1 0x4 ADD PUSH2 0x16B3 SWAP1 PUSH2 0x4D3B JUMP JUMPDEST PUSH1 0x40 MLOAD DUP1 SWAP2 SUB SWAP1 REVERT JUMPDEST DUP1 PUSH1 0xF PUSH1 0x0 PUSH2 0x100 EXP DUP2 SLOAD DUP2 PUSH20 0xFFFFFFFFFFFFFFFFFFFFFFFFFFFFFFFFFFFFFFFF MUL NOT AND SWAP1 DUP4 PUSH20 0xFFFFFFFFFFFFFFFFFFFFFFFFFFFFFFFFFFFFFFFF AND MUL OR SWAP1 SSTORE POP POP JUMP JUMPDEST PUSH2 0x1708 PUSH2 0x2ADF JUMP JUMPDEST PUSH20 0xFFFFFFFFFFFFFFFFFFFFFFFFFFFFFFFFFFFFFFFF AND PUSH2 0x1726 PUSH2 0x1C94 JUMP JUMPDEST PUSH20 0xFFFFFFFFFFFFFFFFFFFFFFFFFFFFFFFFFFFFFFFF AND EQ PUSH2 0x177C JUMPI PUSH1 0x40 MLOAD PUSH32 0x8C379A000000000000000000000000000000000000000000000000000000000 DUP2 MSTORE PUSH1 0x4 ADD PUSH2 0x1773 SWAP1 PUSH2 0x4862 JUMP JUMPDEST PUSH1 0x40 MLOAD DUP1 SWAP2 SUB SWAP1 REVERT JUMPDEST DUP1 PUSH1 0xD DUP2 SWAP1 SSTORE POP PUSH2 0x17AE PUSH1 0xD SLOAD PUSH2 0x17A0 PUSH1 0xC SLOAD PUSH1 0xB SLOAD PUSH2 0x29DE SWAP1 SWAP2 SWAP1 PUSH4 0xFFFFFFFF AND JUMP JUMPDEST PUSH2 0x29DE SWAP1 SWAP2 SWAP1 PUSH4 0xFFFFFFFF AND JUMP JUMPDEST PUSH1 0xE DUP2 SWAP1 SSTORE POP PUSH1 0x19 PUSH1 0xE SLOAD GT ISZERO PUSH2 0x17FA JUMPI PUSH1 0x40 MLOAD PUSH32 0x8C379A000000000000000000000000000000000000000000000000000000000 DUP2 MSTORE PUSH1 0x4 ADD PUSH2 0x17F1 SWAP1 PUSH2 0x4C17 JUMP JUMPDEST PUSH1 0x40 MLOAD DUP1 SWAP2 SUB SWAP1 REVERT JUMPDEST POP JUMP JUMPDEST PUSH1 0x0 PUSH1 0x8 PUSH1 0x0 SWAP1 SLOAD SWAP1 PUSH2 0x100 EXP SWAP1 DIV PUSH20 0xFFFFFFFFFFFFFFFFFFFFFFFFFFFFFFFFFFFFFFFF AND PUSH20 0xFFFFFFFFFFFFFFFFFFFFFFFFFFFFFFFFFFFFFFFF AND PUSH4 0x9BBEDDE PUSH1 0x40 MLOAD DUP2 PUSH4 0xFFFFFFFF AND PUSH1 0xE0 SHL DUP2 MSTORE PUSH1 0x4 ADD PUSH1 0x20 PUSH1 0x40 MLOAD DUP1 DUP4 SUB DUP2 DUP7 DUP1 EXTCODESIZE ISZERO DUP1 ISZERO PUSH2 0x1867 JUMPI PUSH1 0x0 DUP1 REVERT JUMPDEST POP GAS STATICCALL ISZERO DUP1 ISZERO PUSH2 0x187B JUMPI RETURNDATASIZE PUSH1 0x0 DUP1 RETURNDATACOPY RETURNDATASIZE PUSH1 0x0 REVERT JUMPDEST POP POP POP POP PUSH1 0x40 MLOAD RETURNDATASIZE PUSH1 0x1F NOT PUSH1 0x1F DUP3 ADD AND DUP3 ADD DUP1 PUSH1 0x40 MSTORE POP DUP2 ADD SWAP1 PUSH2 0x189F SWAP2 SWAP1 PUSH2 0x4AB7 JUMP JUMPDEST SWAP1 POP SWAP1 JUMP JUMPDEST PUSH1 0x0 PUSH1 0x8 PUSH1 0x0 SWAP1 SLOAD SWAP1 PUSH2 0x100 EXP SWAP1 DIV PUSH20 0xFFFFFFFFFFFFFFFFFFFFFFFFFFFFFFFFFFFFFFFF AND PUSH20 0xFFFFFFFFFFFFFFFFFFFFFFFFFFFFFFFFFFFFFFFF AND PUSH4 0x70A08231 DUP4 PUSH1 0x40 MLOAD DUP3 PUSH4 0xFFFFFFFF AND PUSH1 0xE0 SHL DUP2 MSTORE PUSH1 0x4 ADD PUSH2 0x1901 SWAP2 SWAP1 PUSH2 0x4658 JUMP JUMPDEST PUSH1 0x20 PUSH1 0x40 MLOAD DUP1 DUP4 SUB DUP2 DUP7 DUP1 EXTCODESIZE ISZERO DUP1 ISZERO PUSH2 0x1919 JUMPI PUSH1 0x0 DUP1 REVERT JUMPDEST POP GAS STATICCALL ISZERO DUP1 ISZERO PUSH2 0x192D JUMPI RETURNDATASIZE PUSH1 0x0 DUP1 RETURNDATACOPY RETURNDATASIZE PUSH1 0x0 REVERT JUMPDEST POP POP POP POP PUSH1 0x40 MLOAD RETURNDATASIZE PUSH1 0x1F NOT PUSH1 0x1F DUP3 ADD AND DUP3 ADD DUP1 PUSH1 0x40 MSTORE POP DUP2 ADD SWAP1 PUSH2 0x1951 SWAP2 SWAP1 PUSH2 0x4AB7 JUMP JUMPDEST SWAP1 POP SWAP2 SWAP1 POP JUMP JUMPDEST PUSH1 0xD SLOAD DUP2 JUMP JUMPDEST PUSH1 0x0 DUP1 PUSH1 0x0 PUSH1 0x8 PUSH1 0x0 SWAP1 SLOAD SWAP1 PUSH2 0x100 EXP SWAP1 DIV PUSH20 0xFFFFFFFFFFFFFFFFFFFFFFFFFFFFFFFFFFFFFFFF AND PUSH20 0xFFFFFFFFFFFFFFFFFFFFFFFFFFFFFFFFFFFFFFFF AND PUSH4 0xFFB2C479 DUP6 PUSH1 0x40 MLOAD DUP3 PUSH4 0xFFFFFFFF AND PUSH1 0xE0 SHL DUP2 MSTORE PUSH1 0x4 ADD PUSH2 0x19BE SWAP2 SWAP1 PUSH2 0x44C1 JUMP JUMPDEST PUSH1 0x60 PUSH1 0x40 MLOAD DUP1 DUP4 SUB DUP2 PUSH1 0x0 DUP8 DUP1 EXTCODESIZE ISZERO DUP1 ISZERO PUSH2 0x19D8 JUMPI PUSH1 0x0 DUP1 REVERT JUMPDEST POP GAS CALL ISZERO DUP1 ISZERO PUSH2 0x19EC JUMPI RETURNDATASIZE PUSH1 0x0 DUP1 RETURNDATACOPY RETURNDATASIZE PUSH1 0x0 REVERT JUMPDEST POP POP POP POP PUSH1 0x40 MLOAD RETURNDATASIZE PUSH1 0x1F NOT PUSH1 0x1F DUP3 ADD AND DUP3 ADD DUP1 PUSH1 0x40 MSTORE POP DUP2 ADD SWAP1 PUSH2 0x1A10 SWAP2 SWAP1 PUSH2 0x4D5B JUMP JUMPDEST SWAP3 POP SWAP3 POP SWAP3 POP ORIGIN PUSH20 0xFFFFFFFFFFFFFFFFFFFFFFFFFFFFFFFFFFFFFFFF AND PUSH1 0x0 ISZERO ISZERO PUSH32 0xC864333D6121033635AB41B29AE52F10A22CF4438C3E4F1C4C68518FEB2F8A98 DUP6 DUP6 DUP6 DUP10 PUSH1 0x40 MLOAD PUSH2 0x1A66 SWAP5 SWAP4 SWAP3 SWAP2 SWAP1 PUSH2 0x4DAE JUMP JUMPDEST PUSH1 0x40 MLOAD DUP1 SWAP2 SUB SWAP1 LOG3 POP POP POP POP JUMP JUMPDEST PUSH1 0x0 DUP1 PUSH1 0x0 DUP4 PUSH20 0xFFFFFFFFFFFFFFFFFFFFFFFFFFFFFFFFFFFFFFFF AND PUSH20 0xFFFFFFFFFFFFFFFFFFFFFFFFFFFFFFFFFFFFFFFF AND DUP2 MSTORE PUSH1 0x20 ADD SWAP1 DUP2 MSTORE PUSH1 0x20 ADD PUSH1 0x0 KECCAK256 SLOAD SWAP1 POP SWAP2 SWAP1 POP JUMP JUMPDEST PUSH2 0x1AC4 PUSH2 0x2ADF JUMP JUMPDEST PUSH20 0xFFFFFFFFFFFFFFFFFFFFFFFFFFFFFFFFFFFFFFFF AND PUSH2 0x1AE2 PUSH2 0x1C94 JUMP JUMPDEST PUSH20 0xFFFFFFFFFFFFFFFFFFFFFFFFFFFFFFFFFFFFFFFF AND EQ PUSH2 0x1B38 JUMPI PUSH1 0x40 MLOAD PUSH32 0x8C379A000000000000000000000000000000000000000000000000000000000 DUP2 MSTORE PUSH1 0x4 ADD PUSH2 0x1B2F SWAP1 PUSH2 0x4862 JUMP JUMPDEST PUSH1 0x40 MLOAD DUP1 SWAP2 SUB SWAP1 REVERT JUMPDEST PUSH2 0x1B42 PUSH1 0x0 PUSH2 0x3334 JUMP JUMPDEST JUMP JUMPDEST PUSH2 0x1B4C PUSH2 0x2ADF JUMP JUMPDEST PUSH20 0xFFFFFFFFFFFFFFFFFFFFFFFFFFFFFFFFFFFFFFFF AND PUSH2 0x1B6A PUSH2 0x1C94 JUMP JUMPDEST PUSH20 0xFFFFFFFFFFFFFFFFFFFFFFFFFFFFFFFFFFFFFFFF AND EQ PUSH2 0x1BC0 JUMPI PUSH1 0x40 MLOAD PUSH32 0x8C379A000000000000000000000000000000000000000000000000000000000 DUP2 MSTORE PUSH1 0x4 ADD PUSH2 0x1BB7 SWAP1 PUSH2 0x4862 JUMP JUMPDEST PUSH1 0x40 MLOAD DUP1 SWAP2 SUB SWAP1 REVERT JUMPDEST PUSH3 0x30D40 DUP2 LT ISZERO DUP1 ISZERO PUSH2 0x1BD6 JUMPI POP PUSH3 0x7A120 DUP2 GT ISZERO JUMPDEST PUSH2 0x1C15 JUMPI PUSH1 0x40 MLOAD PUSH32 0x8C379A000000000000000000000000000000000000000000000000000000000 DUP2 MSTORE PUSH1 0x4 ADD PUSH2 0x1C0C SWAP1 PUSH2 0x4E65 JUMP JUMPDEST PUSH1 0x40 MLOAD DUP1 SWAP2 SUB SWAP1 REVERT JUMPDEST PUSH1 0x10 SLOAD DUP2 EQ ISZERO PUSH2 0x1C5A JUMPI PUSH1 0x40 MLOAD PUSH32 0x8C379A000000000000000000000000000000000000000000000000000000000 DUP2 MSTORE PUSH1 0x4 ADD PUSH2 0x1C51 SWAP1 PUSH2 0x4EF7 JUMP JUMPDEST PUSH1 0x40 MLOAD DUP1 SWAP2 SUB SWAP1 REVERT JUMPDEST PUSH1 0x10 SLOAD DUP2 PUSH32 0x40D7E40E79AF4E8E5A9B3C57030D8EA93F13D669C06D448C4D631D4AE7D23DB7 PUSH1 0x40 MLOAD PUSH1 0x40 MLOAD DUP1 SWAP2 SUB SWAP1 LOG3 DUP1 PUSH1 0x10 DUP2 SWAP1 SSTORE POP POP JUMP JUMPDEST PUSH1 0x0 PUSH1 0x5 PUSH1 0x0 SWAP1 SLOAD SWAP1 PUSH2 0x100 EXP SWAP1 DIV PUSH20 0xFFFFFFFFFFFFFFFFFFFFFFFFFFFFFFFFFFFFFFFF AND SWAP1 POP SWAP1 JUMP JUMPDEST PUSH1 0x60 PUSH1 0x4 DUP1 SLOAD PUSH2 0x1CCD SWAP1 PUSH2 0x47E4 JUMP JUMPDEST DUP1 PUSH1 0x1F ADD PUSH1 0x20 DUP1 SWAP2 DIV MUL PUSH1 0x20 ADD PUSH1 0x40 MLOAD SWAP1 DUP2 ADD PUSH1 0x40 MSTORE DUP1 SWAP3 SWAP2 SWAP1 DUP2 DUP2 MSTORE PUSH1 0x20 ADD DUP3 DUP1 SLOAD PUSH2 0x1CF9 SWAP1 PUSH2 0x47E4 JUMP JUMPDEST DUP1 ISZERO PUSH2 0x1D46 JUMPI DUP1 PUSH1 0x1F LT PUSH2 0x1D1B JUMPI PUSH2 0x100 DUP1 DUP4 SLOAD DIV MUL DUP4 MSTORE SWAP2 PUSH1 0x20 ADD SWAP2 PUSH2 0x1D46 JUMP JUMPDEST DUP3 ADD SWAP2 SWAP1 PUSH1 0x0 MSTORE PUSH1 0x20 PUSH1 0x0 KECCAK256 SWAP1 JUMPDEST DUP2 SLOAD DUP2 MSTORE SWAP1 PUSH1 0x1 ADD SWAP1 PUSH1 0x20 ADD DUP1 DUP4 GT PUSH2 0x1D29 JUMPI DUP3 SWAP1 SUB PUSH1 0x1F AND DUP3 ADD SWAP2 JUMPDEST POP POP POP POP POP SWAP1 POP SWAP1 JUMP JUMPDEST PUSH1 0xC SLOAD DUP2 JUMP JUMPDEST PUSH1 0x10 SLOAD DUP2 JUMP JUMPDEST PUSH1 0x0 PUSH1 0x8 PUSH1 0x0 SWAP1 SLOAD SWAP1 PUSH2 0x100 EXP SWAP1 DIV PUSH20 0xFFFFFFFFFFFFFFFFFFFFFFFFFFFFFFFFFFFFFFFF AND PUSH20 0xFFFFFFFFFFFFFFFFFFFFFFFFFFFFFFFFFFFFFFFF AND PUSH4 0x6F2789EC PUSH1 0x40 MLOAD DUP2 PUSH4 0xFFFFFFFF AND PUSH1 0xE0 SHL DUP2 MSTORE PUSH1 0x4 ADD PUSH1 0x20 PUSH1 0x40 MLOAD DUP1 DUP4 SUB DUP2 DUP7 DUP1 EXTCODESIZE ISZERO DUP1 ISZERO PUSH2 0x1DC6 JUMPI PUSH1 0x0 DUP1 REVERT JUMPDEST POP GAS STATICCALL ISZERO DUP1 ISZERO PUSH2 0x1DDA JUMPI RETURNDATASIZE PUSH1 0x0 DUP1 RETURNDATACOPY RETURNDATASIZE PUSH1 0x0 REVERT JUMPDEST POP POP POP POP PUSH1 0x40 MLOAD RETURNDATASIZE PUSH1 0x1F NOT PUSH1 0x1F DUP3 ADD AND DUP3 ADD DUP1 PUSH1 0x40 MSTORE POP DUP2 ADD SWAP1 PUSH2 0x1DFE SWAP2 SWAP1 PUSH2 0x4AB7 JUMP JUMPDEST SWAP1 POP SWAP1 JUMP JUMPDEST PUSH1 0x0 DUP1 PUSH1 0x1 PUSH1 0x0 PUSH2 0x1E12 PUSH2 0x2ADF JUMP JUMPDEST PUSH20 0xFFFFFFFFFFFFFFFFFFFFFFFFFFFFFFFFFFFFFFFF AND PUSH20 0xFFFFFFFFFFFFFFFFFFFFFFFFFFFFFFFFFFFFFFFF AND DUP2 MSTORE PUSH1 0x20 ADD SWAP1 DUP2 MSTORE PUSH1 0x20 ADD PUSH1 0x0 KECCAK256 PUSH1 0x0 DUP6 PUSH20 0xFFFFFFFFFFFFFFFFFFFFFFFFFFFFFFFFFFFFFFFF AND PUSH20 0xFFFFFFFFFFFFFFFFFFFFFFFFFFFFFFFFFFFFFFFF AND DUP2 MSTORE PUSH1 0x20 ADD SWAP1 DUP2 MSTORE PUSH1 0x20 ADD PUSH1 0x0 KECCAK256 SLOAD SWAP1 POP DUP3 DUP2 LT ISZERO PUSH2 0x1ECF JUMPI PUSH1 0x40 MLOAD PUSH32 0x8C379A000000000000000000000000000000000000000000000000000000000 DUP2 MSTORE PUSH1 0x4 ADD PUSH2 0x1EC6 SWAP1 PUSH2 0x4F89 JUMP JUMPDEST PUSH1 0x40 MLOAD DUP1 SWAP2 SUB SWAP1 REVERT JUMPDEST PUSH2 0x1EE3 PUSH2 0x1EDA PUSH2 0x2ADF JUMP JUMPDEST DUP6 DUP6 DUP5 SUB PUSH2 0x2AE7 JUMP JUMPDEST PUSH1 0x1 SWAP2 POP POP SWAP3 SWAP2 POP POP JUMP JUMPDEST PUSH1 0x0 PUSH1 0x8 PUSH1 0x0 SWAP1 SLOAD SWAP1 PUSH2 0x100 EXP SWAP1 DIV PUSH20 0xFFFFFFFFFFFFFFFFFFFFFFFFFFFFFFFFFFFFFFFF AND PUSH20 0xFFFFFFFFFFFFFFFFFFFFFFFFFFFFFFFFFFFFFFFF AND PUSH4 0xA8B9D240 DUP4 PUSH1 0x40 MLOAD DUP3 PUSH4 0xFFFFFFFF AND PUSH1 0xE0 SHL DUP2 MSTORE PUSH1 0x4 ADD PUSH2 0x1F4B SWAP2 SWAP1 PUSH2 0x4658 JUMP JUMPDEST PUSH1 0x20 PUSH1 0x40 MLOAD DUP1 DUP4 SUB DUP2 DUP7 DUP1 EXTCODESIZE ISZERO DUP1 ISZERO PUSH2 0x1F63 JUMPI PUSH1 0x0 DUP1 REVERT JUMPDEST POP GAS STATICCALL ISZERO DUP1 ISZERO PUSH2 0x1F77 JUMPI RETURNDATASIZE PUSH1 0x0 DUP1 RETURNDATACOPY RETURNDATASIZE PUSH1 0x0 REVERT JUMPDEST POP POP POP POP PUSH1 0x40 MLOAD RETURNDATASIZE PUSH1 0x1F NOT PUSH1 0x1F DUP3 ADD AND DUP3 ADD DUP1 PUSH1 0x40 MSTORE POP DUP2 ADD SWAP1 PUSH2 0x1F9B SWAP2 SWAP1 PUSH2 0x4AB7 JUMP JUMPDEST SWAP1 POP SWAP2 SWAP1 POP JUMP JUMPDEST PUSH1 0x0 PUSH2 0x1FB6 PUSH2 0x1FAF PUSH2 0x2ADF JUMP JUMPDEST DUP5 DUP5 PUSH2 0x2CB2 JUMP JUMPDEST PUSH1 0x1 SWAP1 POP SWAP3 SWAP2 POP POP JUMP JUMPDEST PUSH1 0x0 DUP1 PUSH1 0x0 DUP1 PUSH1 0x0 DUP1 PUSH1 0x0 DUP1 PUSH1 0x8 PUSH1 0x0 SWAP1 SLOAD SWAP1 PUSH2 0x100 EXP SWAP1 DIV PUSH20 0xFFFFFFFFFFFFFFFFFFFFFFFFFFFFFFFFFFFFFFFF AND PUSH20 0xFFFFFFFFFFFFFFFFFFFFFFFFFFFFFFFFFFFFFFFF AND PUSH4 0xFBCBC0F1 DUP11 PUSH1 0x40 MLOAD DUP3 PUSH4 0xFFFFFFFF AND PUSH1 0xE0 SHL DUP2 MSTORE PUSH1 0x4 ADD PUSH2 0x2027 SWAP2 SWAP1 PUSH2 0x4658 JUMP JUMPDEST PUSH2 0x100 PUSH1 0x40 MLOAD DUP1 DUP4 SUB DUP2 DUP7 DUP1 EXTCODESIZE ISZERO DUP1 ISZERO PUSH2 0x2040 JUMPI PUSH1 0x0 DUP1 REVERT JUMPDEST POP GAS STATICCALL ISZERO DUP1 ISZERO PUSH2 0x2054 JUMPI RETURNDATASIZE PUSH1 0x0 DUP1 RETURNDATACOPY RETURNDATASIZE PUSH1 0x0 REVERT JUMPDEST POP POP POP POP PUSH1 0x40 MLOAD RETURNDATASIZE PUSH1 0x1F NOT PUSH1 0x1F DUP3 ADD AND DUP3 ADD DUP1 PUSH1 0x40 MSTORE POP DUP2 ADD SWAP1 PUSH2 0x2078 SWAP2 SWAP1 PUSH2 0x4FEA JUMP JUMPDEST SWAP8 POP SWAP8 POP SWAP8 POP SWAP8 POP SWAP8 POP SWAP8 POP SWAP8 POP SWAP8 POP SWAP2 SWAP4 SWAP6 SWAP8 POP SWAP2 SWAP4 SWAP6 SWAP8 JUMP JUMPDEST PUSH2 0x209B PUSH2 0x2ADF JUMP JUMPDEST PUSH20 0xFFFFFFFFFFFFFFFFFFFFFFFFFFFFFFFFFFFFFFFF AND PUSH2 0x20B9 PUSH2 0x1C94 JUMP JUMPDEST PUSH20 0xFFFFFFFFFFFFFFFFFFFFFFFFFFFFFFFFFFFFFFFF AND EQ PUSH2 0x210F JUMPI PUSH1 0x40 MLOAD PUSH32 0x8C379A000000000000000000000000000000000000000000000000000000000 DUP2 MSTORE PUSH1 0x4 ADD PUSH2 0x2106 SWAP1 PUSH2 0x4862 JUMP JUMPDEST PUSH1 0x40 MLOAD DUP1 SWAP2 SUB SWAP1 REVERT JUMPDEST DUP1 PUSH1 0xC DUP2 SWAP1 SSTORE POP PUSH2 0x2141 PUSH1 0xD SLOAD PUSH2 0x2133 PUSH1 0xC SLOAD PUSH1 0xB SLOAD PUSH2 0x29DE SWAP1 SWAP2 SWAP1 PUSH4 0xFFFFFFFF AND JUMP JUMPDEST PUSH2 0x29DE SWAP1 SWAP2 SWAP1 PUSH4 0xFFFFFFFF AND JUMP JUMPDEST PUSH1 0xE DUP2 SWAP1 SSTORE POP PUSH1 0x19 PUSH1 0xE SLOAD GT ISZERO PUSH2 0x218D JUMPI PUSH1 0x40 MLOAD PUSH32 0x8C379A000000000000000000000000000000000000000000000000000000000 DUP2 MSTORE PUSH1 0x4 ADD PUSH2 0x2184 SWAP1 PUSH2 0x4C17 JUMP JUMPDEST PUSH1 0x40 MLOAD DUP1 SWAP2 SUB SWAP1 REVERT JUMPDEST POP JUMP JUMPDEST PUSH2 0x2198 PUSH2 0x2ADF JUMP JUMPDEST PUSH20 0xFFFFFFFFFFFFFFFFFFFFFFFFFFFFFFFFFFFFFFFF AND PUSH2 0x21B6 PUSH2 0x1C94 JUMP JUMPDEST PUSH20 0xFFFFFFFFFFFFFFFFFFFFFFFFFFFFFFFFFFFFFFFF AND EQ PUSH2 0x220C JUMPI PUSH1 0x40 MLOAD PUSH32 0x8C379A000000000000000000000000000000000000000000000000000000000 DUP2 MSTORE PUSH1 0x4 ADD PUSH2 0x2203 SWAP1 PUSH2 0x4862 JUMP JUMPDEST PUSH1 0x40 MLOAD DUP1 SWAP2 SUB SWAP1 REVERT JUMPDEST PUSH3 0x186A0 PUSH2 0x2218 PUSH2 0xF8F JUMP JUMPDEST PUSH2 0x2222 SWAP2 SWAP1 PUSH2 0x50CF JUMP JUMPDEST DUP2 GT PUSH2 0x2263 JUMPI PUSH1 0x40 MLOAD PUSH32 0x8C379A000000000000000000000000000000000000000000000000000000000 DUP2 MSTORE PUSH1 0x4 ADD PUSH2 0x225A SWAP1 PUSH2 0x5172 JUMP JUMPDEST PUSH1 0x40 MLOAD DUP1 SWAP2 SUB SWAP1 REVERT JUMPDEST DUP1 PUSH1 0xA DUP2 SWAP1 SSTORE POP POP JUMP JUMPDEST PUSH1 0x12 PUSH1 0x20 MSTORE DUP1 PUSH1 0x0 MSTORE PUSH1 0x40 PUSH1 0x0 KECCAK256 PUSH1 0x0 SWAP2 POP SLOAD SWAP1 PUSH2 0x100 EXP SWAP1 DIV PUSH1 0xFF AND DUP2 JUMP JUMPDEST PUSH1 0x0 PUSH1 0x8 PUSH1 0x0 SWAP1 SLOAD SWAP1 PUSH2 0x100 EXP SWAP1 DIV PUSH20 0xFFFFFFFFFFFFFFFFFFFFFFFFFFFFFFFFFFFFFFFF AND PUSH20 0xFFFFFFFFFFFFFFFFFFFFFFFFFFFFFFFFFFFFFFFF AND PUSH4 0xBE10B614 PUSH1 0x40 MLOAD DUP2 PUSH4 0xFFFFFFFF AND PUSH1 0xE0 SHL DUP2 MSTORE PUSH1 0x4 ADD PUSH1 0x20 PUSH1 0x40 MLOAD DUP1 DUP4 SUB DUP2 DUP7 DUP1 EXTCODESIZE ISZERO DUP1 ISZERO PUSH2 0x22F7 JUMPI PUSH1 0x0 DUP1 REVERT JUMPDEST POP GAS STATICCALL ISZERO DUP1 ISZERO PUSH2 0x230B JUMPI RETURNDATASIZE PUSH1 0x0 DUP1 RETURNDATACOPY RETURNDATASIZE PUSH1 0x0 REVERT JUMPDEST POP POP POP POP PUSH1 0x40 MLOAD RETURNDATASIZE PUSH1 0x1F NOT PUSH1 0x1F DUP3 ADD AND DUP3 ADD DUP1 PUSH1 0x40 MSTORE POP DUP2 ADD SWAP1 PUSH2 0x232F SWAP2 SWAP1 PUSH2 0x4AB7 JUMP JUMPDEST SWAP1 POP SWAP1 JUMP JUMPDEST PUSH1 0x0 PUSH1 0x8 PUSH1 0x0 SWAP1 SLOAD SWAP1 PUSH2 0x100 EXP SWAP1 DIV PUSH20 0xFFFFFFFFFFFFFFFFFFFFFFFFFFFFFFFFFFFFFFFF AND PUSH20 0xFFFFFFFFFFFFFFFFFFFFFFFFFFFFFFFFFFFFFFFF AND PUSH4 0xC705C569 DUP4 PUSH1 0x40 MLOAD DUP3 PUSH4 0xFFFFFFFF AND PUSH1 0xE0 SHL DUP2 MSTORE PUSH1 0x4 ADD PUSH2 0x2391 SWAP2 SWAP1 PUSH2 0x4658 JUMP JUMPDEST PUSH1 0x20 PUSH1 0x40 MLOAD DUP1 DUP4 SUB DUP2 DUP7 DUP1 EXTCODESIZE ISZERO DUP1 ISZERO PUSH2 0x23A9 JUMPI PUSH1 0x0 DUP1 REVERT JUMPDEST POP GAS STATICCALL ISZERO DUP1 ISZERO PUSH2 0x23BD JUMPI RETURNDATASIZE PUSH1 0x0 DUP1 RETURNDATACOPY RETURNDATASIZE PUSH1 0x0 REVERT JUMPDEST POP POP POP POP PUSH1 0x40 MLOAD RETURNDATASIZE PUSH1 0x1F NOT PUSH1 0x1F DUP3 ADD AND DUP3 ADD DUP1 PUSH1 0x40 MSTORE POP DUP2 ADD SWAP1 PUSH2 0x23E1 SWAP2 SWAP1 PUSH2 0x4B9E JUMP JUMPDEST SWAP1 POP SWAP2 SWAP1 POP JUMP JUMPDEST PUSH1 0x0 PUSH1 0x1 PUSH1 0x0 DUP5 PUSH20 0xFFFFFFFFFFFFFFFFFFFFFFFFFFFFFFFFFFFFFFFF AND PUSH20 0xFFFFFFFFFFFFFFFFFFFFFFFFFFFFFFFFFFFFFFFF AND DUP2 MSTORE PUSH1 0x20 ADD SWAP1 DUP2 MSTORE PUSH1 0x20 ADD PUSH1 0x0 KECCAK256 PUSH1 0x0 DUP4 PUSH20 0xFFFFFFFFFFFFFFFFFFFFFFFFFFFFFFFFFFFFFFFF AND PUSH20 0xFFFFFFFFFFFFFFFFFFFFFFFFFFFFFFFFFFFFFFFF AND DUP2 MSTORE PUSH1 0x20 ADD SWAP1 DUP2 MSTORE PUSH1 0x20 ADD PUSH1 0x0 KECCAK256 SLOAD SWAP1 POP SWAP3 SWAP2 POP POP JUMP JUMPDEST PUSH1 0xA SLOAD DUP2 JUMP JUMPDEST PUSH2 0x247D PUSH2 0x2ADF JUMP JUMPDEST PUSH20 0xFFFFFFFFFFFFFFFFFFFFFFFFFFFFFFFFFFFFFFFF AND PUSH2 0x249B PUSH2 0x1C94 JUMP JUMPDEST PUSH20 0xFFFFFFFFFFFFFFFFFFFFFFFFFFFFFFFFFFFFFFFF AND EQ PUSH2 0x24F1 JUMPI PUSH1 0x40 MLOAD PUSH32 0x8C379A000000000000000000000000000000000000000000000000000000000 DUP2 MSTORE PUSH1 0x4 ADD PUSH2 0x24E8 SWAP1 PUSH2 0x4862 JUMP JUMPDEST PUSH1 0x40 MLOAD DUP1 SWAP2 SUB SWAP1 REVERT JUMPDEST PUSH1 0x11 PUSH1 0x0 DUP3 PUSH20 0xFFFFFFFFFFFFFFFFFFFFFFFFFFFFFFFFFFFFFFFF AND PUSH20 0xFFFFFFFFFFFFFFFFFFFFFFFFFFFFFFFFFFFFFFFF AND DUP2 MSTORE PUSH1 0x20 ADD SWAP1 DUP2 MSTORE PUSH1 0x20 ADD PUSH1 0x0 KECCAK256 PUSH1 0x0 SWAP1 SLOAD SWAP1 PUSH2 0x100 EXP SWAP1 DIV PUSH1 0xFF AND ISZERO PUSH2 0x257E JUMPI PUSH1 0x40 MLOAD PUSH32 0x8C379A000000000000000000000000000000000000000000000000000000000 DUP2 MSTORE PUSH1 0x4 ADD PUSH2 0x2575 SWAP1 PUSH2 0x5204 JUMP JUMPDEST PUSH1 0x40 MLOAD DUP1 SWAP2 SUB SWAP1 REVERT JUMPDEST PUSH1 0x1 PUSH1 0x11 PUSH1 0x0 DUP4 PUSH20 0xFFFFFFFFFFFFFFFFFFFFFFFFFFFFFFFFFFFFFFFF AND PUSH20 0xFFFFFFFFFFFFFFFFFFFFFFFFFFFFFFFFFFFFFFFF AND DUP2 MSTORE PUSH1 0x20 ADD SWAP1 DUP2 MSTORE PUSH1 0x20 ADD PUSH1 0x0 KECCAK256 PUSH1 0x0 PUSH2 0x100 EXP DUP2 SLOAD DUP2 PUSH1 0xFF MUL NOT AND SWAP1 DUP4 ISZERO ISZERO MUL OR SWAP1 SSTORE POP DUP1 PUSH20 0xFFFFFFFFFFFFFFFFFFFFFFFFFFFFFFFFFFFFFFFF AND PUSH32 0x57A00F76B5F242FB1E04B0B514A6974665A5B07BCE45E39F36DABFF4A042D936 PUSH1 0x40 MLOAD PUSH1 0x40 MLOAD DUP1 SWAP2 SUB SWAP1 LOG2 POP JUMP JUMPDEST PUSH1 0xB SLOAD DUP2 JUMP JUMPDEST PUSH1 0x0 PUSH1 0x8 PUSH1 0x0 SWAP1 SLOAD SWAP1 PUSH2 0x100 EXP SWAP1 DIV PUSH20 0xFFFFFFFFFFFFFFFFFFFFFFFFFFFFFFFFFFFFFFFF AND PUSH20 0xFFFFFFFFFFFFFFFFFFFFFFFFFFFFFFFFFFFFFFFF AND PUSH4 0xE7841EC0 PUSH1 0x40 MLOAD DUP2 PUSH4 0xFFFFFFFF AND PUSH1 0xE0 SHL DUP2 MSTORE PUSH1 0x4 ADD PUSH1 0x20 PUSH1 0x40 MLOAD DUP1 DUP4 SUB DUP2 DUP7 DUP1 EXTCODESIZE ISZERO DUP1 ISZERO PUSH2 0x268C JUMPI PUSH1 0x0 DUP1 REVERT JUMPDEST POP GAS STATICCALL ISZERO DUP1 ISZERO PUSH2 0x26A0 JUMPI RETURNDATASIZE PUSH1 0x0 DUP1 RETURNDATACOPY RETURNDATASIZE PUSH1 0x0 REVERT JUMPDEST POP POP POP POP PUSH1 0x40 MLOAD RETURNDATASIZE PUSH1 0x1F NOT PUSH1 0x1F DUP3 ADD AND DUP3 ADD DUP1 PUSH1 0x40 MSTORE POP DUP2 ADD SWAP1 PUSH2 0x26C4 SWAP2 SWAP1 PUSH2 0x4AB7 JUMP JUMPDEST SWAP1 POP SWAP1 JUMP JUMPDEST PUSH2 0x26D1 PUSH2 0x2ADF JUMP JUMPDEST PUSH20 0xFFFFFFFFFFFFFFFFFFFFFFFFFFFFFFFFFFFFFFFF AND PUSH2 0x26EF PUSH2 0x1C94 JUMP JUMPDEST PUSH20 0xFFFFFFFFFFFFFFFFFFFFFFFFFFFFFFFFFFFFFFFF AND EQ PUSH2 0x2745 JUMPI PUSH1 0x40 MLOAD PUSH32 0x8C379A000000000000000000000000000000000000000000000000000000000 DUP2 MSTORE PUSH1 0x4 ADD PUSH2 0x273C SWAP1 PUSH2 0x4862 JUMP JUMPDEST PUSH1 0x40 MLOAD DUP1 SWAP2 SUB SWAP1 REVERT JUMPDEST PUSH1 0x8 PUSH1 0x0 SWAP1 SLOAD SWAP1 PUSH2 0x100 EXP SWAP1 DIV PUSH20 0xFFFFFFFFFFFFFFFFFFFFFFFFFFFFFFFFFFFFFFFF AND PUSH20 0xFFFFFFFFFFFFFFFFFFFFFFFFFFFFFFFFFFFFFFFF AND PUSH4 0xE98030C7 DUP3 PUSH1 0x40 MLOAD DUP3 PUSH4 0xFFFFFFFF AND PUSH1 0xE0 SHL DUP2 MSTORE PUSH1 0x4 ADD PUSH2 0x27A0 SWAP2 SWAP1 PUSH2 0x44C1 JUMP JUMPDEST PUSH1 0x0 PUSH1 0x40 MLOAD DUP1 DUP4 SUB DUP2 PUSH1 0x0 DUP8 DUP1 EXTCODESIZE ISZERO DUP1 ISZERO PUSH2 0x27BA JUMPI PUSH1 0x0 DUP1 REVERT JUMPDEST POP GAS CALL ISZERO DUP1 ISZERO PUSH2 0x27CE JUMPI RETURNDATASIZE PUSH1 0x0 DUP1 RETURNDATACOPY RETURNDATASIZE PUSH1 0x0 REVERT JUMPDEST POP POP POP POP POP JUMP JUMPDEST PUSH1 0x0 DUP1 PUSH1 0x0 DUP1 PUSH1 0x0 DUP1 PUSH1 0x0 DUP1 PUSH1 0x8 PUSH1 0x0 SWAP1 SLOAD SWAP1 PUSH2 0x100 EXP SWAP1 DIV PUSH20 0xFFFFFFFFFFFFFFFFFFFFFFFFFFFFFFFFFFFFFFFF AND PUSH20 0xFFFFFFFFFFFFFFFFFFFFFFFFFFFFFFFFFFFFFFFF AND PUSH4 0x5183D6FD DUP11 PUSH1 0x40 MLOAD DUP3 PUSH4 0xFFFFFFFF AND PUSH1 0xE0 SHL DUP2 MSTORE PUSH1 0x4 ADD PUSH2 0x283C SWAP2 SWAP1 PUSH2 0x44C1 JUMP JUMPDEST PUSH2 0x100 PUSH1 0x40 MLOAD DUP1 DUP4 SUB DUP2 DUP7 DUP1 EXTCODESIZE ISZERO DUP1 ISZERO PUSH2 0x2855 JUMPI PUSH1 0x0 DUP1 REVERT JUMPDEST POP GAS STATICCALL ISZERO DUP1 ISZERO PUSH2 0x2869 JUMPI RETURNDATASIZE PUSH1 0x0 DUP1 RETURNDATACOPY RETURNDATASIZE PUSH1 0x0 REVERT JUMPDEST POP POP POP POP PUSH1 0x40 MLOAD RETURNDATASIZE PUSH1 0x1F NOT PUSH1 0x1F DUP3 ADD AND DUP3 ADD DUP1 PUSH1 0x40 MSTORE POP DUP2 ADD SWAP1 PUSH2 0x288D SWAP2 SWAP1 PUSH2 0x4FEA JUMP JUMPDEST SWAP8 POP SWAP8 POP SWAP8 POP SWAP8 POP SWAP8 POP SWAP8 POP SWAP8 POP SWAP8 POP SWAP2 SWAP4 SWAP6 SWAP8 POP SWAP2 SWAP4 SWAP6 SWAP8 JUMP JUMPDEST PUSH2 0x28B0 PUSH2 0x2ADF JUMP JUMPDEST PUSH20 0xFFFFFFFFFFFFFFFFFFFFFFFFFFFFFFFFFFFFFFFF AND PUSH2 0x28CE PUSH2 0x1C94 JUMP JUMPDEST PUSH20 0xFFFFFFFFFFFFFFFFFFFFFFFFFFFFFFFFFFFFFFFF AND EQ PUSH2 0x2924 JUMPI PUSH1 0x40 MLOAD PUSH32 0x8C379A000000000000000000000000000000000000000000000000000000000 DUP2 MSTORE PUSH1 0x4 ADD PUSH2 0x291B SWAP1 PUSH2 0x4862 JUMP JUMPDEST PUSH1 0x40 MLOAD DUP1 SWAP2 SUB SWAP1 REVERT JUMPDEST PUSH1 0x0 PUSH20 0xFFFFFFFFFFFFFFFFFFFFFFFFFFFFFFFFFFFFFFFF AND DUP2 PUSH20 0xFFFFFFFFFFFFFFFFFFFFFFFFFFFFFFFFFFFFFFFF AND EQ ISZERO PUSH2 0x2994 JUMPI PUSH1 0x40 MLOAD PUSH32 0x8C379A000000000000000000000000000000000000000000000000000000000 DUP2 MSTORE PUSH1 0x4 ADD PUSH2 0x298B SWAP1 PUSH2 0x5296 JUMP JUMPDEST PUSH1 0x40 MLOAD DUP1 SWAP2 SUB SWAP1 REVERT JUMPDEST PUSH2 0x299D DUP2 PUSH2 0x3334 JUMP JUMPDEST POP JUMP JUMPDEST PUSH1 0x9 PUSH1 0x0 SWAP1 SLOAD SWAP1 PUSH2 0x100 EXP SWAP1 DIV PUSH20 0xFFFFFFFFFFFFFFFFFFFFFFFFFFFFFFFFFFFFFFFF AND DUP2 JUMP JUMPDEST PUSH1 0x3 DUP2 JUMP JUMPDEST PUSH1 0x0 DUP1 DUP3 EXTCODESIZE SWAP1 POP PUSH1 0x0 DUP2 GT SWAP2 POP POP SWAP2 SWAP1 POP JUMP JUMPDEST PUSH1 0x0 DUP2 DUP4 PUSH2 0x29EC SWAP2 SWAP1 PUSH2 0x4AE4 JUMP JUMPDEST SWAP1 POP SWAP3 SWAP2 POP POP JUMP JUMPDEST PUSH1 0x0 DUP2 DUP4 PUSH2 0x2A02 SWAP2 SWAP1 PUSH2 0x50CF JUMP JUMPDEST SWAP1 POP SWAP3 SWAP2 POP POP JUMP JUMPDEST PUSH1 0x0 PUSH1 0x40 MLOAD PUSH32 0x3D602D80600A3D3981F3363D3D373D3D3D363D73000000000000000000000000 DUP2 MSTORE DUP3 PUSH1 0x60 SHL PUSH1 0x14 DUP3 ADD MSTORE PUSH32 0x5AF43D82803E903D91602B57FD5BF30000000000000000000000000000000000 PUSH1 0x28 DUP3 ADD MSTORE PUSH1 0x37 DUP2 PUSH1 0x0 CREATE SWAP2 POP POP PUSH1 0x0 PUSH20 0xFFFFFFFFFFFFFFFFFFFFFFFFFFFFFFFFFFFFFFFF AND DUP2 PUSH20 0xFFFFFFFFFFFFFFFFFFFFFFFFFFFFFFFFFFFFFFFF AND EQ ISZERO PUSH2 0x2ADA JUMPI PUSH1 0x40 MLOAD PUSH32 0x8C379A000000000000000000000000000000000000000000000000000000000 DUP2 MSTORE PUSH1 0x4 ADD PUSH2 0x2AD1 SWAP1 PUSH2 0x5302 JUMP JUMPDEST PUSH1 0x40 MLOAD DUP1 SWAP2 SUB SWAP1 REVERT JUMPDEST SWAP2 SWAP1 POP JUMP JUMPDEST PUSH1 0x0 CALLER SWAP1 POP SWAP1 JUMP JUMPDEST PUSH1 0x0 PUSH20 0xFFFFFFFFFFFFFFFFFFFFFFFFFFFFFFFFFFFFFFFF AND DUP4 PUSH20 0xFFFFFFFFFFFFFFFFFFFFFFFFFFFFFFFFFFFFFFFF AND EQ ISZERO PUSH2 0x2B57 JUMPI PUSH1 0x40 MLOAD PUSH32 0x8C379A000000000000000000000000000000000000000000000000000000000 DUP2 MSTORE PUSH1 0x4 ADD PUSH2 0x2B4E SWAP1 PUSH2 0x5394 JUMP JUMPDEST PUSH1 0x40 MLOAD DUP1 SWAP2 SUB SWAP1 REVERT JUMPDEST PUSH1 0x0 PUSH20 0xFFFFFFFFFFFFFFFFFFFFFFFFFFFFFFFFFFFFFFFF AND DUP3 PUSH20 0xFFFFFFFFFFFFFFFFFFFFFFFFFFFFFFFFFFFFFFFF AND EQ ISZERO PUSH2 0x2BC7 JUMPI PUSH1 0x40 MLOAD PUSH32 0x8C379A000000000000000000000000000000000000000000000000000000000 DUP2 MSTORE PUSH1 0x4 ADD PUSH2 0x2BBE SWAP1 PUSH2 0x5426 JUMP JUMPDEST PUSH1 0x40 MLOAD DUP1 SWAP2 SUB SWAP1 REVERT JUMPDEST DUP1 PUSH1 0x1 PUSH1 0x0 DUP6 PUSH20 0xFFFFFFFFFFFFFFFFFFFFFFFFFFFFFFFFFFFFFFFF AND PUSH20 0xFFFFFFFFFFFFFFFFFFFFFFFFFFFFFFFFFFFFFFFF AND DUP2 MSTORE PUSH1 0x20 ADD SWAP1 DUP2 MSTORE PUSH1 0x20 ADD PUSH1 0x0 KECCAK256 PUSH1 0x0 DUP5 PUSH20 0xFFFFFFFFFFFFFFFFFFFFFFFFFFFFFFFFFFFFFFFF AND PUSH20 0xFFFFFFFFFFFFFFFFFFFFFFFFFFFFFFFFFFFFFFFF AND DUP2 MSTORE PUSH1 0x20 ADD SWAP1 DUP2 MSTORE PUSH1 0x20 ADD PUSH1 0x0 KECCAK256 DUP2 SWAP1 SSTORE POP DUP2 PUSH20 0xFFFFFFFFFFFFFFFFFFFFFFFFFFFFFFFFFFFFFFFF AND DUP4 PUSH20 0xFFFFFFFFFFFFFFFFFFFFFFFFFFFFFFFFFFFFFFFF AND PUSH32 0x8C5BE1E5EBEC7D5BD14F71427D1E84F3DD0314C0F7B2291E5B200AC8C7C3B925 DUP4 PUSH1 0x40 MLOAD PUSH2 0x2CA5 SWAP2 SWAP1 PUSH2 0x44C1 JUMP JUMPDEST PUSH1 0x40 MLOAD DUP1 SWAP2 SUB SWAP1 LOG3 POP POP POP JUMP JUMPDEST PUSH1 0x0 PUSH20 0xFFFFFFFFFFFFFFFFFFFFFFFFFFFFFFFFFFFFFFFF AND DUP4 PUSH20 0xFFFFFFFFFFFFFFFFFFFFFFFFFFFFFFFFFFFFFFFF AND EQ ISZERO PUSH2 0x2D22 JUMPI PUSH1 0x40 MLOAD PUSH32 0x8C379A000000000000000000000000000000000000000000000000000000000 DUP2 MSTORE PUSH1 0x4 ADD PUSH2 0x2D19 SWAP1 PUSH2 0x54B8 JUMP JUMPDEST PUSH1 0x40 MLOAD DUP1 SWAP2 SUB SWAP1 REVERT JUMPDEST PUSH1 0x0 PUSH20 0xFFFFFFFFFFFFFFFFFFFFFFFFFFFFFFFFFFFFFFFF AND DUP3 PUSH20 0xFFFFFFFFFFFFFFFFFFFFFFFFFFFFFFFFFFFFFFFF AND EQ ISZERO PUSH2 0x2D92 JUMPI PUSH1 0x40 MLOAD PUSH32 0x8C379A000000000000000000000000000000000000000000000000000000000 DUP2 MSTORE PUSH1 0x4 ADD PUSH2 0x2D89 SWAP1 PUSH2 0x554A JUMP JUMPDEST PUSH1 0x40 MLOAD DUP1 SWAP2 SUB SWAP1 REVERT JUMPDEST PUSH1 0x0 DUP2 EQ ISZERO PUSH2 0x2DAC JUMPI PUSH2 0x2DA7 DUP4 DUP4 PUSH1 0x0 PUSH2 0x33FA JUMP JUMPDEST PUSH2 0x332F JUMP JUMPDEST PUSH1 0x0 PUSH2 0x2DB7 ADDRESS PUSH2 0x1A74 JUMP JUMPDEST SWAP1 POP PUSH1 0x0 PUSH1 0xA SLOAD DUP3 LT ISZERO SWAP1 POP DUP1 DUP1 ISZERO PUSH2 0x2DDD JUMPI POP PUSH1 0x7 PUSH1 0x14 SWAP1 SLOAD SWAP1 PUSH2 0x100 EXP SWAP1 DIV PUSH1 0xFF AND ISZERO JUMPDEST DUP1 ISZERO PUSH2 0x2E33 JUMPI POP PUSH1 0x12 PUSH1 0x0 DUP7 PUSH20 0xFFFFFFFFFFFFFFFFFFFFFFFFFFFFFFFFFFFFFFFF AND PUSH20 0xFFFFFFFFFFFFFFFFFFFFFFFFFFFFFFFFFFFFFFFF AND DUP2 MSTORE PUSH1 0x20 ADD SWAP1 DUP2 MSTORE PUSH1 0x20 ADD PUSH1 0x0 KECCAK256 PUSH1 0x0 SWAP1 SLOAD SWAP1 PUSH2 0x100 EXP SWAP1 DIV PUSH1 0xFF AND ISZERO JUMPDEST DUP1 ISZERO PUSH2 0x2E72 JUMPI POP PUSH2 0x2E42 PUSH2 0x1C94 JUMP JUMPDEST PUSH20 0xFFFFFFFFFFFFFFFFFFFFFFFFFFFFFFFFFFFFFFFF AND DUP6 PUSH20 0xFFFFFFFFFFFFFFFFFFFFFFFFFFFFFFFFFFFFFFFF AND EQ ISZERO JUMPDEST DUP1 ISZERO PUSH2 0x2EB1 JUMPI POP PUSH2 0x2E81 PUSH2 0x1C94 JUMP JUMPDEST PUSH20 0xFFFFFFFFFFFFFFFFFFFFFFFFFFFFFFFFFFFFFFFF AND DUP5 PUSH20 0xFFFFFFFFFFFFFFFFFFFFFFFFFFFFFFFFFFFFFFFF AND EQ ISZERO JUMPDEST DUP1 ISZERO PUSH2 0x2EBF JUMPI POP PUSH1 0x0 PUSH1 0xE SLOAD GT JUMPDEST ISZERO PUSH2 0x2FA2 JUMPI PUSH1 0x1 PUSH1 0x7 PUSH1 0x14 PUSH2 0x100 EXP DUP2 SLOAD DUP2 PUSH1 0xFF MUL NOT AND SWAP1 DUP4 ISZERO ISZERO MUL OR SWAP1 SSTORE POP PUSH1 0x0 PUSH1 0xD SLOAD GT ISZERO PUSH2 0x2F22 JUMPI PUSH1 0x0 PUSH2 0x2F15 PUSH1 0xE SLOAD PUSH2 0x2F07 PUSH1 0xD SLOAD DUP7 PUSH2 0x367B SWAP1 SWAP2 SWAP1 PUSH4 0xFFFFFFFF AND JUMP JUMPDEST PUSH2 0x29F4 SWAP1 SWAP2 SWAP1 PUSH4 0xFFFFFFFF AND JUMP JUMPDEST SWAP1 POP PUSH2 0x2F20 DUP2 PUSH2 0x3691 JUMP JUMPDEST POP JUMPDEST PUSH1 0x0 PUSH1 0xC SLOAD GT ISZERO PUSH2 0x2F65 JUMPI PUSH1 0x0 PUSH2 0x2F58 PUSH1 0xE SLOAD PUSH2 0x2F4A PUSH1 0xC SLOAD DUP7 PUSH2 0x367B SWAP1 SWAP2 SWAP1 PUSH4 0xFFFFFFFF AND JUMP JUMPDEST PUSH2 0x29F4 SWAP1 SWAP2 SWAP1 PUSH4 0xFFFFFFFF AND JUMP JUMPDEST SWAP1 POP PUSH2 0x2F63 DUP2 PUSH2 0x38E1 JUMP JUMPDEST POP JUMPDEST PUSH1 0x0 PUSH2 0x2F70 ADDRESS PUSH2 0x1A74 JUMP JUMPDEST SWAP1 POP PUSH1 0x0 DUP2 GT ISZERO PUSH2 0x2F85 JUMPI PUSH2 0x2F84 DUP2 PUSH2 0x3981 JUMP JUMPDEST JUMPDEST PUSH1 0x0 PUSH1 0x7 PUSH1 0x14 PUSH2 0x100 EXP DUP2 SLOAD DUP2 PUSH1 0xFF MUL NOT AND SWAP1 DUP4 ISZERO ISZERO MUL OR SWAP1 SSTORE POP POP JUMPDEST PUSH1 0x0 PUSH1 0x7 PUSH1 0x14 SWAP1 SLOAD SWAP1 PUSH2 0x100 EXP SWAP1 DIV PUSH1 0xFF AND ISZERO SWAP1 POP PUSH1 0x11 PUSH1 0x0 DUP8 PUSH20 0xFFFFFFFFFFFFFFFFFFFFFFFFFFFFFFFFFFFFFFFF AND PUSH20 0xFFFFFFFFFFFFFFFFFFFFFFFFFFFFFFFFFFFFFFFF AND DUP2 MSTORE PUSH1 0x20 ADD SWAP1 DUP2 MSTORE PUSH1 0x20 ADD PUSH1 0x0 KECCAK256 PUSH1 0x0 SWAP1 SLOAD SWAP1 PUSH2 0x100 EXP SWAP1 DIV PUSH1 0xFF AND DUP1 PUSH2 0x3058 JUMPI POP PUSH1 0x11 PUSH1 0x0 DUP7 PUSH20 0xFFFFFFFFFFFFFFFFFFFFFFFFFFFFFFFFFFFFFFFF AND PUSH20 0xFFFFFFFFFFFFFFFFFFFFFFFFFFFFFFFFFFFFFFFF AND DUP2 MSTORE PUSH1 0x20 ADD SWAP1 DUP2 MSTORE PUSH1 0x20 ADD PUSH1 0x0 KECCAK256 PUSH1 0x0 SWAP1 SLOAD SWAP1 PUSH2 0x100 EXP SWAP1 DIV PUSH1 0xFF AND JUMPDEST ISZERO PUSH2 0x3062 JUMPI PUSH1 0x0 SWAP1 POP JUMPDEST DUP1 DUP1 ISZERO PUSH2 0x3071 JUMPI POP PUSH1 0x0 PUSH1 0xE SLOAD GT JUMPDEST ISZERO PUSH2 0x30C4 JUMPI PUSH1 0x0 PUSH2 0x30A0 PUSH1 0x64 PUSH2 0x3092 PUSH1 0xE SLOAD DUP9 PUSH2 0x367B SWAP1 SWAP2 SWAP1 PUSH4 0xFFFFFFFF AND JUMP JUMPDEST PUSH2 0x29F4 SWAP1 SWAP2 SWAP1 PUSH4 0xFFFFFFFF AND JUMP JUMPDEST SWAP1 POP PUSH2 0x30B5 DUP2 DUP7 PUSH2 0x3BE0 SWAP1 SWAP2 SWAP1 PUSH4 0xFFFFFFFF AND JUMP JUMPDEST SWAP5 POP PUSH2 0x30C2 DUP8 ADDRESS DUP4 PUSH2 0x33FA JUMP JUMPDEST POP JUMPDEST PUSH2 0x30CF DUP7 DUP7 DUP7 PUSH2 0x33FA JUMP JUMPDEST PUSH1 0x8 PUSH1 0x0 SWAP1 SLOAD SWAP1 PUSH2 0x100 EXP SWAP1 DIV PUSH20 0xFFFFFFFFFFFFFFFFFFFFFFFFFFFFFFFFFFFFFFFF AND PUSH20 0xFFFFFFFFFFFFFFFFFFFFFFFFFFFFFFFFFFFFFFFF AND PUSH4 0xE30443BC DUP8 PUSH2 0x3117 DUP10 PUSH2 0x1A74 JUMP JUMPDEST PUSH1 0x40 MLOAD DUP4 PUSH4 0xFFFFFFFF AND PUSH1 0xE0 SHL DUP2 MSTORE PUSH1 0x4 ADD PUSH2 0x3134 SWAP3 SWAP2 SWAP1 PUSH2 0x556A JUMP JUMPDEST PUSH1 0x0 PUSH1 0x40 MLOAD DUP1 DUP4 SUB DUP2 PUSH1 0x0 DUP8 DUP1 EXTCODESIZE ISZERO DUP1 ISZERO PUSH2 0x314E JUMPI PUSH1 0x0 DUP1 REVERT JUMPDEST POP GAS CALL SWAP3 POP POP POP DUP1 ISZERO PUSH2 0x315F JUMPI POP PUSH1 0x1 JUMPDEST PUSH2 0x3168 JUMPI PUSH2 0x3169 JUMP JUMPDEST JUMPDEST PUSH1 0x8 PUSH1 0x0 SWAP1 SLOAD SWAP1 PUSH2 0x100 EXP SWAP1 DIV PUSH20 0xFFFFFFFFFFFFFFFFFFFFFFFFFFFFFFFFFFFFFFFF AND PUSH20 0xFFFFFFFFFFFFFFFFFFFFFFFFFFFFFFFFFFFFFFFF AND PUSH4 0xE30443BC DUP7 PUSH2 0x31B1 DUP9 PUSH2 0x1A74 JUMP JUMPDEST PUSH1 0x40 MLOAD DUP4 PUSH4 0xFFFFFFFF AND PUSH1 0xE0 SHL DUP2 MSTORE PUSH1 0x4 ADD PUSH2 0x31CE SWAP3 SWAP2 SWAP1 PUSH2 0x556A JUMP JUMPDEST PUSH1 0x0 PUSH1 0x40 MLOAD DUP1 DUP4 SUB DUP2 PUSH1 0x0 DUP8 DUP1 EXTCODESIZE ISZERO DUP1 ISZERO PUSH2 0x31E8 JUMPI PUSH1 0x0 DUP1 REVERT JUMPDEST POP GAS CALL SWAP3 POP POP POP DUP1 ISZERO PUSH2 0x31F9 JUMPI POP PUSH1 0x1 JUMPDEST PUSH2 0x3202 JUMPI PUSH2 0x3203 JUMP JUMPDEST JUMPDEST PUSH1 0x7 PUSH1 0x14 SWAP1 SLOAD SWAP1 PUSH2 0x100 EXP SWAP1 DIV PUSH1 0xFF AND PUSH2 0x332B JUMPI PUSH1 0x0 PUSH1 0x10 SLOAD SWAP1 POP PUSH1 0x8 PUSH1 0x0 SWAP1 SLOAD SWAP1 PUSH2 0x100 EXP SWAP1 DIV PUSH20 0xFFFFFFFFFFFFFFFFFFFFFFFFFFFFFFFFFFFFFFFF AND PUSH20 0xFFFFFFFFFFFFFFFFFFFFFFFFFFFFFFFFFFFFFFFF AND PUSH4 0xFFB2C479 DUP3 PUSH1 0x40 MLOAD DUP3 PUSH4 0xFFFFFFFF AND PUSH1 0xE0 SHL DUP2 MSTORE PUSH1 0x4 ADD PUSH2 0x3279 SWAP2 SWAP1 PUSH2 0x44C1 JUMP JUMPDEST PUSH1 0x60 PUSH1 0x40 MLOAD DUP1 DUP4 SUB DUP2 PUSH1 0x0 DUP8 DUP1 EXTCODESIZE ISZERO DUP1 ISZERO PUSH2 0x3293 JUMPI PUSH1 0x0 DUP1 REVERT JUMPDEST POP GAS CALL SWAP3 POP POP POP DUP1 ISZERO PUSH2 0x32C4 JUMPI POP PUSH1 0x40 MLOAD RETURNDATASIZE PUSH1 0x1F NOT PUSH1 0x1F DUP3 ADD AND DUP3 ADD DUP1 PUSH1 0x40 MSTORE POP DUP2 ADD SWAP1 PUSH2 0x32C1 SWAP2 SWAP1 PUSH2 0x4D5B JUMP JUMPDEST PUSH1 0x1 JUMPDEST PUSH2 0x32CD JUMPI PUSH2 0x3329 JUMP JUMPDEST ORIGIN PUSH20 0xFFFFFFFFFFFFFFFFFFFFFFFFFFFFFFFFFFFFFFFF AND PUSH1 0x1 ISZERO ISZERO PUSH32 0xC864333D6121033635AB41B29AE52F10A22CF4438C3E4F1C4C68518FEB2F8A98 DUP6 DUP6 DUP6 DUP10 PUSH1 0x40 MLOAD PUSH2 0x331D SWAP5 SWAP4 SWAP3 SWAP2 SWAP1 PUSH2 0x4DAE JUMP JUMPDEST PUSH1 0x40 MLOAD DUP1 SWAP2 SUB SWAP1 LOG3 POP POP POP JUMPDEST POP JUMPDEST POP POP POP JUMPDEST POP POP POP JUMP JUMPDEST PUSH1 0x0 PUSH1 0x5 PUSH1 0x0 SWAP1 SLOAD SWAP1 PUSH2 0x100 EXP SWAP1 DIV PUSH20 0xFFFFFFFFFFFFFFFFFFFFFFFFFFFFFFFFFFFFFFFF AND SWAP1 POP DUP2 PUSH1 0x5 PUSH1 0x0 PUSH2 0x100 EXP DUP2 SLOAD DUP2 PUSH20 0xFFFFFFFFFFFFFFFFFFFFFFFFFFFFFFFFFFFFFFFF MUL NOT AND SWAP1 DUP4 PUSH20 0xFFFFFFFFFFFFFFFFFFFFFFFFFFFFFFFFFFFFFFFF AND MUL OR SWAP1 SSTORE POP DUP2 PUSH20 0xFFFFFFFFFFFFFFFFFFFFFFFFFFFFFFFFFFFFFFFF AND DUP2 PUSH20 0xFFFFFFFFFFFFFFFFFFFFFFFFFFFFFFFFFFFFFFFF AND PUSH32 0x8BE0079C531659141344CD1FD0A4F28419497F9722A3DAAFE3B4186F6B6457E0 PUSH1 0x40 MLOAD PUSH1 0x40 MLOAD DUP1 SWAP2 SUB SWAP1 LOG3 POP POP JUMP JUMPDEST PUSH1 0x0 PUSH20 0xFFFFFFFFFFFFFFFFFFFFFFFFFFFFFFFFFFFFFFFF AND DUP4 PUSH20 0xFFFFFFFFFFFFFFFFFFFFFFFFFFFFFFFFFFFFFFFF AND EQ ISZERO PUSH2 0x346A JUMPI PUSH1 0x40 MLOAD PUSH32 0x8C379A000000000000000000000000000000000000000000000000000000000 DUP2 MSTORE PUSH1 0x4 ADD PUSH2 0x3461 SWAP1 PUSH2 0x54B8 JUMP JUMPDEST PUSH1 0x40 MLOAD DUP1 SWAP2 SUB SWAP1 REVERT JUMPDEST PUSH1 0x0 PUSH20 0xFFFFFFFFFFFFFFFFFFFFFFFFFFFFFFFFFFFFFFFF AND DUP3 PUSH20 0xFFFFFFFFFFFFFFFFFFFFFFFFFFFFFFFFFFFFFFFF AND EQ ISZERO PUSH2 0x34DA JUMPI PUSH1 0x40 MLOAD PUSH32 0x8C379A000000000000000000000000000000000000000000000000000000000 DUP2 MSTORE PUSH1 0x4 ADD PUSH2 0x34D1 SWAP1 PUSH2 0x554A JUMP JUMPDEST PUSH1 0x40 MLOAD DUP1 SWAP2 SUB SWAP1 REVERT JUMPDEST PUSH2 0x34E5 DUP4 DUP4 DUP4 PUSH2 0x3BF6 JUMP JUMPDEST PUSH1 0x0 DUP1 PUSH1 0x0 DUP6 PUSH20 0xFFFFFFFFFFFFFFFFFFFFFFFFFFFFFFFFFFFFFFFF AND PUSH20 0xFFFFFFFFFFFFFFFFFFFFFFFFFFFFFFFFFFFFFFFF AND DUP2 MSTORE PUSH1 0x20 ADD SWAP1 DUP2 MSTORE PUSH1 0x20 ADD PUSH1 0x0 KECCAK256 SLOAD SWAP1 POP DUP2 DUP2 LT ISZERO PUSH2 0x356B JUMPI PUSH1 0x40 MLOAD PUSH32 0x8C379A000000000000000000000000000000000000000000000000000000000 DUP2 MSTORE PUSH1 0x4 ADD PUSH2 0x3562 SWAP1 PUSH2 0x5605 JUMP JUMPDEST PUSH1 0x40 MLOAD DUP1 SWAP2 SUB SWAP1 REVERT JUMPDEST DUP2 DUP2 SUB PUSH1 0x0 DUP1 DUP7 PUSH20 0xFFFFFFFFFFFFFFFFFFFFFFFFFFFFFFFFFFFFFFFF AND PUSH20 0xFFFFFFFFFFFFFFFFFFFFFFFFFFFFFFFFFFFFFFFF AND DUP2 MSTORE PUSH1 0x20 ADD SWAP1 DUP2 MSTORE PUSH1 0x20 ADD PUSH1 0x0 KECCAK256 DUP2 SWAP1 SSTORE POP DUP2 PUSH1 0x0 DUP1 DUP6 PUSH20 0xFFFFFFFFFFFFFFFFFFFFFFFFFFFFFFFFFFFFFFFF AND PUSH20 0xFFFFFFFFFFFFFFFFFFFFFFFFFFFFFFFFFFFFFFFF AND DUP2 MSTORE PUSH1 0x20 ADD SWAP1 DUP2 MSTORE PUSH1 0x20 ADD PUSH1 0x0 KECCAK256 PUSH1 0x0 DUP3 DUP3 SLOAD PUSH2 0x35FE SWAP2 SWAP1 PUSH2 0x4AE4 JUMP JUMPDEST SWAP3 POP POP DUP2 SWAP1 SSTORE POP DUP3 PUSH20 0xFFFFFFFFFFFFFFFFFFFFFFFFFFFFFFFFFFFFFFFF AND DUP5 PUSH20 0xFFFFFFFFFFFFFFFFFFFFFFFFFFFFFFFFFFFFFFFF AND PUSH32 0xDDF252AD1BE2C89B69C2B068FC378DAA952BA7F163C4A11628F55A4DF523B3EF DUP5 PUSH1 0x40 MLOAD PUSH2 0x3662 SWAP2 SWAP1 PUSH2 0x44C1 JUMP JUMPDEST PUSH1 0x40 MLOAD DUP1 SWAP2 SUB SWAP1 LOG3 PUSH2 0x3675 DUP5 DUP5 DUP5 PUSH2 0x3BFB JUMP JUMPDEST POP POP POP POP JUMP JUMPDEST PUSH1 0x0 DUP2 DUP4 PUSH2 0x3689 SWAP2 SWAP1 PUSH2 0x5625 JUMP JUMPDEST SWAP1 POP SWAP3 SWAP2 POP POP JUMP JUMPDEST PUSH1 0x0 PUSH1 0x9 PUSH1 0x0 SWAP1 SLOAD SWAP1 PUSH2 0x100 EXP SWAP1 DIV PUSH20 0xFFFFFFFFFFFFFFFFFFFFFFFFFFFFFFFFFFFFFFFF AND PUSH20 0xFFFFFFFFFFFFFFFFFFFFFFFFFFFFFFFFFFFFFFFF AND PUSH4 0x70A08231 ADDRESS PUSH1 0x40 MLOAD DUP3 PUSH4 0xFFFFFFFF AND PUSH1 0xE0 SHL DUP2 MSTORE PUSH1 0x4 ADD PUSH2 0x36EE SWAP2 SWAP1 PUSH2 0x4658 JUMP JUMPDEST PUSH1 0x20 PUSH1 0x40 MLOAD DUP1 DUP4 SUB DUP2 DUP7 DUP1 EXTCODESIZE ISZERO DUP1 ISZERO PUSH2 0x3706 JUMPI PUSH1 0x0 DUP1 REVERT JUMPDEST POP GAS STATICCALL ISZERO DUP1 ISZERO PUSH2 0x371A JUMPI RETURNDATASIZE PUSH1 0x0 DUP1 RETURNDATACOPY RETURNDATASIZE PUSH1 0x0 REVERT JUMPDEST POP POP POP POP PUSH1 0x40 MLOAD RETURNDATASIZE PUSH1 0x1F NOT PUSH1 0x1F DUP3 ADD AND DUP3 ADD DUP1 PUSH1 0x40 MSTORE POP DUP2 ADD SWAP1 PUSH2 0x373E SWAP2 SWAP1 PUSH2 0x4AB7 JUMP JUMPDEST SWAP1 POP PUSH2 0x3749 DUP3 PUSH2 0x3C00 JUMP JUMPDEST PUSH1 0x0 PUSH2 0x3808 DUP3 PUSH1 0x9 PUSH1 0x0 SWAP1 SLOAD SWAP1 PUSH2 0x100 EXP SWAP1 DIV PUSH20 0xFFFFFFFFFFFFFFFFFFFFFFFFFFFFFFFFFFFFFFFF AND PUSH20 0xFFFFFFFFFFFFFFFFFFFFFFFFFFFFFFFFFFFFFFFF AND PUSH4 0x70A08231 ADDRESS PUSH1 0x40 MLOAD DUP3 PUSH4 0xFFFFFFFF AND PUSH1 0xE0 SHL DUP2 MSTORE PUSH1 0x4 ADD PUSH2 0x37AA SWAP2 SWAP1 PUSH2 0x4658 JUMP JUMPDEST PUSH1 0x20 PUSH1 0x40 MLOAD DUP1 DUP4 SUB DUP2 DUP7 DUP1 EXTCODESIZE ISZERO DUP1 ISZERO PUSH2 0x37C2 JUMPI PUSH1 0x0 DUP1 REVERT JUMPDEST POP GAS STATICCALL ISZERO DUP1 ISZERO PUSH2 0x37D6 JUMPI RETURNDATASIZE PUSH1 0x0 DUP1 RETURNDATACOPY RETURNDATASIZE PUSH1 0x0 REVERT JUMPDEST POP POP POP POP PUSH1 0x40 MLOAD RETURNDATASIZE PUSH1 0x1F NOT PUSH1 0x1F DUP3 ADD AND DUP3 ADD DUP1 PUSH1 0x40 MSTORE POP DUP2 ADD SWAP1 PUSH2 0x37FA SWAP2 SWAP1 PUSH2 0x4AB7 JUMP JUMPDEST PUSH2 0x3BE0 SWAP1 SWAP2 SWAP1 PUSH4 0xFFFFFFFF AND JUMP JUMPDEST SWAP1 POP PUSH1 0x9 PUSH1 0x0 SWAP1 SLOAD SWAP1 PUSH2 0x100 EXP SWAP1 DIV PUSH20 0xFFFFFFFFFFFFFFFFFFFFFFFFFFFFFFFFFFFFFFFF AND PUSH20 0xFFFFFFFFFFFFFFFFFFFFFFFFFFFFFFFFFFFFFFFF AND PUSH4 0xA9059CBB PUSH1 0xF PUSH1 0x0 SWAP1 SLOAD SWAP1 PUSH2 0x100 EXP SWAP1 DIV PUSH20 0xFFFFFFFFFFFFFFFFFFFFFFFFFFFFFFFFFFFFFFFF AND DUP4 PUSH1 0x40 MLOAD DUP4 PUSH4 0xFFFFFFFF AND PUSH1 0xE0 SHL DUP2 MSTORE PUSH1 0x4 ADD PUSH2 0x3889 SWAP3 SWAP2 SWAP1 PUSH2 0x567F JUMP JUMPDEST PUSH1 0x20 PUSH1 0x40 MLOAD DUP1 DUP4 SUB DUP2 PUSH1 0x0 DUP8 DUP1 EXTCODESIZE ISZERO DUP1 ISZERO PUSH2 0x38A3 JUMPI PUSH1 0x0 DUP1 REVERT JUMPDEST POP GAS CALL ISZERO DUP1 ISZERO PUSH2 0x38B7 JUMPI RETURNDATASIZE PUSH1 0x0 DUP1 RETURNDATACOPY RETURNDATASIZE PUSH1 0x0 REVERT JUMPDEST POP POP POP POP PUSH1 0x40 MLOAD RETURNDATASIZE PUSH1 0x1F NOT PUSH1 0x1F DUP3 ADD AND DUP3 ADD DUP1 PUSH1 0x40 MSTORE POP DUP2 ADD SWAP1 PUSH2 0x38DB SWAP2 SWAP1 PUSH2 0x4B9E JUMP JUMPDEST POP POP POP POP JUMP JUMPDEST PUSH1 0x0 PUSH2 0x38F7 PUSH1 0x2 DUP4 PUSH2 0x29F4 SWAP1 SWAP2 SWAP1 PUSH4 0xFFFFFFFF AND JUMP JUMPDEST SWAP1 POP PUSH1 0x0 PUSH2 0x390E DUP3 DUP5 PUSH2 0x3BE0 SWAP1 SWAP2 SWAP1 PUSH4 0xFFFFFFFF AND JUMP JUMPDEST SWAP1 POP PUSH1 0x0 SELFBALANCE SWAP1 POP PUSH2 0x391E DUP4 PUSH2 0x3EC3 JUMP JUMPDEST PUSH1 0x0 PUSH2 0x3933 DUP3 SELFBALANCE PUSH2 0x3BE0 SWAP1 SWAP2 SWAP1 PUSH4 0xFFFFFFFF AND JUMP JUMPDEST SWAP1 POP PUSH2 0x393F DUP4 DUP3 PUSH2 0x4115 JUMP JUMPDEST PUSH32 0x17BBFB9A6069321B6DED73BD96327C9E6B7212A5CD51FF219CD61370ACAFB561 DUP5 DUP3 DUP6 PUSH1 0x40 MLOAD PUSH2 0x3972 SWAP4 SWAP3 SWAP2 SWAP1 PUSH2 0x56A8 JUMP JUMPDEST PUSH1 0x40 MLOAD DUP1 SWAP2 SUB SWAP1 LOG1 POP POP POP POP POP JUMP JUMPDEST PUSH2 0x398A DUP2 PUSH2 0x3C00 JUMP JUMPDEST PUSH1 0x0 PUSH1 0x9 PUSH1 0x0 SWAP1 SLOAD SWAP1 PUSH2 0x100 EXP SWAP1 DIV PUSH20 0xFFFFFFFFFFFFFFFFFFFFFFFFFFFFFFFFFFFFFFFF AND PUSH20 0xFFFFFFFFFFFFFFFFFFFFFFFFFFFFFFFFFFFFFFFF AND PUSH4 0x70A08231 ADDRESS PUSH1 0x40 MLOAD DUP3 PUSH4 0xFFFFFFFF AND PUSH1 0xE0 SHL DUP2 MSTORE PUSH1 0x4 ADD PUSH2 0x39E7 SWAP2 SWAP1 PUSH2 0x4658 JUMP JUMPDEST PUSH1 0x20 PUSH1 0x40 MLOAD DUP1 DUP4 SUB DUP2 DUP7 DUP1 EXTCODESIZE ISZERO DUP1 ISZERO PUSH2 0x39FF JUMPI PUSH1 0x0 DUP1 REVERT JUMPDEST POP GAS STATICCALL ISZERO DUP1 ISZERO PUSH2 0x3A13 JUMPI RETURNDATASIZE PUSH1 0x0 DUP1 RETURNDATACOPY RETURNDATASIZE PUSH1 0x0 REVERT JUMPDEST POP POP POP POP PUSH1 0x40 MLOAD RETURNDATASIZE PUSH1 0x1F NOT PUSH1 0x1F DUP3 ADD AND DUP3 ADD DUP1 PUSH1 0x40 MSTORE POP DUP2 ADD SWAP1 PUSH2 0x3A37 SWAP2 SWAP1 PUSH2 0x4AB7 JUMP JUMPDEST SWAP1 POP PUSH1 0x0 PUSH1 0x9 PUSH1 0x0 SWAP1 SLOAD SWAP1 PUSH2 0x100 EXP SWAP1 DIV PUSH20 0xFFFFFFFFFFFFFFFFFFFFFFFFFFFFFFFFFFFFFFFF AND PUSH20 0xFFFFFFFFFFFFFFFFFFFFFFFFFFFFFFFFFFFFFFFF AND PUSH4 0xA9059CBB PUSH1 0x8 PUSH1 0x0 SWAP1 SLOAD SWAP1 PUSH2 0x100 EXP SWAP1 DIV PUSH20 0xFFFFFFFFFFFFFFFFFFFFFFFFFFFFFFFFFFFFFFFF AND DUP5 PUSH1 0x40 MLOAD DUP4 PUSH4 0xFFFFFFFF AND PUSH1 0xE0 SHL DUP2 MSTORE PUSH1 0x4 ADD PUSH2 0x3ABA SWAP3 SWAP2 SWAP1 PUSH2 0x567F JUMP JUMPDEST PUSH1 0x20 PUSH1 0x40 MLOAD DUP1 DUP4 SUB DUP2 PUSH1 0x0 DUP8 DUP1 EXTCODESIZE ISZERO DUP1 ISZERO PUSH2 0x3AD4 JUMPI PUSH1 0x0 DUP1 REVERT JUMPDEST POP GAS CALL ISZERO DUP1 ISZERO PUSH2 0x3AE8 JUMPI RETURNDATASIZE PUSH1 0x0 DUP1 RETURNDATACOPY RETURNDATASIZE PUSH1 0x0 REVERT JUMPDEST POP POP POP POP PUSH1 0x40 MLOAD RETURNDATASIZE PUSH1 0x1F NOT PUSH1 0x1F DUP3 ADD AND DUP3 ADD DUP1 PUSH1 0x40 MSTORE POP DUP2 ADD SWAP1 PUSH2 0x3B0C SWAP2 SWAP1 PUSH2 0x4B9E JUMP JUMPDEST SWAP1 POP DUP1 ISZERO PUSH2 0x3BDB JUMPI PUSH1 0x8 PUSH1 0x0 SWAP1 SLOAD SWAP1 PUSH2 0x100 EXP SWAP1 DIV PUSH20 0xFFFFFFFFFFFFFFFFFFFFFFFFFFFFFFFFFFFFFFFF AND PUSH20 0xFFFFFFFFFFFFFFFFFFFFFFFFFFFFFFFFFFFFFFFF AND PUSH4 0xBA72A955 DUP4 PUSH1 0x40 MLOAD DUP3 PUSH4 0xFFFFFFFF AND PUSH1 0xE0 SHL DUP2 MSTORE PUSH1 0x4 ADD PUSH2 0x3B6F SWAP2 SWAP1 PUSH2 0x44C1 JUMP JUMPDEST PUSH1 0x0 PUSH1 0x40 MLOAD DUP1 DUP4 SUB DUP2 PUSH1 0x0 DUP8 DUP1 EXTCODESIZE ISZERO DUP1 ISZERO PUSH2 0x3B89 JUMPI PUSH1 0x0 DUP1 REVERT JUMPDEST POP GAS CALL ISZERO DUP1 ISZERO PUSH2 0x3B9D JUMPI RETURNDATASIZE PUSH1 0x0 DUP1 RETURNDATACOPY RETURNDATASIZE PUSH1 0x0 REVERT JUMPDEST POP POP POP POP PUSH32 0x80195CC573B02CC48460CBCA6E6E4CC85DDB91959D946E1C3025EA3D87942DC3 DUP4 DUP4 PUSH1 0x40 MLOAD PUSH2 0x3BD2 SWAP3 SWAP2 SWAP1 PUSH2 0x56DF JUMP JUMPDEST PUSH1 0x40 MLOAD DUP1 SWAP2 SUB SWAP1 LOG1 JUMPDEST POP POP POP JUMP JUMPDEST PUSH1 0x0 DUP2 DUP4 PUSH2 0x3BEE SWAP2 SWAP1 PUSH2 0x5708 JUMP JUMPDEST SWAP1 POP SWAP3 SWAP2 POP POP JUMP JUMPDEST POP POP POP JUMP JUMPDEST POP POP POP JUMP JUMPDEST PUSH1 0x0 PUSH1 0x3 PUSH8 0xFFFFFFFFFFFFFFFF DUP2 GT ISZERO PUSH2 0x3C1D JUMPI PUSH2 0x3C1C PUSH2 0x573C JUMP JUMPDEST JUMPDEST PUSH1 0x40 MLOAD SWAP1 DUP1 DUP3 MSTORE DUP1 PUSH1 0x20 MUL PUSH1 0x20 ADD DUP3 ADD PUSH1 0x40 MSTORE DUP1 ISZERO PUSH2 0x3C4B JUMPI DUP2 PUSH1 0x20 ADD PUSH1 0x20 DUP3 MUL DUP1 CALLDATASIZE DUP4 CALLDATACOPY DUP1 DUP3 ADD SWAP2 POP POP SWAP1 POP JUMPDEST POP SWAP1 POP ADDRESS DUP2 PUSH1 0x0 DUP2 MLOAD DUP2 LT PUSH2 0x3C63 JUMPI PUSH2 0x3C62 PUSH2 0x4882 JUMP JUMPDEST JUMPDEST PUSH1 0x20 MUL PUSH1 0x20 ADD ADD SWAP1 PUSH20 0xFFFFFFFFFFFFFFFFFFFFFFFFFFFFFFFFFFFFFFFF AND SWAP1 DUP2 PUSH20 0xFFFFFFFFFFFFFFFFFFFFFFFFFFFFFFFFFFFFFFFF AND DUP2 MSTORE POP POP PUSH1 0x6 PUSH1 0x0 SWAP1 SLOAD SWAP1 PUSH2 0x100 EXP SWAP1 DIV PUSH20 0xFFFFFFFFFFFFFFFFFFFFFFFFFFFFFFFFFFFFFFFF AND PUSH20 0xFFFFFFFFFFFFFFFFFFFFFFFFFFFFFFFFFFFFFFFF AND PUSH4 0xAD5C4648 PUSH1 0x40 MLOAD DUP2 PUSH4 0xFFFFFFFF AND PUSH1 0xE0 SHL DUP2 MSTORE PUSH1 0x4 ADD PUSH1 0x20 PUSH1 0x40 MLOAD DUP1 DUP4 SUB DUP2 DUP7 DUP1 EXTCODESIZE ISZERO DUP1 ISZERO PUSH2 0x3D05 JUMPI PUSH1 0x0 DUP1 REVERT JUMPDEST POP GAS STATICCALL ISZERO DUP1 ISZERO PUSH2 0x3D19 JUMPI RETURNDATASIZE PUSH1 0x0 DUP1 RETURNDATACOPY RETURNDATASIZE PUSH1 0x0 REVERT JUMPDEST POP POP POP POP PUSH1 0x40 MLOAD RETURNDATASIZE PUSH1 0x1F NOT PUSH1 0x1F DUP3 ADD AND DUP3 ADD DUP1 PUSH1 0x40 MSTORE POP DUP2 ADD SWAP1 PUSH2 0x3D3D SWAP2 SWAP1 PUSH2 0x576B JUMP JUMPDEST DUP2 PUSH1 0x1 DUP2 MLOAD DUP2 LT PUSH2 0x3D51 JUMPI PUSH2 0x3D50 PUSH2 0x4882 JUMP JUMPDEST JUMPDEST PUSH1 0x20 MUL PUSH1 0x20 ADD ADD SWAP1 PUSH20 0xFFFFFFFFFFFFFFFFFFFFFFFFFFFFFFFFFFFFFFFF AND SWAP1 DUP2 PUSH20 0xFFFFFFFFFFFFFFFFFFFFFFFFFFFFFFFFFFFFFFFF AND DUP2 MSTORE POP POP PUSH1 0x9 PUSH1 0x0 SWAP1 SLOAD SWAP1 PUSH2 0x100 EXP SWAP1 DIV PUSH20 0xFFFFFFFFFFFFFFFFFFFFFFFFFFFFFFFFFFFFFFFF AND DUP2 PUSH1 0x2 DUP2 MLOAD DUP2 LT PUSH2 0x3DC2 JUMPI PUSH2 0x3DC1 PUSH2 0x4882 JUMP JUMPDEST JUMPDEST PUSH1 0x20 MUL PUSH1 0x20 ADD ADD SWAP1 PUSH20 0xFFFFFFFFFFFFFFFFFFFFFFFFFFFFFFFFFFFFFFFF AND SWAP1 DUP2 PUSH20 0xFFFFFFFFFFFFFFFFFFFFFFFFFFFFFFFFFFFFFFFF AND DUP2 MSTORE POP POP PUSH2 0x3E29 ADDRESS PUSH1 0x6 PUSH1 0x0 SWAP1 SLOAD SWAP1 PUSH2 0x100 EXP SWAP1 DIV PUSH20 0xFFFFFFFFFFFFFFFFFFFFFFFFFFFFFFFFFFFFFFFF AND DUP5 PUSH2 0x2AE7 JUMP JUMPDEST PUSH1 0x6 PUSH1 0x0 SWAP1 SLOAD SWAP1 PUSH2 0x100 EXP SWAP1 DIV PUSH20 0xFFFFFFFFFFFFFFFFFFFFFFFFFFFFFFFFFFFFFFFF AND PUSH20 0xFFFFFFFFFFFFFFFFFFFFFFFFFFFFFFFFFFFFFFFF AND PUSH4 0x5C11D795 DUP4 PUSH1 0x0 DUP5 ADDRESS TIMESTAMP PUSH1 0x40 MLOAD DUP7 PUSH4 0xFFFFFFFF AND PUSH1 0xE0 SHL DUP2 MSTORE PUSH1 0x4 ADD PUSH2 0x3E8D SWAP6 SWAP5 SWAP4 SWAP3 SWAP2 SWAP1 PUSH2 0x5859 JUMP JUMPDEST PUSH1 0x0 PUSH1 0x40 MLOAD DUP1 DUP4 SUB DUP2 PUSH1 0x0 DUP8 DUP1 EXTCODESIZE ISZERO DUP1 ISZERO PUSH2 0x3EA7 JUMPI PUSH1 0x0 DUP1 REVERT JUMPDEST POP GAS CALL ISZERO DUP1 ISZERO PUSH2 0x3EBB JUMPI RETURNDATASIZE PUSH1 0x0 DUP1 RETURNDATACOPY RETURNDATASIZE PUSH1 0x0 REVERT JUMPDEST POP POP POP POP POP POP JUMP JUMPDEST PUSH1 0x0 PUSH1 0x2 PUSH8 0xFFFFFFFFFFFFFFFF DUP2 GT ISZERO PUSH2 0x3EE0 JUMPI PUSH2 0x3EDF PUSH2 0x573C JUMP JUMPDEST JUMPDEST PUSH1 0x40 MLOAD SWAP1 DUP1 DUP3 MSTORE DUP1 PUSH1 0x20 MUL PUSH1 0x20 ADD DUP3 ADD PUSH1 0x40 MSTORE DUP1 ISZERO PUSH2 0x3F0E JUMPI DUP2 PUSH1 0x20 ADD PUSH1 0x20 DUP3 MUL DUP1 CALLDATASIZE DUP4 CALLDATACOPY DUP1 DUP3 ADD SWAP2 POP POP SWAP1 POP JUMPDEST POP SWAP1 POP ADDRESS DUP2 PUSH1 0x0 DUP2 MLOAD DUP2 LT PUSH2 0x3F26 JUMPI PUSH2 0x3F25 PUSH2 0x4882 JUMP JUMPDEST JUMPDEST PUSH1 0x20 MUL PUSH1 0x20 ADD ADD SWAP1 PUSH20 0xFFFFFFFFFFFFFFFFFFFFFFFFFFFFFFFFFFFFFFFF AND SWAP1 DUP2 PUSH20 0xFFFFFFFFFFFFFFFFFFFFFFFFFFFFFFFFFFFFFFFF AND DUP2 MSTORE POP POP PUSH1 0x6 PUSH1 0x0 SWAP1 SLOAD SWAP1 PUSH2 0x100 EXP SWAP1 DIV PUSH20 0xFFFFFFFFFFFFFFFFFFFFFFFFFFFFFFFFFFFFFFFF AND PUSH20 0xFFFFFFFFFFFFFFFFFFFFFFFFFFFFFFFFFFFFFFFF AND PUSH4 0xAD5C4648 PUSH1 0x40 MLOAD DUP2 PUSH4 0xFFFFFFFF AND PUSH1 0xE0 SHL DUP2 MSTORE PUSH1 0x4 ADD PUSH1 0x20 PUSH1 0x40 MLOAD DUP1 DUP4 SUB DUP2 DUP7 DUP1 EXTCODESIZE ISZERO DUP1 ISZERO PUSH2 0x3FC8 JUMPI PUSH1 0x0 DUP1 REVERT JUMPDEST POP GAS STATICCALL ISZERO DUP1 ISZERO PUSH2 0x3FDC JUMPI RETURNDATASIZE PUSH1 0x0 DUP1 RETURNDATACOPY RETURNDATASIZE PUSH1 0x0 REVERT JUMPDEST POP POP POP POP PUSH1 0x40 MLOAD RETURNDATASIZE PUSH1 0x1F NOT PUSH1 0x1F DUP3 ADD AND DUP3 ADD DUP1 PUSH1 0x40 MSTORE POP DUP2 ADD SWAP1 PUSH2 0x4000 SWAP2 SWAP1 PUSH2 0x576B JUMP JUMPDEST DUP2 PUSH1 0x1 DUP2 MLOAD DUP2 LT PUSH2 0x4014 JUMPI PUSH2 0x4013 PUSH2 0x4882 JUMP JUMPDEST JUMPDEST PUSH1 0x20 MUL PUSH1 0x20 ADD ADD SWAP1 PUSH20 0xFFFFFFFFFFFFFFFFFFFFFFFFFFFFFFFFFFFFFFFF AND SWAP1 DUP2 PUSH20 0xFFFFFFFFFFFFFFFFFFFFFFFFFFFFFFFFFFFFFFFF AND DUP2 MSTORE POP POP PUSH2 0x407B ADDRESS PUSH1 0x6 PUSH1 0x0 SWAP1 SLOAD SWAP1 PUSH2 0x100 EXP SWAP1 DIV PUSH20 0xFFFFFFFFFFFFFFFFFFFFFFFFFFFFFFFFFFFFFFFF AND DUP5 PUSH2 0x2AE7 JUMP JUMPDEST PUSH1 0x6 PUSH1 0x0 SWAP1 SLOAD SWAP1 PUSH2 0x100 EXP SWAP1 DIV PUSH20 0xFFFFFFFFFFFFFFFFFFFFFFFFFFFFFFFFFFFFFFFF AND PUSH20 0xFFFFFFFFFFFFFFFFFFFFFFFFFFFFFFFFFFFFFFFF AND PUSH4 0x791AC947 DUP4 PUSH1 0x0 DUP5 ADDRESS TIMESTAMP PUSH1 0x40 MLOAD DUP7 PUSH4 0xFFFFFFFF AND PUSH1 0xE0 SHL DUP2 MSTORE PUSH1 0x4 ADD PUSH2 0x40DF SWAP6 SWAP5 SWAP4 SWAP3 SWAP2 SWAP1 PUSH2 0x5859 JUMP JUMPDEST PUSH1 0x0 PUSH1 0x40 MLOAD DUP1 DUP4 SUB DUP2 PUSH1 0x0 DUP8 DUP1 EXTCODESIZE ISZERO DUP1 ISZERO PUSH2 0x40F9 JUMPI PUSH1 0x0 DUP1 REVERT JUMPDEST POP GAS CALL ISZERO DUP1 ISZERO PUSH2 0x410D JUMPI RETURNDATASIZE PUSH1 0x0 DUP1 RETURNDATACOPY RETURNDATASIZE PUSH1 0x0 REVERT JUMPDEST POP POP POP POP POP POP JUMP JUMPDEST PUSH2 0x4142 ADDRESS PUSH1 0x6 PUSH1 0x0 SWAP1 SLOAD SWAP1 PUSH2 0x100 EXP SWAP1 DIV PUSH20 0xFFFFFFFFFFFFFFFFFFFFFFFFFFFFFFFFFFFFFFFF AND DUP5 PUSH2 0x2AE7 JUMP JUMPDEST PUSH1 0x6 PUSH1 0x0 SWAP1 SLOAD SWAP1 PUSH2 0x100 EXP SWAP1 DIV PUSH20 0xFFFFFFFFFFFFFFFFFFFFFFFFFFFFFFFFFFFFFFFF AND PUSH20 0xFFFFFFFFFFFFFFFFFFFFFFFFFFFFFFFFFFFFFFFF AND PUSH4 0xF305D719 DUP3 ADDRESS DUP6 PUSH1 0x0 DUP1 PUSH2 0xDEAD TIMESTAMP PUSH1 0x40 MLOAD DUP9 PUSH4 0xFFFFFFFF AND PUSH1 0xE0 SHL DUP2 MSTORE PUSH1 0x4 ADD PUSH2 0x41AB SWAP7 SWAP6 SWAP5 SWAP4 SWAP3 SWAP2 SWAP1 PUSH2 0x58B3 JUMP JUMPDEST PUSH1 0x60 PUSH1 0x40 MLOAD DUP1 DUP4 SUB DUP2 DUP6 DUP9 DUP1 EXTCODESIZE ISZERO DUP1 ISZERO PUSH2 0x41C4 JUMPI PUSH1 0x0 DUP1 REVERT JUMPDEST POP GAS CALL ISZERO DUP1 ISZERO PUSH2 0x41D8 JUMPI RETURNDATASIZE PUSH1 0x0 DUP1 RETURNDATACOPY RETURNDATASIZE PUSH1 0x0 REVERT JUMPDEST POP POP POP POP POP PUSH1 0x40 MLOAD RETURNDATASIZE PUSH1 0x1F NOT PUSH1 0x1F DUP3 ADD AND DUP3 ADD DUP1 PUSH1 0x40 MSTORE POP DUP2 ADD SWAP1 PUSH2 0x41FD SWAP2 SWAP1 PUSH2 0x4D5B JUMP JUMPDEST POP POP POP POP POP JUMP JUMPDEST PUSH1 0x0 DUP2 MLOAD SWAP1 POP SWAP2 SWAP1 POP JUMP JUMPDEST PUSH1 0x0 DUP3 DUP3 MSTORE PUSH1 0x20 DUP3 ADD SWAP1 POP SWAP3 SWAP2 POP POP JUMP JUMPDEST PUSH1 0x0 JUMPDEST DUP4 DUP2 LT ISZERO PUSH2 0x423E JUMPI DUP1 DUP3 ADD MLOAD DUP2 DUP5 ADD MSTORE PUSH1 0x20 DUP2 ADD SWAP1 POP PUSH2 0x4223 JUMP JUMPDEST DUP4 DUP2 GT ISZERO PUSH2 0x424D JUMPI PUSH1 0x0 DUP5 DUP5 ADD MSTORE JUMPDEST POP POP POP POP JUMP JUMPDEST PUSH1 0x0 PUSH1 0x1F NOT PUSH1 0x1F DUP4 ADD AND SWAP1 POP SWAP2 SWAP1 POP JUMP JUMPDEST PUSH1 0x0 PUSH2 0x426F DUP3 PUSH2 0x4204 JUMP JUMPDEST PUSH2 0x4279 DUP2 DUP6 PUSH2 0x420F JUMP JUMPDEST SWAP4 POP PUSH2 0x4289 DUP2 DUP6 PUSH1 0x20 DUP7 ADD PUSH2 0x4220 JUMP JUMPDEST PUSH2 0x4292 DUP2 PUSH2 0x4253 JUMP JUMPDEST DUP5 ADD SWAP2 POP POP SWAP3 SWAP2 POP POP JUMP JUMPDEST PUSH1 0x0 PUSH1 0x20 DUP3 ADD SWAP1 POP DUP2 DUP2 SUB PUSH1 0x0 DUP4 ADD MSTORE PUSH2 0x42B7 DUP2 DUP5 PUSH2 0x4264 JUMP JUMPDEST SWAP1 POP SWAP3 SWAP2 POP POP JUMP JUMPDEST PUSH1 0x0 DUP1 REVERT JUMPDEST PUSH1 0x0 DUP1 REVERT JUMPDEST PUSH1 0x0 PUSH20 0xFFFFFFFFFFFFFFFFFFFFFFFFFFFFFFFFFFFFFFFF DUP3 AND SWAP1 POP SWAP2 SWAP1 POP JUMP JUMPDEST PUSH1 0x0 PUSH2 0x42F4 DUP3 PUSH2 0x42C9 JUMP JUMPDEST SWAP1 POP SWAP2 SWAP1 POP JUMP JUMPDEST PUSH2 0x4304 DUP2 PUSH2 0x42E9 JUMP JUMPDEST DUP2 EQ PUSH2 0x430F JUMPI PUSH1 0x0 DUP1 REVERT JUMPDEST POP JUMP JUMPDEST PUSH1 0x0 DUP2 CALLDATALOAD SWAP1 POP PUSH2 0x4321 DUP2 PUSH2 0x42FB JUMP JUMPDEST SWAP3 SWAP2 POP POP JUMP JUMPDEST PUSH1 0x0 DUP2 SWAP1 POP SWAP2 SWAP1 POP JUMP JUMPDEST PUSH2 0x433A DUP2 PUSH2 0x4327 JUMP JUMPDEST DUP2 EQ PUSH2 0x4345 JUMPI PUSH1 0x0 DUP1 REVERT JUMPDEST POP JUMP JUMPDEST PUSH1 0x0 DUP2 CALLDATALOAD SWAP1 POP PUSH2 0x4357 DUP2 PUSH2 0x4331 JUMP JUMPDEST SWAP3 SWAP2 POP POP JUMP JUMPDEST PUSH1 0x0 DUP1 PUSH1 0x40 DUP4 DUP6 SUB SLT ISZERO PUSH2 0x4374 JUMPI PUSH2 0x4373 PUSH2 0x42BF JUMP JUMPDEST JUMPDEST PUSH1 0x0 PUSH2 0x4382 DUP6 DUP3 DUP7 ADD PUSH2 0x4312 JUMP JUMPDEST SWAP3 POP POP PUSH1 0x20 PUSH2 0x4393 DUP6 DUP3 DUP7 ADD PUSH2 0x4348 JUMP JUMPDEST SWAP2 POP POP SWAP3 POP SWAP3 SWAP1 POP JUMP JUMPDEST PUSH1 0x0 DUP2 ISZERO ISZERO SWAP1 POP SWAP2 SWAP1 POP JUMP JUMPDEST PUSH2 0x43B2 DUP2 PUSH2 0x439D JUMP JUMPDEST DUP3 MSTORE POP POP JUMP JUMPDEST PUSH1 0x0 PUSH1 0x20 DUP3 ADD SWAP1 POP PUSH2 0x43CD PUSH1 0x0 DUP4 ADD DUP5 PUSH2 0x43A9 JUMP JUMPDEST SWAP3 SWAP2 POP POP JUMP JUMPDEST PUSH1 0x0 DUP1 REVERT JUMPDEST PUSH1 0x0 DUP1 REVERT JUMPDEST PUSH1 0x0 DUP1 REVERT JUMPDEST PUSH1 0x0 DUP1 DUP4 PUSH1 0x1F DUP5 ADD SLT PUSH2 0x43F8 JUMPI PUSH2 0x43F7 PUSH2 0x43D3 JUMP JUMPDEST JUMPDEST DUP3 CALLDATALOAD SWAP1 POP PUSH8 0xFFFFFFFFFFFFFFFF DUP2 GT ISZERO PUSH2 0x4415 JUMPI PUSH2 0x4414 PUSH2 0x43D8 JUMP JUMPDEST JUMPDEST PUSH1 0x20 DUP4 ADD SWAP2 POP DUP4 PUSH1 0x20 DUP3 MUL DUP4 ADD GT ISZERO PUSH2 0x4431 JUMPI PUSH2 0x4430 PUSH2 0x43DD JUMP JUMPDEST JUMPDEST SWAP3 POP SWAP3 SWAP1 POP JUMP JUMPDEST PUSH1 0x0 DUP1 PUSH1 0x20 DUP4 DUP6 SUB SLT ISZERO PUSH2 0x444F JUMPI PUSH2 0x444E PUSH2 0x42BF JUMP JUMPDEST JUMPDEST PUSH1 0x0 DUP4 ADD CALLDATALOAD PUSH8 0xFFFFFFFFFFFFFFFF DUP2 GT ISZERO PUSH2 0x446D JUMPI PUSH2 0x446C PUSH2 0x42C4 JUMP JUMPDEST JUMPDEST PUSH2 0x4479 DUP6 DUP3 DUP7 ADD PUSH2 0x43E2 JUMP JUMPDEST SWAP3 POP SWAP3 POP POP SWAP3 POP SWAP3 SWAP1 POP JUMP JUMPDEST PUSH1 0x0 PUSH1 0x20 DUP3 DUP5 SUB SLT ISZERO PUSH2 0x449B JUMPI PUSH2 0x449A PUSH2 0x42BF JUMP JUMPDEST JUMPDEST PUSH1 0x0 PUSH2 0x44A9 DUP5 DUP3 DUP6 ADD PUSH2 0x4348 JUMP JUMPDEST SWAP2 POP POP SWAP3 SWAP2 POP POP JUMP JUMPDEST PUSH2 0x44BB DUP2 PUSH2 0x4327 JUMP JUMPDEST DUP3 MSTORE POP POP JUMP JUMPDEST PUSH1 0x0 PUSH1 0x20 DUP3 ADD SWAP1 POP PUSH2 0x44D6 PUSH1 0x0 DUP4 ADD DUP5 PUSH2 0x44B2 JUMP JUMPDEST SWAP3 SWAP2 POP POP JUMP JUMPDEST PUSH1 0x0 DUP2 SWAP1 POP SWAP2 SWAP1 POP JUMP JUMPDEST PUSH1 0x0 PUSH2 0x4501 PUSH2 0x44FC PUSH2 0x44F7 DUP5 PUSH2 0x42C9 JUMP JUMPDEST PUSH2 0x44DC JUMP JUMPDEST PUSH2 0x42C9 JUMP JUMPDEST SWAP1 POP SWAP2 SWAP1 POP JUMP JUMPDEST PUSH1 0x0 PUSH2 0x4513 DUP3 PUSH2 0x44E6 JUMP JUMPDEST SWAP1 POP SWAP2 SWAP1 POP JUMP JUMPDEST PUSH1 0x0 PUSH2 0x4525 DUP3 PUSH2 0x4508 JUMP JUMPDEST SWAP1 POP SWAP2 SWAP1 POP JUMP JUMPDEST PUSH2 0x4535 DUP2 PUSH2 0x451A JUMP JUMPDEST DUP3 MSTORE POP POP JUMP JUMPDEST PUSH1 0x0 PUSH1 0x20 DUP3 ADD SWAP1 POP PUSH2 0x4550 PUSH1 0x0 DUP4 ADD DUP5 PUSH2 0x452C JUMP JUMPDEST SWAP3 SWAP2 POP POP JUMP JUMPDEST PUSH1 0x0 DUP1 PUSH1 0x0 PUSH1 0x60 DUP5 DUP7 SUB SLT ISZERO PUSH2 0x456F JUMPI PUSH2 0x456E PUSH2 0x42BF JUMP JUMPDEST JUMPDEST PUSH1 0x0 PUSH2 0x457D DUP7 DUP3 DUP8 ADD PUSH2 0x4312 JUMP JUMPDEST SWAP4 POP POP PUSH1 0x20 PUSH2 0x458E DUP7 DUP3 DUP8 ADD PUSH2 0x4312 JUMP JUMPDEST SWAP3 POP POP PUSH1 0x40 PUSH2 0x459F DUP7 DUP3 DUP8 ADD PUSH2 0x4348 JUMP JUMPDEST SWAP2 POP POP SWAP3 POP SWAP3 POP SWAP3 JUMP JUMPDEST PUSH1 0x0 PUSH2 0x45B4 DUP3 PUSH2 0x4508 JUMP JUMPDEST SWAP1 POP SWAP2 SWAP1 POP JUMP JUMPDEST PUSH2 0x45C4 DUP2 PUSH2 0x45A9 JUMP JUMPDEST DUP3 MSTORE POP POP JUMP JUMPDEST PUSH1 0x0 PUSH1 0x20 DUP3 ADD SWAP1 POP PUSH2 0x45DF PUSH1 0x0 DUP4 ADD DUP5 PUSH2 0x45BB JUMP JUMPDEST SWAP3 SWAP2 POP POP JUMP JUMPDEST PUSH1 0x0 PUSH1 0xFF DUP3 AND SWAP1 POP SWAP2 SWAP1 POP JUMP JUMPDEST PUSH2 0x45FB DUP2 PUSH2 0x45E5 JUMP JUMPDEST DUP3 MSTORE POP POP JUMP JUMPDEST PUSH1 0x0 PUSH1 0x20 DUP3 ADD SWAP1 POP PUSH2 0x4616 PUSH1 0x0 DUP4 ADD DUP5 PUSH2 0x45F2 JUMP JUMPDEST SWAP3 SWAP2 POP POP JUMP JUMPDEST PUSH1 0x0 PUSH1 0x20 DUP3 DUP5 SUB SLT ISZERO PUSH2 0x4632 JUMPI PUSH2 0x4631 PUSH2 0x42BF JUMP JUMPDEST JUMPDEST PUSH1 0x0 PUSH2 0x4640 DUP5 DUP3 DUP6 ADD PUSH2 0x4312 JUMP JUMPDEST SWAP2 POP POP SWAP3 SWAP2 POP POP JUMP JUMPDEST PUSH2 0x4652 DUP2 PUSH2 0x42E9 JUMP JUMPDEST DUP3 MSTORE POP POP JUMP JUMPDEST PUSH1 0x0 PUSH1 0x20 DUP3 ADD SWAP1 POP PUSH2 0x466D PUSH1 0x0 DUP4 ADD DUP5 PUSH2 0x4649 JUMP JUMPDEST SWAP3 SWAP2 POP POP JUMP JUMPDEST PUSH1 0x0 PUSH2 0x467E DUP3 PUSH2 0x42C9 JUMP JUMPDEST SWAP1 POP SWAP2 SWAP1 POP JUMP JUMPDEST PUSH2 0x468E DUP2 PUSH2 0x4673 JUMP JUMPDEST DUP2 EQ PUSH2 0x4699 JUMPI PUSH1 0x0 DUP1 REVERT JUMPDEST POP JUMP JUMPDEST PUSH1 0x0 DUP2 CALLDATALOAD SWAP1 POP PUSH2 0x46AB DUP2 PUSH2 0x4685 JUMP JUMPDEST SWAP3 SWAP2 POP POP JUMP JUMPDEST PUSH1 0x0 PUSH1 0x20 DUP3 DUP5 SUB SLT ISZERO PUSH2 0x46C7 JUMPI PUSH2 0x46C6 PUSH2 0x42BF JUMP JUMPDEST JUMPDEST PUSH1 0x0 PUSH2 0x46D5 DUP5 DUP3 DUP6 ADD PUSH2 0x469C JUMP JUMPDEST SWAP2 POP POP SWAP3 SWAP2 POP POP JUMP JUMPDEST PUSH1 0x0 DUP2 SWAP1 POP SWAP2 SWAP1 POP JUMP JUMPDEST PUSH2 0x46F1 DUP2 PUSH2 0x46DE JUMP JUMPDEST DUP3 MSTORE POP POP JUMP JUMPDEST PUSH1 0x0 PUSH2 0x100 DUP3 ADD SWAP1 POP PUSH2 0x470D PUSH1 0x0 DUP4 ADD DUP12 PUSH2 0x4649 JUMP JUMPDEST PUSH2 0x471A PUSH1 0x20 DUP4 ADD DUP11 PUSH2 0x46E8 JUMP JUMPDEST PUSH2 0x4727 PUSH1 0x40 DUP4 ADD DUP10 PUSH2 0x46E8 JUMP JUMPDEST PUSH2 0x4734 PUSH1 0x60 DUP4 ADD DUP9 PUSH2 0x44B2 JUMP JUMPDEST PUSH2 0x4741 PUSH1 0x80 DUP4 ADD DUP8 PUSH2 0x44B2 JUMP JUMPDEST PUSH2 0x474E PUSH1 0xA0 DUP4 ADD DUP7 PUSH2 0x44B2 JUMP JUMPDEST PUSH2 0x475B PUSH1 0xC0 DUP4 ADD DUP6 PUSH2 0x44B2 JUMP JUMPDEST PUSH2 0x4768 PUSH1 0xE0 DUP4 ADD DUP5 PUSH2 0x44B2 JUMP JUMPDEST SWAP10 SWAP9 POP POP POP POP POP POP POP POP POP JUMP JUMPDEST PUSH1 0x0 DUP1 PUSH1 0x40 DUP4 DUP6 SUB SLT ISZERO PUSH2 0x478C JUMPI PUSH2 0x478B PUSH2 0x42BF JUMP JUMPDEST JUMPDEST PUSH1 0x0 PUSH2 0x479A DUP6 DUP3 DUP7 ADD PUSH2 0x4312 JUMP JUMPDEST SWAP3 POP POP PUSH1 0x20 PUSH2 0x47AB DUP6 DUP3 DUP7 ADD PUSH2 0x4312 JUMP JUMPDEST SWAP2 POP POP SWAP3 POP SWAP3 SWAP1 POP JUMP JUMPDEST PUSH32 0x4E487B7100000000000000000000000000000000000000000000000000000000 PUSH1 0x0 MSTORE PUSH1 0x22 PUSH1 0x4 MSTORE PUSH1 0x24 PUSH1 0x0 REVERT JUMPDEST PUSH1 0x0 PUSH1 0x2 DUP3 DIV SWAP1 POP PUSH1 0x1 DUP3 AND DUP1 PUSH2 0x47FC JUMPI PUSH1 0x7F DUP3 AND SWAP2 POP JUMPDEST PUSH1 0x20 DUP3 LT DUP2 EQ ISZERO PUSH2 0x4810 JUMPI PUSH2 0x480F PUSH2 0x47B5 JUMP JUMPDEST JUMPDEST POP SWAP2 SWAP1 POP JUMP JUMPDEST PUSH32 0x4F776E61626C653A2063616C6C6572206973206E6F7420746865206F776E6572 PUSH1 0x0 DUP3 ADD MSTORE POP JUMP JUMPDEST PUSH1 0x0 PUSH2 0x484C PUSH1 0x20 DUP4 PUSH2 0x420F JUMP JUMPDEST SWAP2 POP PUSH2 0x4857 DUP3 PUSH2 0x4816 JUMP JUMPDEST PUSH1 0x20 DUP3 ADD SWAP1 POP SWAP2 SWAP1 POP JUMP JUMPDEST PUSH1 0x0 PUSH1 0x20 DUP3 ADD SWAP1 POP DUP2 DUP2 SUB PUSH1 0x0 DUP4 ADD MSTORE PUSH2 0x487B DUP2 PUSH2 0x483F JUMP JUMPDEST SWAP1 POP SWAP2 SWAP1 POP JUMP JUMPDEST PUSH32 0x4E487B7100000000000000000000000000000000000000000000000000000000 PUSH1 0x0 MSTORE PUSH1 0x32 PUSH1 0x4 MSTORE PUSH1 0x24 PUSH1 0x0 REVERT JUMPDEST PUSH32 0x4E487B7100000000000000000000000000000000000000000000000000000000 PUSH1 0x0 MSTORE PUSH1 0x11 PUSH1 0x4 MSTORE PUSH1 0x24 PUSH1 0x0 REVERT JUMPDEST PUSH1 0x0 PUSH2 0x48EB DUP3 PUSH2 0x4327 JUMP JUMPDEST SWAP2 POP PUSH32 0xFFFFFFFFFFFFFFFFFFFFFFFFFFFFFFFFFFFFFFFFFFFFFFFFFFFFFFFFFFFFFFFF DUP3 EQ ISZERO PUSH2 0x491E JUMPI PUSH2 0x491D PUSH2 0x48B1 JUMP JUMPDEST JUMPDEST PUSH1 0x1 DUP3 ADD SWAP1 POP SWAP2 SWAP1 POP JUMP JUMPDEST PUSH1 0x0 DUP3 DUP3 MSTORE PUSH1 0x20 DUP3 ADD SWAP1 POP SWAP3 SWAP2 POP POP JUMP JUMPDEST PUSH1 0x0 DUP2 SWAP1 POP SWAP2 SWAP1 POP JUMP JUMPDEST PUSH2 0x494D DUP2 PUSH2 0x42E9 JUMP JUMPDEST DUP3 MSTORE POP POP JUMP JUMPDEST PUSH1 0x0 PUSH2 0x495F DUP4 DUP4 PUSH2 0x4944 JUMP JUMPDEST PUSH1 0x20 DUP4 ADD SWAP1 POP SWAP3 SWAP2 POP POP JUMP JUMPDEST PUSH1 0x0 PUSH2 0x497A PUSH1 0x20 DUP5 ADD DUP5 PUSH2 0x4312 JUMP JUMPDEST SWAP1 POP SWAP3 SWAP2 POP POP JUMP JUMPDEST PUSH1 0x0 PUSH1 0x20 DUP3 ADD SWAP1 POP SWAP2 SWAP1 POP JUMP JUMPDEST PUSH1 0x0 PUSH2 0x499B DUP4 DUP6 PUSH2 0x4929 JUMP JUMPDEST SWAP4 POP PUSH2 0x49A6 DUP3 PUSH2 0x493A JUMP JUMPDEST DUP1 PUSH1 0x0 JUMPDEST DUP6 DUP2 LT ISZERO PUSH2 0x49DF JUMPI PUSH2 0x49BC DUP3 DUP5 PUSH2 0x496B JUMP JUMPDEST PUSH2 0x49C6 DUP9 DUP3 PUSH2 0x4953 JUMP JUMPDEST SWAP8 POP PUSH2 0x49D1 DUP4 PUSH2 0x4982 JUMP JUMPDEST SWAP3 POP POP PUSH1 0x1 DUP2 ADD SWAP1 POP PUSH2 0x49AA JUMP JUMPDEST POP DUP6 SWAP3 POP POP POP SWAP4 SWAP3 POP POP POP JUMP JUMPDEST PUSH1 0x0 PUSH1 0x20 DUP3 ADD SWAP1 POP DUP2 DUP2 SUB PUSH1 0x0 DUP4 ADD MSTORE PUSH2 0x4A07 DUP2 DUP5 DUP7 PUSH2 0x498F JUMP JUMPDEST SWAP1 POP SWAP4 SWAP3 POP POP POP JUMP JUMPDEST PUSH32 0x45524332303A207472616E7366657220616D6F756E7420657863656564732061 PUSH1 0x0 DUP3 ADD MSTORE PUSH32 0x6C6C6F77616E6365000000000000000000000000000000000000000000000000 PUSH1 0x20 DUP3 ADD MSTORE POP JUMP JUMPDEST PUSH1 0x0 PUSH2 0x4A6C PUSH1 0x28 DUP4 PUSH2 0x420F JUMP JUMPDEST SWAP2 POP PUSH2 0x4A77 DUP3 PUSH2 0x4A10 JUMP JUMPDEST PUSH1 0x40 DUP3 ADD SWAP1 POP SWAP2 SWAP1 POP JUMP JUMPDEST PUSH1 0x0 PUSH1 0x20 DUP3 ADD SWAP1 POP DUP2 DUP2 SUB PUSH1 0x0 DUP4 ADD MSTORE PUSH2 0x4A9B DUP2 PUSH2 0x4A5F JUMP JUMPDEST SWAP1 POP SWAP2 SWAP1 POP JUMP JUMPDEST PUSH1 0x0 DUP2 MLOAD SWAP1 POP PUSH2 0x4AB1 DUP2 PUSH2 0x4331 JUMP JUMPDEST SWAP3 SWAP2 POP POP JUMP JUMPDEST PUSH1 0x0 PUSH1 0x20 DUP3 DUP5 SUB SLT ISZERO PUSH2 0x4ACD JUMPI PUSH2 0x4ACC PUSH2 0x42BF JUMP JUMPDEST JUMPDEST PUSH1 0x0 PUSH2 0x4ADB DUP5 DUP3 DUP6 ADD PUSH2 0x4AA2 JUMP JUMPDEST SWAP2 POP POP SWAP3 SWAP2 POP POP JUMP JUMPDEST PUSH1 0x0 PUSH2 0x4AEF DUP3 PUSH2 0x4327 JUMP JUMPDEST SWAP2 POP PUSH2 0x4AFA DUP4 PUSH2 0x4327 JUMP JUMPDEST SWAP3 POP DUP3 PUSH32 0xFFFFFFFFFFFFFFFFFFFFFFFFFFFFFFFFFFFFFFFFFFFFFFFFFFFFFFFFFFFFFFFF SUB DUP3 GT ISZERO PUSH2 0x4B2F JUMPI PUSH2 0x4B2E PUSH2 0x48B1 JUMP JUMPDEST JUMPDEST DUP3 DUP3 ADD SWAP1 POP SWAP3 SWAP2 POP POP JUMP JUMPDEST PUSH2 0x4B43 DUP2 PUSH2 0x4673 JUMP JUMPDEST DUP3 MSTORE POP POP JUMP JUMPDEST PUSH1 0x0 PUSH1 0x40 DUP3 ADD SWAP1 POP PUSH2 0x4B5E PUSH1 0x0 DUP4 ADD DUP6 PUSH2 0x4B3A JUMP JUMPDEST PUSH2 0x4B6B PUSH1 0x20 DUP4 ADD DUP5 PUSH2 0x43A9 JUMP JUMPDEST SWAP4 SWAP3 POP POP POP JUMP JUMPDEST PUSH2 0x4B7B DUP2 PUSH2 0x439D JUMP JUMPDEST DUP2 EQ PUSH2 0x4B86 JUMPI PUSH1 0x0 DUP1 REVERT JUMPDEST POP JUMP JUMPDEST PUSH1 0x0 DUP2 MLOAD SWAP1 POP PUSH2 0x4B98 DUP2 PUSH2 0x4B72 JUMP JUMPDEST SWAP3 SWAP2 POP POP JUMP JUMPDEST PUSH1 0x0 PUSH1 0x20 DUP3 DUP5 SUB SLT ISZERO PUSH2 0x4BB4 JUMPI PUSH2 0x4BB3 PUSH2 0x42BF JUMP JUMPDEST JUMPDEST PUSH1 0x0 PUSH2 0x4BC2 DUP5 DUP3 DUP6 ADD PUSH2 0x4B89 JUMP JUMPDEST SWAP2 POP POP SWAP3 SWAP2 POP POP JUMP JUMPDEST PUSH32 0x546F74616C20666565206973206F766572203235250000000000000000000000 PUSH1 0x0 DUP3 ADD MSTORE POP JUMP JUMPDEST PUSH1 0x0 PUSH2 0x4C01 PUSH1 0x15 DUP4 PUSH2 0x420F JUMP JUMPDEST SWAP2 POP PUSH2 0x4C0C DUP3 PUSH2 0x4BCB JUMP JUMPDEST PUSH1 0x20 DUP3 ADD SWAP1 POP SWAP2 SWAP1 POP JUMP JUMPDEST PUSH1 0x0 PUSH1 0x20 DUP3 ADD SWAP1 POP DUP2 DUP2 SUB PUSH1 0x0 DUP4 ADD MSTORE PUSH2 0x4C30 DUP2 PUSH2 0x4BF4 JUMP JUMPDEST SWAP1 POP SWAP2 SWAP1 POP JUMP JUMPDEST PUSH32 0x42414259544F4B454E3A20546865206D61726B6574696E672077616C6C657420 PUSH1 0x0 DUP3 ADD MSTORE PUSH32 0x63616E6E6F74206265207468652076616C7565206F66207A65726F0000000000 PUSH1 0x20 DUP3 ADD MSTORE POP JUMP JUMPDEST PUSH1 0x0 PUSH2 0x4C93 PUSH1 0x3B DUP4 PUSH2 0x420F JUMP JUMPDEST SWAP2 POP PUSH2 0x4C9E DUP3 PUSH2 0x4C37 JUMP JUMPDEST PUSH1 0x40 DUP3 ADD SWAP1 POP SWAP2 SWAP1 POP JUMP JUMPDEST PUSH1 0x0 PUSH1 0x20 DUP3 ADD SWAP1 POP DUP2 DUP2 SUB PUSH1 0x0 DUP4 ADD MSTORE PUSH2 0x4CC2 DUP2 PUSH2 0x4C86 JUMP JUMPDEST SWAP1 POP SWAP2 SWAP1 POP JUMP JUMPDEST PUSH32 0x4D61726B6574696E672077616C6C65742063616E6E6F74206265206120636F6E PUSH1 0x0 DUP3 ADD MSTORE PUSH32 0x7472616374000000000000000000000000000000000000000000000000000000 PUSH1 0x20 DUP3 ADD MSTORE POP JUMP JUMPDEST PUSH1 0x0 PUSH2 0x4D25 PUSH1 0x25 DUP4 PUSH2 0x420F JUMP JUMPDEST SWAP2 POP PUSH2 0x4D30 DUP3 PUSH2 0x4CC9 JUMP JUMPDEST PUSH1 0x40 DUP3 ADD SWAP1 POP SWAP2 SWAP1 POP JUMP JUMPDEST PUSH1 0x0 PUSH1 0x20 DUP3 ADD SWAP1 POP DUP2 DUP2 SUB PUSH1 0x0 DUP4 ADD MSTORE PUSH2 0x4D54 DUP2 PUSH2 0x4D18 JUMP JUMPDEST SWAP1 POP SWAP2 SWAP1 POP JUMP JUMPDEST PUSH1 0x0 DUP1 PUSH1 0x0 PUSH1 0x60 DUP5 DUP7 SUB SLT ISZERO PUSH2 0x4D74 JUMPI PUSH2 0x4D73 PUSH2 0x42BF JUMP JUMPDEST JUMPDEST PUSH1 0x0 PUSH2 0x4D82 DUP7 DUP3 DUP8 ADD PUSH2 0x4AA2 JUMP JUMPDEST SWAP4 POP POP PUSH1 0x20 PUSH2 0x4D93 DUP7 DUP3 DUP8 ADD PUSH2 0x4AA2 JUMP JUMPDEST SWAP3 POP POP PUSH1 0x40 PUSH2 0x4DA4 DUP7 DUP3 DUP8 ADD PUSH2 0x4AA2 JUMP JUMPDEST SWAP2 POP POP SWAP3 POP SWAP3 POP SWAP3 JUMP JUMPDEST PUSH1 0x0 PUSH1 0x80 DUP3 ADD SWAP1 POP PUSH2 0x4DC3 PUSH1 0x0 DUP4 ADD DUP8 PUSH2 0x44B2 JUMP JUMPDEST PUSH2 0x4DD0 PUSH1 0x20 DUP4 ADD DUP7 PUSH2 0x44B2 JUMP JUMPDEST PUSH2 0x4DDD PUSH1 0x40 DUP4 ADD DUP6 PUSH2 0x44B2 JUMP JUMPDEST PUSH2 0x4DEA PUSH1 0x60 DUP4 ADD DUP5 PUSH2 0x44B2 JUMP JUMPDEST SWAP6 SWAP5 POP POP POP POP POP JUMP JUMPDEST PUSH32 0x42414259544F4B454E3A20676173466F7250726F63657373696E67206D757374 PUSH1 0x0 DUP3 ADD MSTORE PUSH32 0x206265206265747765656E203230302C30303020616E64203530302C30303000 PUSH1 0x20 DUP3 ADD MSTORE POP JUMP JUMPDEST PUSH1 0x0 PUSH2 0x4E4F PUSH1 0x3F DUP4 PUSH2 0x420F JUMP JUMPDEST SWAP2 POP PUSH2 0x4E5A DUP3 PUSH2 0x4DF3 JUMP JUMPDEST PUSH1 0x40 DUP3 ADD SWAP1 POP SWAP2 SWAP1 POP JUMP JUMPDEST PUSH1 0x0 PUSH1 0x20 DUP3 ADD SWAP1 POP DUP2 DUP2 SUB PUSH1 0x0 DUP4 ADD MSTORE PUSH2 0x4E7E DUP2 PUSH2 0x4E42 JUMP JUMPDEST SWAP1 POP SWAP2 SWAP1 POP JUMP JUMPDEST PUSH32 0x42414259544F4B454E3A2043616E6E6F742075706461746520676173466F7250 PUSH1 0x0 DUP3 ADD MSTORE PUSH32 0x726F63657373696E6720746F2073616D652076616C7565000000000000000000 PUSH1 0x20 DUP3 ADD MSTORE POP JUMP JUMPDEST PUSH1 0x0 PUSH2 0x4EE1 PUSH1 0x37 DUP4 PUSH2 0x420F JUMP JUMPDEST SWAP2 POP PUSH2 0x4EEC DUP3 PUSH2 0x4E85 JUMP JUMPDEST PUSH1 0x40 DUP3 ADD SWAP1 POP SWAP2 SWAP1 POP JUMP JUMPDEST PUSH1 0x0 PUSH1 0x20 DUP3 ADD SWAP1 POP DUP2 DUP2 SUB PUSH1 0x0 DUP4 ADD MSTORE PUSH2 0x4F10 DUP2 PUSH2 0x4ED4 JUMP JUMPDEST SWAP1 POP SWAP2 SWAP1 POP JUMP JUMPDEST PUSH32 0x45524332303A2064656372656173656420616C6C6F77616E63652062656C6F77 PUSH1 0x0 DUP3 ADD MSTORE PUSH32 0x207A65726F000000000000000000000000000000000000000000000000000000 PUSH1 0x20 DUP3 ADD MSTORE POP JUMP JUMPDEST PUSH1 0x0 PUSH2 0x4F73 PUSH1 0x25 DUP4 PUSH2 0x420F JUMP JUMPDEST SWAP2 POP PUSH2 0x4F7E DUP3 PUSH2 0x4F17 JUMP JUMPDEST PUSH1 0x40 DUP3 ADD SWAP1 POP SWAP2 SWAP1 POP JUMP JUMPDEST PUSH1 0x0 PUSH1 0x20 DUP3 ADD SWAP1 POP DUP2 DUP2 SUB PUSH1 0x0 DUP4 ADD MSTORE PUSH2 0x4FA2 DUP2 PUSH2 0x4F66 JUMP JUMPDEST SWAP1 POP SWAP2 SWAP1 POP JUMP JUMPDEST PUSH1 0x0 DUP2 MLOAD SWAP1 POP PUSH2 0x4FB8 DUP2 PUSH2 0x42FB JUMP JUMPDEST SWAP3 SWAP2 POP POP JUMP JUMPDEST PUSH2 0x4FC7 DUP2 PUSH2 0x46DE JUMP JUMPDEST DUP2 EQ PUSH2 0x4FD2 JUMPI PUSH1 0x0 DUP1 REVERT JUMPDEST POP JUMP JUMPDEST PUSH1 0x0 DUP2 MLOAD SWAP1 POP PUSH2 0x4FE4 DUP2 PUSH2 0x4FBE JUMP JUMPDEST SWAP3 SWAP2 POP POP JUMP JUMPDEST PUSH1 0x0 DUP1 PUSH1 0x0 DUP1 PUSH1 0x0 DUP1 PUSH1 0x0 DUP1 PUSH2 0x100 DUP10 DUP12 SUB SLT ISZERO PUSH2 0x500B JUMPI PUSH2 0x500A PUSH2 0x42BF JUMP JUMPDEST JUMPDEST PUSH1 0x0 PUSH2 0x5019 DUP12 DUP3 DUP13 ADD PUSH2 0x4FA9 JUMP JUMPDEST SWAP9 POP POP PUSH1 0x20 PUSH2 0x502A DUP12 DUP3 DUP13 ADD PUSH2 0x4FD5 JUMP JUMPDEST SWAP8 POP POP PUSH1 0x40 PUSH2 0x503B DUP12 DUP3 DUP13 ADD PUSH2 0x4FD5 JUMP JUMPDEST SWAP7 POP POP PUSH1 0x60 PUSH2 0x504C DUP12 DUP3 DUP13 ADD PUSH2 0x4AA2 JUMP JUMPDEST SWAP6 POP POP PUSH1 0x80 PUSH2 0x505D DUP12 DUP3 DUP13 ADD PUSH2 0x4AA2 JUMP JUMPDEST SWAP5 POP POP PUSH1 0xA0 PUSH2 0x506E DUP12 DUP3 DUP13 ADD PUSH2 0x4AA2 JUMP JUMPDEST SWAP4 POP POP PUSH1 0xC0 PUSH2 0x507F DUP12 DUP3 DUP13 ADD PUSH2 0x4AA2 JUMP JUMPDEST SWAP3 POP POP PUSH1 0xE0 PUSH2 0x5090 DUP12 DUP3 DUP13 ADD PUSH2 0x4AA2 JUMP JUMPDEST SWAP2 POP POP SWAP3 SWAP6 SWAP9 POP SWAP3 SWAP6 SWAP9 SWAP1 SWAP4 SWAP7 POP JUMP JUMPDEST PUSH32 0x4E487B7100000000000000000000000000000000000000000000000000000000 PUSH1 0x0 MSTORE PUSH1 0x12 PUSH1 0x4 MSTORE PUSH1 0x24 PUSH1 0x0 REVERT JUMPDEST PUSH1 0x0 PUSH2 0x50DA DUP3 PUSH2 0x4327 JUMP JUMPDEST SWAP2 POP PUSH2 0x50E5 DUP4 PUSH2 0x4327 JUMP JUMPDEST SWAP3 POP DUP3 PUSH2 0x50F5 JUMPI PUSH2 0x50F4 PUSH2 0x50A0 JUMP JUMPDEST JUMPDEST DUP3 DUP3 DIV SWAP1 POP SWAP3 SWAP2 POP POP JUMP JUMPDEST PUSH32 0x42414259544F4B454E3A20416D6F756E74206D75737420626520677265617465 PUSH1 0x0 DUP3 ADD MSTORE PUSH32 0x72207468616E20302E30303125206F6620746F74616C20737570706C79000000 PUSH1 0x20 DUP3 ADD MSTORE POP JUMP JUMPDEST PUSH1 0x0 PUSH2 0x515C PUSH1 0x3D DUP4 PUSH2 0x420F JUMP JUMPDEST SWAP2 POP PUSH2 0x5167 DUP3 PUSH2 0x5100 JUMP JUMPDEST PUSH1 0x40 DUP3 ADD SWAP1 POP SWAP2 SWAP1 POP JUMP JUMPDEST PUSH1 0x0 PUSH1 0x20 DUP3 ADD SWAP1 POP DUP2 DUP2 SUB PUSH1 0x0 DUP4 ADD MSTORE PUSH2 0x518B DUP2 PUSH2 0x514F JUMP JUMPDEST SWAP1 POP SWAP2 SWAP1 POP JUMP JUMPDEST PUSH32 0x42414259544F4B454E3A204163636F756E7420697320616C7265616479206578 PUSH1 0x0 DUP3 ADD MSTORE PUSH32 0x636C756465640000000000000000000000000000000000000000000000000000 PUSH1 0x20 DUP3 ADD MSTORE POP JUMP JUMPDEST PUSH1 0x0 PUSH2 0x51EE PUSH1 0x26 DUP4 PUSH2 0x420F JUMP JUMPDEST SWAP2 POP PUSH2 0x51F9 DUP3 PUSH2 0x5192 JUMP JUMPDEST PUSH1 0x40 DUP3 ADD SWAP1 POP SWAP2 SWAP1 POP JUMP JUMPDEST PUSH1 0x0 PUSH1 0x20 DUP3 ADD SWAP1 POP DUP2 DUP2 SUB PUSH1 0x0 DUP4 ADD MSTORE PUSH2 0x521D DUP2 PUSH2 0x51E1 JUMP JUMPDEST SWAP1 POP SWAP2 SWAP1 POP JUMP JUMPDEST PUSH32 0x4F776E61626C653A206E6577206F776E657220697320746865207A65726F2061 PUSH1 0x0 DUP3 ADD MSTORE PUSH32 0x6464726573730000000000000000000000000000000000000000000000000000 PUSH1 0x20 DUP3 ADD MSTORE POP JUMP JUMPDEST PUSH1 0x0 PUSH2 0x5280 PUSH1 0x26 DUP4 PUSH2 0x420F JUMP JUMPDEST SWAP2 POP PUSH2 0x528B DUP3 PUSH2 0x5224 JUMP JUMPDEST PUSH1 0x40 DUP3 ADD SWAP1 POP SWAP2 SWAP1 POP JUMP JUMPDEST PUSH1 0x0 PUSH1 0x20 DUP3 ADD SWAP1 POP DUP2 DUP2 SUB PUSH1 0x0 DUP4 ADD MSTORE PUSH2 0x52AF DUP2 PUSH2 0x5273 JUMP JUMPDEST SWAP1 POP SWAP2 SWAP1 POP JUMP JUMPDEST PUSH32 0x455243313136373A20637265617465206661696C656400000000000000000000 PUSH1 0x0 DUP3 ADD MSTORE POP JUMP JUMPDEST PUSH1 0x0 PUSH2 0x52EC PUSH1 0x16 DUP4 PUSH2 0x420F JUMP JUMPDEST SWAP2 POP PUSH2 0x52F7 DUP3 PUSH2 0x52B6 JUMP JUMPDEST PUSH1 0x20 DUP3 ADD SWAP1 POP SWAP2 SWAP1 POP JUMP JUMPDEST PUSH1 0x0 PUSH1 0x20 DUP3 ADD SWAP1 POP DUP2 DUP2 SUB PUSH1 0x0 DUP4 ADD MSTORE PUSH2 0x531B DUP2 PUSH2 0x52DF JUMP JUMPDEST SWAP1 POP SWAP2 SWAP1 POP JUMP JUMPDEST PUSH32 0x45524332303A20617070726F76652066726F6D20746865207A65726F20616464 PUSH1 0x0 DUP3 ADD MSTORE PUSH32 0x7265737300000000000000000000000000000000000000000000000000000000 PUSH1 0x20 DUP3 ADD MSTORE POP JUMP JUMPDEST PUSH1 0x0 PUSH2 0x537E PUSH1 0x24 DUP4 PUSH2 0x420F JUMP JUMPDEST SWAP2 POP PUSH2 0x5389 DUP3 PUSH2 0x5322 JUMP JUMPDEST PUSH1 0x40 DUP3 ADD SWAP1 POP SWAP2 SWAP1 POP JUMP JUMPDEST PUSH1 0x0 PUSH1 0x20 DUP3 ADD SWAP1 POP DUP2 DUP2 SUB PUSH1 0x0 DUP4 ADD MSTORE PUSH2 0x53AD DUP2 PUSH2 0x5371 JUMP JUMPDEST SWAP1 POP SWAP2 SWAP1 POP JUMP JUMPDEST PUSH32 0x45524332303A20617070726F766520746F20746865207A65726F206164647265 PUSH1 0x0 DUP3 ADD MSTORE PUSH32 0x7373000000000000000000000000000000000000000000000000000000000000 PUSH1 0x20 DUP3 ADD MSTORE POP JUMP JUMPDEST PUSH1 0x0 PUSH2 0x5410 PUSH1 0x22 DUP4 PUSH2 0x420F JUMP JUMPDEST SWAP2 POP PUSH2 0x541B DUP3 PUSH2 0x53B4 JUMP JUMPDEST PUSH1 0x40 DUP3 ADD SWAP1 POP SWAP2 SWAP1 POP JUMP JUMPDEST PUSH1 0x0 PUSH1 0x20 DUP3 ADD SWAP1 POP DUP2 DUP2 SUB PUSH1 0x0 DUP4 ADD MSTORE PUSH2 0x543F DUP2 PUSH2 0x5403 JUMP JUMPDEST SWAP1 POP SWAP2 SWAP1 POP JUMP JUMPDEST PUSH32 0x45524332303A207472616E736665722066726F6D20746865207A65726F206164 PUSH1 0x0 DUP3 ADD MSTORE PUSH32 0x6472657373000000000000000000000000000000000000000000000000000000 PUSH1 0x20 DUP3 ADD MSTORE POP JUMP JUMPDEST PUSH1 0x0 PUSH2 0x54A2 PUSH1 0x25 DUP4 PUSH2 0x420F JUMP JUMPDEST SWAP2 POP PUSH2 0x54AD DUP3 PUSH2 0x5446 JUMP JUMPDEST PUSH1 0x40 DUP3 ADD SWAP1 POP SWAP2 SWAP1 POP JUMP JUMPDEST PUSH1 0x0 PUSH1 0x20 DUP3 ADD SWAP1 POP DUP2 DUP2 SUB PUSH1 0x0 DUP4 ADD MSTORE PUSH2 0x54D1 DUP2 PUSH2 0x5495 JUMP JUMPDEST SWAP1 POP SWAP2 SWAP1 POP JUMP JUMPDEST PUSH32 0x45524332303A207472616E7366657220746F20746865207A65726F2061646472 PUSH1 0x0 DUP3 ADD MSTORE PUSH32 0x6573730000000000000000000000000000000000000000000000000000000000 PUSH1 0x20 DUP3 ADD MSTORE POP JUMP JUMPDEST PUSH1 0x0 PUSH2 0x5534 PUSH1 0x23 DUP4 PUSH2 0x420F JUMP JUMPDEST SWAP2 POP PUSH2 0x553F DUP3 PUSH2 0x54D8 JUMP JUMPDEST PUSH1 0x40 DUP3 ADD SWAP1 POP SWAP2 SWAP1 POP JUMP JUMPDEST PUSH1 0x0 PUSH1 0x20 DUP3 ADD SWAP1 POP DUP2 DUP2 SUB PUSH1 0x0 DUP4 ADD MSTORE PUSH2 0x5563 DUP2 PUSH2 0x5527 JUMP JUMPDEST SWAP1 POP SWAP2 SWAP1 POP JUMP JUMPDEST PUSH1 0x0 PUSH1 0x40 DUP3 ADD SWAP1 POP PUSH2 0x557F PUSH1 0x0 DUP4 ADD DUP6 PUSH2 0x4B3A JUMP JUMPDEST PUSH2 0x558C PUSH1 0x20 DUP4 ADD DUP5 PUSH2 0x44B2 JUMP JUMPDEST SWAP4 SWAP3 POP POP POP JUMP JUMPDEST PUSH32 0x45524332303A207472616E7366657220616D6F756E7420657863656564732062 PUSH1 0x0 DUP3 ADD MSTORE PUSH32 0x616C616E63650000000000000000000000000000000000000000000000000000 PUSH1 0x20 DUP3 ADD MSTORE POP JUMP JUMPDEST PUSH1 0x0 PUSH2 0x55EF PUSH1 0x26 DUP4 PUSH2 0x420F JUMP JUMPDEST SWAP2 POP PUSH2 0x55FA DUP3 PUSH2 0x5593 JUMP JUMPDEST PUSH1 0x40 DUP3 ADD SWAP1 POP SWAP2 SWAP1 POP JUMP JUMPDEST PUSH1 0x0 PUSH1 0x20 DUP3 ADD SWAP1 POP DUP2 DUP2 SUB PUSH1 0x0 DUP4 ADD MSTORE PUSH2 0x561E DUP2 PUSH2 0x55E2 JUMP JUMPDEST SWAP1 POP SWAP2 SWAP1 POP JUMP JUMPDEST PUSH1 0x0 PUSH2 0x5630 DUP3 PUSH2 0x4327 JUMP JUMPDEST SWAP2 POP PUSH2 0x563B DUP4 PUSH2 0x4327 JUMP JUMPDEST SWAP3 POP DUP2 PUSH32 0xFFFFFFFFFFFFFFFFFFFFFFFFFFFFFFFFFFFFFFFFFFFFFFFFFFFFFFFFFFFFFFFF DIV DUP4 GT DUP3 ISZERO ISZERO AND ISZERO PUSH2 0x5674 JUMPI PUSH2 0x5673 PUSH2 0x48B1 JUMP JUMPDEST JUMPDEST DUP3 DUP3 MUL SWAP1 POP SWAP3 SWAP2 POP POP JUMP JUMPDEST PUSH1 0x0 PUSH1 0x40 DUP3 ADD SWAP1 POP PUSH2 0x5694 PUSH1 0x0 DUP4 ADD DUP6 PUSH2 0x4649 JUMP JUMPDEST PUSH2 0x56A1 PUSH1 0x20 DUP4 ADD DUP5 PUSH2 0x44B2 JUMP JUMPDEST SWAP4 SWAP3 POP POP POP JUMP JUMPDEST PUSH1 0x0 PUSH1 0x60 DUP3 ADD SWAP1 POP PUSH2 0x56BD PUSH1 0x0 DUP4 ADD DUP7 PUSH2 0x44B2 JUMP JUMPDEST PUSH2 0x56CA PUSH1 0x20 DUP4 ADD DUP6 PUSH2 0x44B2 JUMP JUMPDEST PUSH2 0x56D7 PUSH1 0x40 DUP4 ADD DUP5 PUSH2 0x44B2 JUMP JUMPDEST SWAP5 SWAP4 POP POP POP POP JUMP JUMPDEST PUSH1 0x0 PUSH1 0x40 DUP3 ADD SWAP1 POP PUSH2 0x56F4 PUSH1 0x0 DUP4 ADD DUP6 PUSH2 0x44B2 JUMP JUMPDEST PUSH2 0x5701 PUSH1 0x20 DUP4 ADD DUP5 PUSH2 0x44B2 JUMP JUMPDEST SWAP4 SWAP3 POP POP POP JUMP JUMPDEST PUSH1 0x0 PUSH2 0x5713 DUP3 PUSH2 0x4327 JUMP JUMPDEST SWAP2 POP PUSH2 0x571E DUP4 PUSH2 0x4327 JUMP JUMPDEST SWAP3 POP DUP3 DUP3 LT ISZERO PUSH2 0x5731 JUMPI PUSH2 0x5730 PUSH2 0x48B1 JUMP JUMPDEST JUMPDEST DUP3 DUP3 SUB SWAP1 POP SWAP3 SWAP2 POP POP JUMP JUMPDEST PUSH32 0x4E487B7100000000000000000000000000000000000000000000000000000000 PUSH1 0x0 MSTORE PUSH1 0x41 PUSH1 0x4 MSTORE PUSH1 0x24 PUSH1 0x0 REVERT JUMPDEST PUSH1 0x0 PUSH1 0x20 DUP3 DUP5 SUB SLT ISZERO PUSH2 0x5781 JUMPI PUSH2 0x5780 PUSH2 0x42BF JUMP JUMPDEST JUMPDEST PUSH1 0x0 PUSH2 0x578F DUP5 DUP3 DUP6 ADD PUSH2 0x4FA9 JUMP JUMPDEST SWAP2 POP POP SWAP3 SWAP2 POP POP JUMP JUMPDEST PUSH1 0x0 DUP2 SWAP1 POP SWAP2 SWAP1 POP JUMP JUMPDEST PUSH1 0x0 PUSH2 0x57BD PUSH2 0x57B8 PUSH2 0x57B3 DUP5 PUSH2 0x5798 JUMP JUMPDEST PUSH2 0x44DC JUMP JUMPDEST PUSH2 0x4327 JUMP JUMPDEST SWAP1 POP SWAP2 SWAP1 POP JUMP JUMPDEST PUSH2 0x57CD DUP2 PUSH2 0x57A2 JUMP JUMPDEST DUP3 MSTORE POP POP JUMP JUMPDEST PUSH1 0x0 DUP2 MLOAD SWAP1 POP SWAP2 SWAP1 POP JUMP JUMPDEST PUSH1 0x0 DUP2 SWAP1 POP PUSH1 0x20 DUP3 ADD SWAP1 POP SWAP2 SWAP1 POP JUMP JUMPDEST PUSH1 0x0 PUSH1 0x20 DUP3 ADD SWAP1 POP SWAP2 SWAP1 POP JUMP JUMPDEST PUSH1 0x0 PUSH2 0x5806 DUP3 PUSH2 0x57D3 JUMP JUMPDEST PUSH2 0x5810 DUP2 DUP6 PUSH2 0x4929 JUMP JUMPDEST SWAP4 POP PUSH2 0x581B DUP4 PUSH2 0x57DE JUMP JUMPDEST DUP1 PUSH1 0x0 JUMPDEST DUP4 DUP2 LT ISZERO PUSH2 0x584C JUMPI DUP2 MLOAD PUSH2 0x5833 DUP9 DUP3 PUSH2 0x4953 JUMP JUMPDEST SWAP8 POP PUSH2 0x583E DUP4 PUSH2 0x57EE JUMP JUMPDEST SWAP3 POP POP PUSH1 0x1 DUP2 ADD SWAP1 POP PUSH2 0x581F JUMP JUMPDEST POP DUP6 SWAP4 POP POP POP POP SWAP3 SWAP2 POP POP JUMP JUMPDEST PUSH1 0x0 PUSH1 0xA0 DUP3 ADD SWAP1 POP PUSH2 0x586E PUSH1 0x0 DUP4 ADD DUP9 PUSH2 0x44B2 JUMP JUMPDEST PUSH2 0x587B PUSH1 0x20 DUP4 ADD DUP8 PUSH2 0x57C4 JUMP JUMPDEST DUP2 DUP2 SUB PUSH1 0x40 DUP4 ADD MSTORE PUSH2 0x588D DUP2 DUP7 PUSH2 0x57FB JUMP JUMPDEST SWAP1 POP PUSH2 0x589C PUSH1 0x60 DUP4 ADD DUP6 PUSH2 0x4649 JUMP JUMPDEST PUSH2 0x58A9 PUSH1 0x80 DUP4 ADD DUP5 PUSH2 0x44B2 JUMP JUMPDEST SWAP7 SWAP6 POP POP POP POP POP POP JUMP JUMPDEST PUSH1 0x0 PUSH1 0xC0 DUP3 ADD SWAP1 POP PUSH2 0x58C8 PUSH1 0x0 DUP4 ADD DUP10 PUSH2 0x4649 JUMP JUMPDEST PUSH2 0x58D5 PUSH1 0x20 DUP4 ADD DUP9 PUSH2 0x44B2 JUMP JUMPDEST PUSH2 0x58E2 PUSH1 0x40 DUP4 ADD DUP8 PUSH2 0x57C4 JUMP JUMPDEST PUSH2 0x58EF PUSH1 0x60 DUP4 ADD DUP7 PUSH2 0x57C4 JUMP JUMPDEST PUSH2 0x58FC PUSH1 0x80 DUP4 ADD DUP6 PUSH2 0x4649 JUMP JUMPDEST PUSH2 0x5909 PUSH1 0xA0 DUP4 ADD DUP5 PUSH2 0x44B2 JUMP JUMPDEST SWAP8 SWAP7 POP POP POP POP POP POP POP JUMP INVALID LOG2 PUSH5 0x6970667358 0x22 SLT KECCAK256 DUP6 0x23 0xD6 SELFDESTRUCT 0xDC 0x26 COINBASE 0xC8 PUSH7 0xC8FA1AC0D64C44 PUSH17 0xD76A6C65A1D58BC953ADBD9F52934A6473 PUSH16 0x6C634300080900330000000000000000 "
		},
		"gasEstimates": {
			"creation": {
				"codeDepositCost": "4571600",
				"executionCost": "infinite",
				"totalCost": "infinite"
			},
			"external": {
				"VERSION()": "461",
				"_marketingWalletAddress()": "2582",
				"allowance(address,address)": "infinite",
				"approve(address,uint256)": "infinite",
				"automatedMarketMakerPairs(address)": "2890",
				"balanceOf(address)": "2974",
				"claim()": "infinite",
				"decimals()": "477",
				"decreaseAllowance(address,uint256)": "infinite",
				"dividendTokenBalanceOf(address)": "infinite",
				"dividendTracker()": "infinite",
				"excludeFromDividends(address)": "infinite",
				"excludeFromFees(address)": "30614",
				"excludeMultipleAccountsFromFees(address[])": "infinite",
				"gasForProcessing()": "2585",
				"getAccountDividendsInfo(address)": "infinite",
				"getAccountDividendsInfoAtIndex(uint256)": "infinite",
				"getClaimWait()": "infinite",
				"getLastProcessedIndex()": "infinite",
				"getMinimumTokenBalanceForDividends()": "infinite",
				"getNumberOfDividendTokenHolders()": "infinite",
				"getTotalDividendsDistributed()": "infinite",
				"increaseAllowance(address,uint256)": "infinite",
				"isExcludedFromDividends(address)": "infinite",
				"isExcludedFromFees(address)": "3039",
				"liquidityFee()": "2563",
				"marketingFee()": "2518",
				"name()": "infinite",
				"owner()": "2612",
				"processDividendTracker(uint256)": "infinite",
				"renounceOwnership()": "30420",
				"rewardToken()": "2624",
				"setLiquiditFee(uint256)": "infinite",
				"setMarketingFee(uint256)": "infinite",
				"setMarketingWallet(address)": "29756",
				"setSwapTokensAtAmount(uint256)": "infinite",
				"setTokenRewardsFee(uint256)": "infinite",
				"swapTokensAtAmount()": "2562",
				"symbol()": "infinite",
				"tokenRewardsFee()": "2496",
				"totalFees()": "2564",
				"totalSupply()": "2483",
				"transfer(address,uint256)": "infinite",
				"transferFrom(address,address,uint256)": "infinite",
				"transferOwnership(address)": "30811",
				"uniswapV2Pair()": "2604",
				"uniswapV2Router()": "infinite",
				"updateClaimWait(uint256)": "infinite",
				"updateGasForProcessing(uint256)": "30647",
				"updateMinimumTokenBalanceForDividends(uint256)": "infinite",
				"withdrawableDividendOf(address)": "infinite"
			},
			"internal": {
				"_setAutomatedMarketMakerPair(address,bool)": "infinite",
				"_transfer(address,address,uint256)": "infinite",
				"addLiquidity(uint256,uint256)": "infinite",
				"swapAndLiquify(uint256)": "infinite",
				"swapAndSendDividends(uint256)": "infinite",
				"swapAndSendToFee(uint256)": "infinite",
				"swapTokensForCake(uint256)": "infinite",
				"swapTokensForEth(uint256)": "infinite"
			}
		},
		"methodIdentifiers": {
			"VERSION()": "ffa1ad74",
			"_marketingWalletAddress()": "4144d9e4",
			"allowance(address,address)": "dd62ed3e",
			"approve(address,uint256)": "095ea7b3",
			"automatedMarketMakerPairs(address)": "b62496f5",
			"balanceOf(address)": "70a08231",
			"claim()": "4e71d92d",
			"decimals()": "313ce567",
			"decreaseAllowance(address,uint256)": "a457c2d7",
			"dividendTokenBalanceOf(address)": "6843cd84",
			"dividendTracker()": "2c1f5216",
			"excludeFromDividends(address)": "31e79db0",
			"excludeFromFees(address)": "e57f14e1",
			"excludeMultipleAccountsFromFees(address[])": "0c43c79b",
			"gasForProcessing()": "9c1b8af5",
			"getAccountDividendsInfo(address)": "ad56c13c",
			"getAccountDividendsInfoAtIndex(uint256)": "f27fd254",
			"getClaimWait()": "a26579ad",
			"getLastProcessedIndex()": "e7841ec0",
			"getMinimumTokenBalanceForDividends()": "bdd4f29f",
			"getNumberOfDividendTokenHolders()": "64b0f653",
			"getTotalDividendsDistributed()": "30bb4cff",
			"increaseAllowance(address,uint256)": "39509351",
			"isExcludedFromDividends(address)": "c705c569",
			"isExcludedFromFees(address)": "4fbee193",
			"liquidityFee()": "98118cb4",
			"marketingFee()": "6b67c4df",
			"name()": "06fdde03",
			"owner()": "8da5cb5b",
			"processDividendTracker(uint256)": "700bb191",
			"renounceOwnership()": "715018a6",
			"rewardToken()": "f7c618c1",
			"setLiquiditFee(uint256)": "adefd90c",
			"setMarketingFee(uint256)": "625e764c",
			"setMarketingWallet(address)": "5d098b38",
			"setSwapTokensAtAmount(uint256)": "afa4f3b2",
			"setTokenRewardsFee(uint256)": "4ed080c7",
			"swapTokensAtAmount()": "e2f45605",
			"symbol()": "95d89b41",
			"tokenRewardsFee()": "e708a0f9",
			"totalFees()": "13114a9d",
			"totalSupply()": "18160ddd",
			"transfer(address,uint256)": "a9059cbb",
			"transferFrom(address,address,uint256)": "23b872dd",
			"transferOwnership(address)": "f2fde38b",
			"uniswapV2Pair()": "49bd5a5e",
			"uniswapV2Router()": "1694505e",
			"updateClaimWait(uint256)": "e98030c7",
			"updateGasForProcessing(uint256)": "871c128d",
			"updateMinimumTokenBalanceForDividends(uint256)": "0dcb2e89",
			"withdrawableDividendOf(address)": "a8b9d240"
		}
	},
	"abi": [
		{
			"inputs": [
				{
					"internalType": "string",
					"name": "name_",
					"type": "string"
				},
				{
					"internalType": "string",
					"name": "symbol_",
					"type": "string"
				},
				{
					"internalType": "uint256",
					"name": "totalSupply_",
					"type": "uint256"
				},
				{
					"internalType": "address[4]",
					"name": "addrs",
					"type": "address[4]"
				},
				{
					"internalType": "uint256[3]",
					"name": "feeSettings",
					"type": "uint256[3]"
				},
				{
					"internalType": "uint256",
					"name": "minimumTokenBalanceForDividends_",
					"type": "uint256"
				},
				{
					"internalType": "address",
					"name": "serviceFeeReceiver_",
					"type": "address"
				},
				{
					"internalType": "uint256",
					"name": "serviceFee_",
					"type": "uint256"
				}
			],
			"stateMutability": "payable",
			"type": "constructor"
		},
		{
			"anonymous": false,
			"inputs": [
				{
					"indexed": true,
					"internalType": "address",
					"name": "owner",
					"type": "address"
				},
				{
					"indexed": true,
					"internalType": "address",
					"name": "spender",
					"type": "address"
				},
				{
					"indexed": false,
					"internalType": "uint256",
					"name": "value",
					"type": "uint256"
				}
			],
			"name": "Approval",
			"type": "event"
		},
		{
			"anonymous": false,
			"inputs": [
				{
					"indexed": true,
					"internalType": "address",
					"name": "account",
					"type": "address"
				}
			],
			"name": "ExcludeFromFees",
			"type": "event"
		},
		{
			"anonymous": false,
			"inputs": [
				{
					"indexed": false,
					"internalType": "address[]",
					"name": "accounts",
					"type": "address[]"
				}
			],
			"name": "ExcludeMultipleAccountsFromFees",
			"type": "event"
		},
		{
			"anonymous": false,
			"inputs": [
				{
					"indexed": true,
					"internalType": "uint256",
					"name": "newValue",
					"type": "uint256"
				},
				{
					"indexed": true,
					"internalType": "uint256",
					"name": "oldValue",
					"type": "uint256"
				}
			],
			"name": "GasForProcessingUpdated",
			"type": "event"
		},
		{
			"anonymous": false,
			"inputs": [
				{
					"indexed": true,
					"internalType": "address",
					"name": "previousOwner",
					"type": "address"
				},
				{
					"indexed": true,
					"internalType": "address",
					"name": "newOwner",
					"type": "address"
				}
			],
			"name": "OwnershipTransferred",
			"type": "event"
		},
		{
			"anonymous": false,
			"inputs": [
				{
					"indexed": false,
					"internalType": "uint256",
					"name": "iterations",
					"type": "uint256"
				},
				{
					"indexed": false,
					"internalType": "uint256",
					"name": "claims",
					"type": "uint256"
				},
				{
					"indexed": false,
					"internalType": "uint256",
					"name": "lastProcessedIndex",
					"type": "uint256"
				},
				{
					"indexed": true,
					"internalType": "bool",
					"name": "automatic",
					"type": "bool"
				},
				{
					"indexed": false,
					"internalType": "uint256",
					"name": "gas",
					"type": "uint256"
				},
				{
					"indexed": true,
					"internalType": "address",
					"name": "processor",
					"type": "address"
				}
			],
			"name": "ProcessedDividendTracker",
			"type": "event"
		},
		{
			"anonymous": false,
			"inputs": [
				{
					"indexed": false,
					"internalType": "uint256",
					"name": "tokensSwapped",
					"type": "uint256"
				},
				{
					"indexed": false,
					"internalType": "uint256",
					"name": "amount",
					"type": "uint256"
				}
			],
			"name": "SendDividends",
			"type": "event"
		},
		{
			"anonymous": false,
			"inputs": [
				{
					"indexed": true,
					"internalType": "address",
					"name": "pair",
					"type": "address"
				},
				{
					"indexed": true,
					"internalType": "bool",
					"name": "value",
					"type": "bool"
				}
			],
			"name": "SetAutomatedMarketMakerPair",
			"type": "event"
		},
		{
			"anonymous": false,
			"inputs": [
				{
					"indexed": false,
					"internalType": "uint256",
					"name": "tokensSwapped",
					"type": "uint256"
				},
				{
					"indexed": false,
					"internalType": "uint256",
					"name": "ethReceived",
					"type": "uint256"
				},
				{
					"indexed": false,
					"internalType": "uint256",
					"name": "tokensIntoLiqudity",
					"type": "uint256"
				}
			],
			"name": "SwapAndLiquify",
			"type": "event"
		},
		{
			"anonymous": false,
			"inputs": [
				{
					"indexed": true,
					"internalType": "address",
					"name": "owner",
					"type": "address"
				},
				{
					"indexed": true,
					"internalType": "address",
					"name": "token",
					"type": "address"
				},
				{
					"indexed": false,
					"internalType": "enum TokenType",
					"name": "tokenType",
					"type": "uint8"
				},
				{
					"indexed": false,
					"internalType": "uint256",
					"name": "version",
					"type": "uint256"
				}
			],
			"name": "TokenCreated",
			"type": "event"
		},
		{
			"anonymous": false,
			"inputs": [
				{
					"indexed": true,
					"internalType": "address",
					"name": "from",
					"type": "address"
				},
				{
					"indexed": true,
					"internalType": "address",
					"name": "to",
					"type": "address"
				},
				{
					"indexed": false,
					"internalType": "uint256",
					"name": "value",
					"type": "uint256"
				}
			],
			"name": "Transfer",
			"type": "event"
		},
		{
			"inputs": [],
			"name": "VERSION",
			"outputs": [
				{
					"internalType": "uint256",
					"name": "",
					"type": "uint256"
				}
			],
			"stateMutability": "view",
			"type": "function"
		},
		{
			"inputs": [],
			"name": "_marketingWalletAddress",
			"outputs": [
				{
					"internalType": "address",
					"name": "",
					"type": "address"
				}
			],
			"stateMutability": "view",
			"type": "function"
		},
		{
			"inputs": [
				{
					"internalType": "address",
					"name": "owner",
					"type": "address"
				},
				{
					"internalType": "address",
					"name": "spender",
					"type": "address"
				}
			],
			"name": "allowance",
			"outputs": [
				{
					"internalType": "uint256",
					"name": "",
					"type": "uint256"
				}
			],
			"stateMutability": "view",
			"type": "function"
		},
		{
			"inputs": [
				{
					"internalType": "address",
					"name": "spender",
					"type": "address"
				},
				{
					"internalType": "uint256",
					"name": "amount",
					"type": "uint256"
				}
			],
			"name": "approve",
			"outputs": [
				{
					"internalType": "bool",
					"name": "",
					"type": "bool"
				}
			],
			"stateMutability": "nonpayable",
			"type": "function"
		},
		{
			"inputs": [
				{
					"internalType": "address",
					"name": "",
					"type": "address"
				}
			],
			"name": "automatedMarketMakerPairs",
			"outputs": [
				{
					"internalType": "bool",
					"name": "",
					"type": "bool"
				}
			],
			"stateMutability": "view",
			"type": "function"
		},
		{
			"inputs": [
				{
					"internalType": "address",
					"name": "account",
					"type": "address"
				}
			],
			"name": "balanceOf",
			"outputs": [
				{
					"internalType": "uint256",
					"name": "",
					"type": "uint256"
				}
			],
			"stateMutability": "view",
			"type": "function"
		},
		{
			"inputs": [],
			"name": "claim",
			"outputs": [],
			"stateMutability": "nonpayable",
			"type": "function"
		},
		{
			"inputs": [],
			"name": "decimals",
			"outputs": [
				{
					"internalType": "uint8",
					"name": "",
					"type": "uint8"
				}
			],
			"stateMutability": "view",
			"type": "function"
		},
		{
			"inputs": [
				{
					"internalType": "address",
					"name": "spender",
					"type": "address"
				},
				{
					"internalType": "uint256",
					"name": "subtractedValue",
					"type": "uint256"
				}
			],
			"name": "decreaseAllowance",
			"outputs": [
				{
					"internalType": "bool",
					"name": "",
					"type": "bool"
				}
			],
			"stateMutability": "nonpayable",
			"type": "function"
		},
		{
			"inputs": [
				{
					"internalType": "address",
					"name": "account",
					"type": "address"
				}
			],
			"name": "dividendTokenBalanceOf",
			"outputs": [
				{
					"internalType": "uint256",
					"name": "",
					"type": "uint256"
				}
			],
			"stateMutability": "view",
			"type": "function"
		},
		{
			"inputs": [],
			"name": "dividendTracker",
			"outputs": [
				{
					"internalType": "contract BABYTOKENDividendTracker",
					"name": "",
					"type": "address"
				}
			],
			"stateMutability": "view",
			"type": "function"
		},
		{
			"inputs": [
				{
					"internalType": "address",
					"name": "account",
					"type": "address"
				}
			],
			"name": "excludeFromDividends",
			"outputs": [],
			"stateMutability": "nonpayable",
			"type": "function"
		},
		{
			"inputs": [
				{
					"internalType": "address",
					"name": "account",
					"type": "address"
				}
			],
			"name": "excludeFromFees",
			"outputs": [],
			"stateMutability": "nonpayable",
			"type": "function"
		},
		{
			"inputs": [
				{
					"internalType": "address[]",
					"name": "accounts",
					"type": "address[]"
				}
			],
			"name": "excludeMultipleAccountsFromFees",
			"outputs": [],
			"stateMutability": "nonpayable",
			"type": "function"
		},
		{
			"inputs": [],
			"name": "gasForProcessing",
			"outputs": [
				{
					"internalType": "uint256",
					"name": "",
					"type": "uint256"
				}
			],
			"stateMutability": "view",
			"type": "function"
		},
		{
			"inputs": [
				{
					"internalType": "address",
					"name": "account",
					"type": "address"
				}
			],
			"name": "getAccountDividendsInfo",
			"outputs": [
				{
					"internalType": "address",
					"name": "",
					"type": "address"
				},
				{
					"internalType": "int256",
					"name": "",
					"type": "int256"
				},
				{
					"internalType": "int256",
					"name": "",
					"type": "int256"
				},
				{
					"internalType": "uint256",
					"name": "",
					"type": "uint256"
				},
				{
					"internalType": "uint256",
					"name": "",
					"type": "uint256"
				},
				{
					"internalType": "uint256",
					"name": "",
					"type": "uint256"
				},
				{
					"internalType": "uint256",
					"name": "",
					"type": "uint256"
				},
				{
					"internalType": "uint256",
					"name": "",
					"type": "uint256"
				}
			],
			"stateMutability": "view",
			"type": "function"
		},
		{
			"inputs": [
				{
					"internalType": "uint256",
					"name": "index",
					"type": "uint256"
				}
			],
			"name": "getAccountDividendsInfoAtIndex",
			"outputs": [
				{
					"internalType": "address",
					"name": "",
					"type": "address"
				},
				{
					"internalType": "int256",
					"name": "",
					"type": "int256"
				},
				{
					"internalType": "int256",
					"name": "",
					"type": "int256"
				},
				{
					"internalType": "uint256",
					"name": "",
					"type": "uint256"
				},
				{
					"internalType": "uint256",
					"name": "",
					"type": "uint256"
				},
				{
					"internalType": "uint256",
					"name": "",
					"type": "uint256"
				},
				{
					"internalType": "uint256",
					"name": "",
					"type": "uint256"
				},
				{
					"internalType": "uint256",
					"name": "",
					"type": "uint256"
				}
			],
			"stateMutability": "view",
			"type": "function"
		},
		{
			"inputs": [],
			"name": "getClaimWait",
			"outputs": [
				{
					"internalType": "uint256",
					"name": "",
					"type": "uint256"
				}
			],
			"stateMutability": "view",
			"type": "function"
		},
		{
			"inputs": [],
			"name": "getLastProcessedIndex",
			"outputs": [
				{
					"internalType": "uint256",
					"name": "",
					"type": "uint256"
				}
			],
			"stateMutability": "view",
			"type": "function"
		},
		{
			"inputs": [],
			"name": "getMinimumTokenBalanceForDividends",
			"outputs": [
				{
					"internalType": "uint256",
					"name": "",
					"type": "uint256"
				}
			],
			"stateMutability": "view",
			"type": "function"
		},
		{
			"inputs": [],
			"name": "getNumberOfDividendTokenHolders",
			"outputs": [
				{
					"internalType": "uint256",
					"name": "",
					"type": "uint256"
				}
			],
			"stateMutability": "view",
			"type": "function"
		},
		{
			"inputs": [],
			"name": "getTotalDividendsDistributed",
			"outputs": [
				{
					"internalType": "uint256",
					"name": "",
					"type": "uint256"
				}
			],
			"stateMutability": "view",
			"type": "function"
		},
		{
			"inputs": [
				{
					"internalType": "address",
					"name": "spender",
					"type": "address"
				},
				{
					"internalType": "uint256",
					"name": "addedValue",
					"type": "uint256"
				}
			],
			"name": "increaseAllowance",
			"outputs": [
				{
					"internalType": "bool",
					"name": "",
					"type": "bool"
				}
			],
			"stateMutability": "nonpayable",
			"type": "function"
		},
		{
			"inputs": [
				{
					"internalType": "address",
					"name": "account",
					"type": "address"
				}
			],
			"name": "isExcludedFromDividends",
			"outputs": [
				{
					"internalType": "bool",
					"name": "",
					"type": "bool"
				}
			],
			"stateMutability": "view",
			"type": "function"
		},
		{
			"inputs": [
				{
					"internalType": "address",
					"name": "account",
					"type": "address"
				}
			],
			"name": "isExcludedFromFees",
			"outputs": [
				{
					"internalType": "bool",
					"name": "",
					"type": "bool"
				}
			],
			"stateMutability": "view",
			"type": "function"
		},
		{
			"inputs": [],
			"name": "liquidityFee",
			"outputs": [
				{
					"internalType": "uint256",
					"name": "",
					"type": "uint256"
				}
			],
			"stateMutability": "view",
			"type": "function"
		},
		{
			"inputs": [],
			"name": "marketingFee",
			"outputs": [
				{
					"internalType": "uint256",
					"name": "",
					"type": "uint256"
				}
			],
			"stateMutability": "view",
			"type": "function"
		},
		{
			"inputs": [],
			"name": "name",
			"outputs": [
				{
					"internalType": "string",
					"name": "",
					"type": "string"
				}
			],
			"stateMutability": "view",
			"type": "function"
		},
		{
			"inputs": [],
			"name": "owner",
			"outputs": [
				{
					"internalType": "address",
					"name": "",
					"type": "address"
				}
			],
			"stateMutability": "view",
			"type": "function"
		},
		{
			"inputs": [
				{
					"internalType": "uint256",
					"name": "gas",
					"type": "uint256"
				}
			],
			"name": "processDividendTracker",
			"outputs": [],
			"stateMutability": "nonpayable",
			"type": "function"
		},
		{
			"inputs": [],
			"name": "renounceOwnership",
			"outputs": [],
			"stateMutability": "nonpayable",
			"type": "function"
		},
		{
			"inputs": [],
			"name": "rewardToken",
			"outputs": [
				{
					"internalType": "address",
					"name": "",
					"type": "address"
				}
			],
			"stateMutability": "view",
			"type": "function"
		},
		{
			"inputs": [
				{
					"internalType": "uint256",
					"name": "value",
					"type": "uint256"
				}
			],
			"name": "setLiquiditFee",
			"outputs": [],
			"stateMutability": "nonpayable",
			"type": "function"
		},
		{
			"inputs": [
				{
					"internalType": "uint256",
					"name": "value",
					"type": "uint256"
				}
			],
			"name": "setMarketingFee",
			"outputs": [],
			"stateMutability": "nonpayable",
			"type": "function"
		},
		{
			"inputs": [
				{
					"internalType": "address payable",
					"name": "wallet",
					"type": "address"
				}
			],
			"name": "setMarketingWallet",
			"outputs": [],
			"stateMutability": "nonpayable",
			"type": "function"
		},
		{
			"inputs": [
				{
					"internalType": "uint256",
					"name": "amount",
					"type": "uint256"
				}
			],
			"name": "setSwapTokensAtAmount",
			"outputs": [],
			"stateMutability": "nonpayable",
			"type": "function"
		},
		{
			"inputs": [
				{
					"internalType": "uint256",
					"name": "value",
					"type": "uint256"
				}
			],
			"name": "setTokenRewardsFee",
			"outputs": [],
			"stateMutability": "nonpayable",
			"type": "function"
		},
		{
			"inputs": [],
			"name": "swapTokensAtAmount",
			"outputs": [
				{
					"internalType": "uint256",
					"name": "",
					"type": "uint256"
				}
			],
			"stateMutability": "view",
			"type": "function"
		},
		{
			"inputs": [],
			"name": "symbol",
			"outputs": [
				{
					"internalType": "string",
					"name": "",
					"type": "string"
				}
			],
			"stateMutability": "view",
			"type": "function"
		},
		{
			"inputs": [],
			"name": "tokenRewardsFee",
			"outputs": [
				{
					"internalType": "uint256",
					"name": "",
					"type": "uint256"
				}
			],
			"stateMutability": "view",
			"type": "function"
		},
		{
			"inputs": [],
			"name": "totalFees",
			"outputs": [
				{
					"internalType": "uint256",
					"name": "",
					"type": "uint256"
				}
			],
			"stateMutability": "view",
			"type": "function"
		},
		{
			"inputs": [],
			"name": "totalSupply",
			"outputs": [
				{
					"internalType": "uint256",
					"name": "",
					"type": "uint256"
				}
			],
			"stateMutability": "view",
			"type": "function"
		},
		{
			"inputs": [
				{
					"internalType": "address",
					"name": "recipient",
					"type": "address"
				},
				{
					"internalType": "uint256",
					"name": "amount",
					"type": "uint256"
				}
			],
			"name": "transfer",
			"outputs": [
				{
					"internalType": "bool",
					"name": "",
					"type": "bool"
				}
			],
			"stateMutability": "nonpayable",
			"type": "function"
		},
		{
			"inputs": [
				{
					"internalType": "address",
					"name": "sender",
					"type": "address"
				},
				{
					"internalType": "address",
					"name": "recipient",
					"type": "address"
				},
				{
					"internalType": "uint256",
					"name": "amount",
					"type": "uint256"
				}
			],
			"name": "transferFrom",
			"outputs": [
				{
					"internalType": "bool",
					"name": "",
					"type": "bool"
				}
			],
			"stateMutability": "nonpayable",
			"type": "function"
		},
		{
			"inputs": [
				{
					"internalType": "address",
					"name": "newOwner",
					"type": "address"
				}
			],
			"name": "transferOwnership",
			"outputs": [],
			"stateMutability": "nonpayable",
			"type": "function"
		},
		{
			"inputs": [],
			"name": "uniswapV2Pair",
			"outputs": [
				{
					"internalType": "address",
					"name": "",
					"type": "address"
				}
			],
			"stateMutability": "view",
			"type": "function"
		},
		{
			"inputs": [],
			"name": "uniswapV2Router",
			"outputs": [
				{
					"internalType": "contract IUniswapV2Router02",
					"name": "",
					"type": "address"
				}
			],
			"stateMutability": "view",
			"type": "function"
		},
		{
			"inputs": [
				{
					"internalType": "uint256",
					"name": "claimWait",
					"type": "uint256"
				}
			],
			"name": "updateClaimWait",
			"outputs": [],
			"stateMutability": "nonpayable",
			"type": "function"
		},
		{
			"inputs": [
				{
					"internalType": "uint256",
					"name": "newValue",
					"type": "uint256"
				}
			],
			"name": "updateGasForProcessing",
			"outputs": [],
			"stateMutability": "nonpayable",
			"type": "function"
		},
		{
			"inputs": [
				{
					"internalType": "uint256",
					"name": "amount",
					"type": "uint256"
				}
			],
			"name": "updateMinimumTokenBalanceForDividends",
			"outputs": [],
			"stateMutability": "nonpayable",
			"type": "function"
		},
		{
			"inputs": [
				{
					"internalType": "address",
					"name": "account",
					"type": "address"
				}
			],
			"name": "withdrawableDividendOf",
			"outputs": [
				{
					"internalType": "uint256",
					"name": "",
					"type": "uint256"
				}
			],
			"stateMutability": "view",
			"type": "function"
		},
		{
			"stateMutability": "payable",
			"type": "receive"
		}
	]
}